00COTAHIST.2018BOVESPA 20180730                                                                                                                                                                                                                      
012018073002AALR3       010ALLIAR      ON      NM   R$  000000000131400000000013200000000001293000000000130400000000013030000000001293000000000130300539000000000000155300000000000202541700000000000000009999123100000010000000000000BRAALRACNOR6100
012018073096AALR3F      020ALLIAR      ON      NM   R$  000000000130000000000013420000000001300000000000133300000000013410000000001279000000000134100003000000000000000030000000000000040004000000000000009999123100000010000000000000BRAALRACNOR6100
012018073002AAPL34      010APPLE       DRN          R$  000000000709500000000071140000000007063000000000709800000000071110000000006950000000000711100006000000000000010400000000000073824700000000000000009999123100000010000000000000BRAAPLBDR004125
012018073096AAPL34F     020APPLE       DRN          R$  000000000710300000000071030000000007103000000000710300000000071030000000007070000000000748000001000000000000000049000000000000348047000000000000009999123100000010000000000000BRAAPLBDR004125
012018073002ABBV34      010ABBVIE      DRN          R$  000000003368000000000336800000000033680000000003368000000000336800000000000000000000000000000001000000000000000100000000000003368000000000000000009999123100000010000000000000BRABBVBDR001110
012018073096ABBV34F     020ABBVIE      DRN          R$  000000003368000000000336800000000033680000000003368000000000336800000000000000000000000000000001000000000000000033000000000001111440000000000000009999123100000010000000000000BRABBVBDR001110
012018073002ABCB4       010ABC BRASIL  PN      N2   R$  000000000156500000000015830000000001556000000000156500000000015680000000001563000000000156801171000000000000139900000000000219047900000000000000009999123100000010000000000000BRABCBACNPR4130
012018073096ABCB4F      020ABC BRASIL  PN      N2   R$  000000000156800000000015950000000001556000000000156800000000015790000000001567000000000157900032000000000000000792000000000001242521000000000000009999123100000010000000000000BRABCBACNPR4130
012018073062ABCB4T      030ABC BRASIL  PN      N2182R$  000000000161900000000016220000000001619000000000161900000000016220000000000000000000000000000004000000000000000600000000000000971978000000000000009999123100000010000000000000BRABCBACNPR4130
012018073012ABCP11      010FII ABC IMOBCI           R$  000000000157000000000015700000000001565000000000156900000000015690000000001565000000000156900244000000000000019445000000000030514620000000000000009999123100000010000000000000BRABCPCTF000273
012018073002ABEV3       010AMBEV S/A   ON           R$  000000000196600000000019790000000001956000000000196600000000019700000000001969000000000197022275000000000012744700000000025064641600000000000000009999123100000010000000000000BRABEVACNOR1120
012018073096ABEV3F      020AMBEV S/A   ON           R$  000000000196600000000019790000000001951000000000196700000000019650000000001965000000000197000237000000000000005735000000000011282054000000000000009999123100000010000000000000BRABEVACNOR1120
012018073062ABEV3T      030AMBEV S/A   ON        016R$  000000000197500000000019800000000001970000000000197400000000019770000000000000000000000000000012000000000000010600000000000020925963000000000000009999123100000010000000000000BRABEVACNOR1120
012018073062ABEV3T      030AMBEV S/A   ON        091R$  000000000199700000000019980000000001997000000000199700000000019980000000000000000000000000000004000000000000002900000000000005793192000000000000009999123100000010000000000000BRABEVACNOR1120
012018073062ABEV3T      030AMBEV S/A   ON        182R$  000000000203000000000020310000000002030000000000203000000000020310000000000000000000000000000002000000000000001000000000000002030474000000000000009999123100000010000000000000BRABEVACNOR1120
012018073078ABEVH18     070ABEV        ON        000R$  000000000018800000000001880000000000188000000000018800000000001880000000000150000000000024900001000000000000001000000000000000188000000000000178502018082000000010000000000000BRABEVACNOR1117
012018073078ABEVH19     070ABEV        ON        000R$  000000000009900000000000990000000000090000000000009200000000000900000000000091000000000012600004000000000000004100000000000000378500000000000188502018082000000010000000000000BRABEVACNOR1119
012018073078ABEVH20     070ABEV  FM    ON        000R$  000000000003800000000000380000000000030000000000003300000000000320000000000031000000000004600035000000000000086200000000000002900400000000000198502018082000000010000000000000BRABEVACNOR1118
012018073078ABEVH21     070ABEV        ON        000R$  000000000001400000000000180000000000014000000000001600000000000180000000000001000000000001800009000000000000014500000000000000238400000000000203502018082000000010000000000000BRABEVACNOR1116
012018073078ABEVH210    070ABEV  FM    ON        000R$  000000000000800000000000090000000000008000000000000800000000000090000000000008000000000001200005000000000000014400000000000000115600000000000208502018082000000010000000000000BRABEVACNOR1119
012018073078ABEVH24     070ABEV        ON        000R$  000000000000100000000000010000000000001000000000000100000000000010000000000000000000000000400001000000000000002000000000000000002000000000000238502018082000000010000000000000BRABEVACNOR1119
012018073078ABEVH49     070ABEV  FM    ON        000R$  000000000005600000000000640000000000056000000000006100000000000640000000000050000000000014000011000000000000062300000000000003812200000000000193502018082000000010000000000000BRABEVACNOR1117
012018073078ABEVH81     070ABEVE       ON        000R$  000000000000300000000000030000000000003000000000000300000000000030000000000004000000000001500001000000000000000100000000000000000300000000000211002018082000000010000000000000BRABEVACNOR1117
012018073078ABEVH91     070ABEVE       ON        000R$  000000000001200000000000130000000000010000000000001000000000000130000000000010000000000001300006000000000000015800000000000000162400000000000206002018082000000010000000000000BRABEVACNOR1117
012018073078ABEVI20     070ABEV  FM    ON        000R$  000000000005700000000000620000000000057000000000005700000000000620000000000058000000000006300004000000000000020600000000000001176900000000000200102018091700000010000000000000BRABEVACNOR1119
012018073078ABEVI221    070ABEV        ON        000R$  000000000001700000000000170000000000012000000000001400000000000120000000000000000000000001200003000000000000005000000000000000070000000000000220102018091700000010000000000000BRABEVACNOR1119
012018073078ABEVI50     070ABEV  FM    ON        000R$  000000000004300000000000430000000000043000000000004300000000000430000000000018000000000000000001000000000000000300000000000000012900000000000205102018091700000010000000000000BRABEVACNOR1119
012018073078ABEVI81     070ABEVE       ON        000R$  000000000003400000000000340000000000034000000000003400000000000340000000000000000000000000000001000000000000000200000000000000006800000000000207602018091700000010000000000000BRABEVACNOR1117
012018073082ABEVT18     080ABEVE       ON        000R$  000000000000300000000000030000000000003000000000000300000000000030000000000001000000000000600001000000000000000300000000000000000900000000000178502018082000000010000000000000BRABEVACNOR1117
012018073082ABEVT19     080ABEVE  FM   ON        000R$  000000000001100000000000110000000000009000000000001000000000000090000000000001000000000001500010000000000000097500000000000001053500000000000188502018082000000010000000000000BRABEVACNOR1119
012018073082ABEVT2      080ABEVE       ON        000R$  000000000000600000000000060000000000006000000000000600000000000060000000000002000000000000800001000000000000012000000000000000072000000000000183502018082000000010000000000000BRABEVACNOR1117
012018073082ABEVT20     080ABEVE  FM   ON        000R$  000000000004000000000000500000000000040000000000004400000000000410000000000000000000000009900004000000000000011100000000000000495500000000000198502018082000000010000000000000BRABEVACNOR1118
012018073082ABEVT210    080ABEVE  FM   ON        000R$  000000000012200000000001230000000000117000000000012000000000001170000000000000000000000020000004000000000000048000000000000005760000000000000208502018082000000010000000000000BRABEVACNOR1119
012018073082ABEVT49     080ABEVE  FM   ON        000R$  000000000002600000000000260000000000020000000000002000000000000200000000000000000000000004500004000000000000020300000000000000408300000000000193502018082000000010000000000000BRABEVACNOR1117
012018073082ABEVT79     080ABEVE       ON        000R$  000000000001900000000000190000000000019000000000001900000000000190000000000000000000000004200001000000000000001000000000000000019000000000000191002018082000000010000000000000BRABEVACNOR1117
012018073082ABEVU20     080ABEVE  FM   ON        000R$  000000000007800000000000780000000000078000000000007800000000000780000000000000000000000000000001000000000000001000000000000000078000000000000200102018091700000010000000000000BRABEVACNOR1119
012018073082ABEVU47     080ABEVE       ON        000R$  000000000001400000000000140000000000006000000000000900000000000080000000000000000000000000000007000000000000003000000000000000028000000000000170102018091700000010000000000000BRABEVACNOR1117
012018073002ABTT34      010ABBOTT      DRN          R$  000000000611500000000061150000000006115000000000611500000000061150000000000000000000000000000001000000000000000100000000000000611500000000000000009999123100000010000000000000BRABTTBDR007127
012018073096ACNB34F     020ACCENTURE   DRN          R$  000000005957900000000595790000000059579000000005957900000000595790000000000000000000000000000001000000000000000008000000000000476632000000000000009999123100000010000000000000BRACNBBDR006106
012018073002ADHM3       010ADVANCED-DH ON           R$  000000000019600000000001960000000000196000000000019600000000001960000000000190000000000019600001000000000000000400000000000000078400000000000000009999123100000010000000000000BRADHMACNOR9101
012018073096ADHM3F      020ADVANCED-DH ON           R$  000000000019600000000001980000000000184000000000019500000000001840000000000187000000000019700003000000000000000084000000000000016454000000000000009999123100000010000000000000BRADHMACNOR9101
012018073012AEFI11      010FII AESAPAR CI           R$  000000001509900000000150990000000014951000000001501800000000150300000000015029000000001503000129000000000000001207000000000018127312000000000000009999123100000010000000000000BRAEFICTF002179
012018073002AELP3       010AES ELPA    ON           R$  000000000021500000000002150000000000208000000000020900000000002100000000000210000000000021400012000000000000004700000000000000986000000000000000009999123100000010000000000000BRAELPACNOR2124
012018073096AELP3F      020AES ELPA    ON           R$  000000000020600000000002360000000000206000000000020900000000002360000000000206000000000023600003000000000000000009000000000000001884000000000000009999123100000010000000000000BRAELPACNOR2124
012018073002AETB34      010AETNA INC   DRN ED       R$  000000007090300000000709030000000070903000000007090300000000709030000000000200000000000000000001000000000000000100000000000007090300000000000000009999123100000010000000000000BRAETBBDR009108
012018073096AETB34F     020AETNA INC   DRN ED       R$  000000007090300000000709030000000070903000000007090300000000709030000000000000000000000000000001000000000000000084000000000005955852000000000000009999123100000010000000000000BRAETBBDR009108
012018073012AGCX11      010FII AG CAIXACI           R$  000000010200000000001026500000000101500000000010164700000001019500000000101700000000010195000117000000000000000689000000000070035217000000000000009999123100000010000000000000BRAGCXCTF003168
012018073002AGRO3       010BRASILAGRO  ON      NM   R$  000000000140400000000014040000000001395000000000139700000000013950000000001395000000000140200070000000000000018100000000000025288000000000000000009999123100000010000000000000BRAGROACNOR7107
012018073096AGRO3F      020BRASILAGRO  ON      NM   R$  000000000141900000000014250000000001405000000000141400000000014250000000001365000000000142500005000000000000000094000000000000132945000000000000009999123100000010000000000000BRAGROACNOR7107
012018073012ALMI11      010FII TORRE ALCI           R$  000000013900000000001390000000000137000000000013825600000001370000000000137000000000013900000015000000000000000030000000000004147705000000000000009999123100000010000000000000BRALMICTF003249
012018073002ALPA3       010ALPARGATAS  ON      N1   R$  000000000139900000000013990000000001359000000000136500000000013590000000001314000000000136000006000000000000000700000000000000955700000000000000009999123100000010000000000000BRALPAACNOR0226
012018073096ALPA3F      020ALPARGATAS  ON      N1   R$  000000000134500000000013500000000001345000000000134900000000013500000000001349000000000135000003000000000000000059000000000000079635000000000000009999123100000010000000000000BRALPAACNOR0226
012018073002ALPA4       010ALPARGATAS  PN      N1   R$  000000000130000000000013070000000001292000000000130000000000013000000000001300000000000130201344000000000000326300000000000424461000000000000000009999123100000010000000000000BRALPAACNPR7226
012018073096ALPA4F      020ALPARGATAS  PN      N1   R$  000000000132300000000013240000000001297000000000130400000000013100000000001298000000000131000031000000000000000793000000000001034536000000000000009999123100000010000000000000BRALPAACNPR7226
012018073002ALSC3       010ALIANSCE    ON      NM   R$  000000000153800000000015460000000001512000000000152200000000015200000000001520000000000152102002000000000000585600000000000891297800000000000000009999123100000010000000000000BRALSCACNOR0111
012018073096ALSC3F      020ALIANSCE    ON      NM   R$  000000000152400000000015250000000001518000000000152400000000015250000000001454000000000152500005000000000000000113000000000000172280000000000000009999123100000010000000000000BRALSCACNOR0111
012018073002ALUP11      010ALUPAR      UNT     N2   R$  000000000163100000000016440000000001615000000000163100000000016350000000001633000000000163702495000000000000392300000000000640220500000000000000009999123100000010000000000000BRALUPCDAM15108
012018073096ALUP11F     020ALUPAR      UNT     N2   R$  000000000164300000000016450000000001577000000000163200000000016450000000001575000000000164500035000000000000000914000000000001492316000000000000009999123100000010000000000000BRALUPCDAM15108
012018073002ALUP3       010ALUPAR      ON      N2   R$  000000000056800000000006090000000000568000000000057900000000006040000000000580000000000060000016000000000000003400000000000001968600000000000000009999123100000010000000000000BRALUPACNOR8108
012018073096ALUP3F      020ALUPAR      ON      N2   R$  000000000060500000000006050000000000605000000000060500000000006050000000000605000000000064100001000000000000000028000000000000016940000000000000009999123100000010000000000000BRALUPACNOR8108
012018073002ALUP4       010ALUPAR      PN      N2   R$  000000000051200000000005120000000000512000000000051200000000005120000000000452000000000056000001000000000000000100000000000000051200000000000000009999123100000010000000000000BRALUPACNPR5108
012018073012ALZR11      010FII ALIANZA CI  ER       R$  000000000939900000000094000000000009326000000000939100000000094000000000009355000000000940000059000000000000000939000000000008818579000000000000009999123100000010000000000000BRALZRCTF006106
012018073002AMAR3       010LOJAS MARISAON      NM   R$  000000000041800000000004300000000000409000000000041900000000004100000000000410000000000041501032000000000000401500000000000168464100000000000000009999123100000010000000000000BRAMARACNOR4112
012018073096AMAR3F      020LOJAS MARISAON      NM   R$  000000000044700000000004490000000000415000000000042300000000004150000000000413000000000041500018000000000000000437000000000000184931000000000000009999123100000010000000000000BRAMARACNOR4112
012018073002AMGN34      010AMGEN       DRN          R$  000000007118900000000711890000000071189000000007118900000000711890000000000000000000000000000001000000000000000100000000000007118900000000000000009999123100000010000000000000BRAMGNBDR004126
012018073096AMGN34F     020AMGEN       DRN          R$  000000007088200000000708820000000070882000000007088200000000708820000000000000000000000000000001000000000000000051000000000003614982000000000000009999123100000010000000000000BRAMGNBDR004126
012018073002AMZO34      010AMAZON      DRN          R$  000000033175200000003317520000000331752000000033175200000003317520000000000000000000000000000001000000000000000100000000000033175200000000000000009999123100000010000000000000BRAMZOBDR002101
012018073096AMZO34F     020AMAZON      DRN          R$  000000033744900000003374490000000332614000000033583700000003326140000000332000000000033744900002000000000000000015000000000005037560000000000000009999123100000010000000000000BRAMZOBDR002101
012018073002ANIM3       010ANIMA       ON      NM   R$  000000000166800000000016680000000001568000000000159200000000015800000000001580000000000159201641000000000000350000000000000557290200000000000000009999123100000010000000000000BRANIMACNOR6105
012018073096ANIM3F      020ANIMA       ON      NM   R$  000000000164400000000016960000000001570000000000160400000000016930000000001579000000000169300026000000000000000686000000000001100943000000000000009999123100000010000000000000BRANIMACNOR6105
012018073062ANIM3T      030ANIMA       ON      NM030R$  000000000159700000000015980000000001597000000000159700000000015980000000000000000000000000000002000000000000000500000000000000798685000000000000009999123100000010000000000000BRANIMACNOR6105
012018073062ANIM3T      030ANIMA       ON      NM060R$  000000000164600000000016470000000001646000000000164600000000016470000000000000000000000000000002000000000000002000000000000003293838000000000000009999123100000010000000000000BRANIMACNOR6105
012018073002ARMT34      010ARCELOR     DRN          R$  000000000586900000000059240000000005869000000000587500000000059240000000000000000000000000000002000000000000000900000000000005287600000000000000009999123100000010000000000000BRARMTBDR008116
012018073096ARMT34F     020ARCELOR     DRN          R$  000000000586900000000058690000000005869000000000586900000000058690000000000000000000000000000001000000000000000040000000000000234760000000000000009999123100000010000000000000BRARMTBDR008116
012018073002ARZZ3       010AREZZO CO   ON      NM   R$  000000000424900000000042910000000004075000000000413400000000041240000000004124000000000412701255000000000000190200000000000786361000000000000000009999123100000010000000000000BRARZZACNOR3130
012018073096ARZZ3F      020AREZZO CO   ON      NM   R$  000000000425000000000042600000000004090000000000412800000000041030000000004103000000000415800042000000000000000737000000000003042933000000000000009999123100000010000000000000BRARZZACNOR3130
012018073002ATOM3       010ATOMPAR     ON           R$  000000000023000000000002360000000000223000000000023100000000002230000000000223000000000023000043000000000000020700000000000004788000000000000000009999123100000010000000000000BRATOMACNOR1102
012018073096ATOM3F      020ATOMPAR     ON           R$  000000000023000000000002670000000000230000000000023000000000002300000000000222000000000024400007000000000000000171000000000000039417000000000000009999123100000010000000000000BRATOMACNOR1102
012018073002ATTB34      010ATT INC     DRN          R$  000000001196800000000120300000000011950000000001197400000000119500000000000000000000001195000003000000000000000800000000000009579600000000000000009999123100000010000000000000BRATTBBDR007124
012018073096ATTB34F     020ATT INC     DRN          R$  000000001196800000000119680000000011968000000001196800000000119680000000000000000000000000000002000000000000000076000000000000909568000000000000009999123100000010000000000000BRATTBBDR007124
012018073002AVON34      010AVON        DRN          R$  000000000030600000000003060000000000306000000000030600000000003060000000000290000000000035000002000000000000006000000000000001836000000000000000009999123100000010000000000000BRAVONBDR009121
012018073096AVON34F     020AVON        DRN          R$  000000000030600000000003060000000000306000000000030600000000003060000000000000000000000000000001000000000000000021000000000000006426000000000000009999123100000010000000000000BRAVONBDR009121
012018073096AXPB34F     020AMERICAN EXPDRN          R$  000000003784900000000378490000000037849000000003784900000000378490000000000000000000000000000001000000000000000026000000000000984074000000000000009999123100000010000000000000BRAXPBBDR007125
012018073002AZUL4       010AZUL        PN      N2   R$  000000000254800000000025500000000002427000000000245200000000024320000000002432000000000244004371000000000001040400000000002551453900000000000000009999123100000010000000000000BRAZULACNPR4100
012018073096AZUL4F      020AZUL        PN      N2   R$  000000000252600000000026390000000002421000000000247000000000024400000000002440000000000244300037000000000000000921000000000002275132000000000000009999123100000010000000000000BRAZULACNPR4100
012018073002B3SA3       010B3          ON      NM   R$  000000000238800000000023980000000002333000000000236400000000023750000000002368000000000237815495000000000005467500000000012930326500000000000000009999123100000010000000000000BRB3SAACNOR6102
012018073096B3SA3F      020B3          ON      NM   R$  000000000239000000000023900000000002331000000000236500000000023630000000002363000000000236900123000000000000003921000000000009273305000000000000009999123100000010000000000000BRB3SAACNOR6102
012018073062B3SA3T      030B3          ON      NM060R$  000000000241400000000024150000000002414000000000241400000000024150000000000000000000000000000002000000000000001500000000000003621402000000000000009999123100000010000000000000BRB3SAACNOR6102
012018073062B3SA3T      030B3          ON      NM091R$  000000000237900000000023800000000002379000000000237900000000023800000000000000000000000000000002000000000000000100000000000000237971000000000000009999123100000010000000000000BRB3SAACNOR6102
012018073078B3SAH231    070B3SA  FM    ON      NM000R$  000000000011600000000001410000000000114000000000012400000000001210000000000088000000000000000013000000000000018800000000000002339800000000000229102018082000000010000000000000BRB3SAACNOR6101
012018073078B3SAH236    070B3SAE       ON      NM000R$  000000000008200000000000820000000000077000000000007900000000000770000000000067000000000000000003000000000000002100000000000000166700000000000236602018082000000010000000000000BRB3SAACNOR6102
012018073078B3SAH24     070B3SA  FM    ON      NM000R$  000000000006700000000000810000000000060000000000006700000000000640000000000052000000000007600028000000000000043100000000000002891000000000000239102018082000000010000000000000BRB3SAACNOR6101
012018073078B3SAH251    070B3SA  FM    ON      NM000R$  000000000004800000000000480000000000026000000000003400000000000300000000000007000000000003000031000000000000038300000000000001309200000000000249102018082000000010000000000000BRB3SAACNOR6101
012018073078B3SAH26     070B3SA  FM    ON      NM000R$  000000000001400000000000140000000000010000000000001200000000000120000000000000000000000001300005000000000000000500000000000000006100000000000259102018082000000010000000000000BRB3SAACNOR6101
012018073078B3SAH271    070B3SA  FM    ON      NM000R$  000000000001500000000000150000000000003000000000001300000000000040000000000000000000000003000003000000000000001200000000000000015700000000000269102018082000000010000000000000BRB3SAACNOR6101
012018073078B3SAH28     070B3SA        ON      NM000R$  000000000000200000000000020000000000002000000000000200000000000020000000000002000000000000600001000000000000000100000000000000000200000000000279102018082000000010000000000000BRB3SAACNOR6101
012018073078B3SAH52     070B3SA        ON      NM000R$  000000000016000000000001600000000000160000000000016000000000001600000000000000000000000000000005000000000000005000000000000000800000000000000224102018082000000010000000000000BRB3SAACNOR6101
012018073078B3SAH53     070B3SA        ON      NM000R$  000000000007900000000000980000000000079000000000009100000000000920000000000079000000000000000514000000000000409300000000000037496700000000000234102018082000000010000000000000BRB3SAACNOR6101
012018073078B3SAI22     070B3SA  FM    ON      NM000R$  000000000024600000000002460000000000236000000000024000000000002380000000000000000000000000000003000000000000022500000000000005400000000000000219402018091700000010000000000000BRB3SAACNOR6101
012018073078B3SAI23     070B3SA  FM    ON      NM000R$  000000000017700000000001770000000000168000000000017300000000001720000000000000000000000000000006000000000000031200000000000005408400000000000229402018091700000010000000000000BRB3SAACNOR6101
012018073078B3SAI24     070B3SA  FM    ON      NM000R$  000000000011900000000001220000000000115000000000011800000000001190000000000000000000000000000008000000000000038500000000000004575500000000000239402018091700000010000000000000BRB3SAACNOR6101
012018073078B3SAI246    070B3SAE       ON      NM000R$  000000000008600000000000860000000000086000000000008600000000000860000000000000000000000000000001000000000000000600000000000000051600000000000246902018091700000010000000000000BRB3SAACNOR6102
012018073078B3SAI25     070B3SA  FM    ON      NM000R$  000000000008500000000000850000000000076000000000007800000000000790000000000070000000000000000011000000000000034000000000000002667500000000000249402018091700000010000000000000BRB3SAACNOR6101
012018073078B3SAI55     070B3SA  FM    ON      NM000R$  000000000005700000000000570000000000049000000000005200000000000490000000000000000000000005300003000000000000020000000000000001058000000000000259402018091700000010000000000000BRB3SAACNOR6102
012018073078B3SAI6      070B3SA        ON      NM000R$  000000000006900000000000690000000000069000000000006900000000000690000000000000000000000000000001000000000000015000000000000001035000000000000254402018091700000010000000000000BRB3SAACNOR6100
012018073082B3SAT211    080B3SAE       ON      NM000R$  000000000001000000000000100000000000010000000000001000000000000100000000000000000000000001900001000000000000000300000000000000003000000000000209102018082000000010000000000000BRB3SAACNOR6101
012018073082B3SAT22     080B3SAE  FM   ON      NM000R$  000000000002700000000000270000000000016000000000001600000000000170000000000009000000000003000007000000000000012500000000000000211500000000000219102018082000000010000000000000BRB3SAACNOR6101
012018073082B3SAT231    080B3SAE  FM   ON      NM000R$  000000000004600000000000460000000000033000000000004100000000000400000000000000000000000011000018000000000000071400000000000002979400000000000229102018082000000010000000000000BRB3SAACNOR6101
012018073082B3SAT24     080B3SAE  FM   ON      NM000R$  000000000010200000000001050000000000074000000000008900000000000830000000000000000000000000000007000000000000027900000000000002489100000000000239102018082000000010000000000000BRB3SAACNOR6101
012018073082B3SAT251    080B3SAE  FM   ON      NM000R$  000000000015200000000001660000000000152000000000016400000000001660000000000000000000000000000003000000000000009600000000000001575200000000000249102018082000000010000000000000BRB3SAACNOR6101
012018073082B3SAT53     080B3SAE       ON      NM000R$  000000000007800000000000780000000000059000000000007600000000000590000000000000000000000000000002000000000000016000000000000001229000000000000234102018082000000010000000000000BRB3SAACNOR6101
012018073082B3SAU20     080B3SAE       ON      NM000R$  000000000000300000000000170000000000003000000000000700000000000170000000000016000000000000000003000000000000000300000000000000002300000000000199402018091700000010000000000000BRB3SAACNOR6101
012018073082B3SAU21     080B3SAE       ON      NM000R$  000000000003200000000000320000000000031000000000003100000000000310000000000000000000000000000002000000000000002400000000000000075400000000000209402018091700000010000000000000BRB3SAACNOR6101
012018073082B3SAU22     080B3SAE  FM   ON      NM000R$  000000000005400000000000540000000000050000000000005100000000000500000000000000000000000000000004000000000000016700000000000000865000000000000219402018091700000010000000000000BRB3SAACNOR6101
012018073082B3SAU228    080B3SAE       ON      NM000R$  000000000007500000000000750000000000075000000000007500000000000750000000000000000000000000000001000000000000001100000000000000082500000000000226902018091700000010000000000000BRB3SAACNOR6101
012018073082B3SAU23     080B3SAE  FM   ON      NM000R$  000000000008500000000000850000000000082000000000008300000000000820000000000015000000000000000014000000000000028600000000000002383000000000000229402018091700000010000000000000BRB3SAACNOR6101
012018073082B3SAU24     080B3SAE  FM   ON      NM000R$  000000000012900000000001290000000000127000000000012700000000001270000000000000000000000000000003000000000000015500000000000001983500000000000239402018091700000010000000000000BRB3SAACNOR6101
012018073082B3SAU25     080B3SAE  FM   ON      NM000R$  000000000020600000000002060000000000186000000000019200000000001890000000000000000000000000000005000000000000037500000000000007230000000000000249402018091700000010000000000000BRB3SAACNOR6101
012018073082B3SAU253    080B3SAE       ON      NM000R$  000000000020500000000002050000000000205000000000020500000000002050000000000000000000000000000001000000000000000300000000000000061500000000000251902018091700000010000000000000BRB3SAACNOR6101
012018073002BAUH4       010EXCELSIOR   PN           R$  000000000129000000000012900000000001290000000000129000000000012900000000001118000000000129000001000000000000000400000000000000516000000000000000009999123100000010000000000000BRBAUHACNPR3113
012018073002BAZA3       010AMAZONIA    ON           R$  000000000217300000000021740000000002173000000000217300000000021740000000002175000000000218800002000000000000000300000000000000652000000000000000009999123100000010000000000000BRBAZAACNOR0172
012018073002BBAS3       010BRASIL      ON      NM   R$  000000000330000000000033250000000003277000000000329700000000032890000000003289000000000329708395000000000004796900000000015817355300000000000000009999123100000010000000000000BRBBASACNOR3277
012018073096BBAS3F      020BRASIL      ON      NM   R$  000000000330000000000033240000000003280000000000329900000000033050000000003291000000000330500204000000000000005616000000000018528455000000000000009999123100000010000000000000BRBBASACNOR3277
012018073062BBAS3T      030BRASIL      ON      NM016R$  000000000331000000000033110000000003310000000000331000000000033110000000000000000000000000000002000000000000003000000000000009932428000000000000009999123100000010000000000000BRBBASACNOR3277
012018073062BBAS3T      030BRASIL      ON      NM030R$  000000000332200000000033230000000003308000000000330900000000033090000000000000000000000000000006000000000000126000000000000416939798000000000000009999123100000010000000000000BRBBASACNOR3277
012018073062BBAS3T      030BRASIL      ON      NM091R$  000000000334500000000033530000000003345000000000334900000000033530000000000000000000000000000003000000000000000300000000000001004923000000000000009999123100000010000000000000BRBBASACNOR3277
012018073078BBASH18     070BBASE       ON      NM000R$  000000000014900000000001490000000000140000000000014500000000001490000000000115000000000029000004000000000000005300000000000000770700000000000327302018082000000010000000000000BRBBASACNOR3269
012018073078BBASH19     070BBAS  FM    ON      NM000R$  000000000014000000000001420000000000129000000000013100000000001300000000000040000000000028000010000000000000016800000000000002215400000000000329802018082000000010000000000000BRBBASACNOR3269
012018073078BBASH20     070BBASE       ON      NM000R$  000000000013500000000001350000000000115000000000011700000000001180000000000000000000000000000041000000000000034300000000000004040600000000000332302018082000000010000000000000BRBBASACNOR3269
012018073078BBASH287    070BBAS        ON      NM000R$  000000000047300000000004730000000000467000000000047100000000004670000000000000000000000000000005000000000000000600000000000000282700000000000284802018082000000010000000000000BRBBASACNOR3275
012018073078BBASH300    070BBAS        ON      NM000R$  000000000035000000000003500000000000330000000000034200000000003350000000000330000000000000000015000000000000014200000000000004857000000000000299802018082000000010000000000000BRBBASACNOR3276
012018073078BBASH303    070BBASE       ON      NM000R$  000000000032500000000003350000000000310000000000032500000000003250000000000000000000000033500015000000000000015500000000000005041500000000000302302018082000000010000000000000BRBBASACNOR3277
012018073078BBASH308    070BBASE       ON      NM000R$  000000000030000000000003000000000000300000000000030000000000003000000000000150000000000029000001000000000000000100000000000000030000000000000307302018082000000010000000000000BRBBASACNOR3276
012018073078BBASH315    070BBAS        ON      NM000R$  000000000025000000000002500000000000250000000000025000000000002500000000000006000000000035000001000000000000000100000000000000025000000000000309802018082000000010000000000000BRBBASACNOR3273
012018073078BBASH319    070BBASE       ON      NM000R$  000000000021600000000002160000000000201000000000020300000000002010000000000000000000000045000005000000000000008000000000000001631000000000000317302018082000000010000000000000BRBBASACNOR3275
012018073078BBASH320    070BBAS  FM    ON      NM000R$  000000000019700000000001970000000000184000000000019100000000001940000000000165000000000031500010000000000000022100000000000004226400000000000319802018082000000010000000000000BRBBASACNOR3276
012018073078BBASH337    070BBAS        ON      NM000R$  000000000011300000000001130000000000104000000000010600000000001050000000000000000000000012500005000000000000006100000000000000650100000000000334802018082000000010000000000000BRBBASACNOR3275
012018073078BBASH339    070BBASE       ON      NM000R$  000000000010400000000001050000000000093000000000010100000000000930000000000080000000000000000013000000000000071000000000000007183000000000000337302018082000000010000000000000BRBBASACNOR3275
012018073078BBASH342    070BBAS  FM    ON      NM000R$  000000000010000000000001000000000000083000000000008600000000000840000000000075000000000009500006000000000000016100000000000001389900000000000339802018082000000010000000000000BRBBASACNOR3275
012018073078BBASH349    070BBASE       ON      NM000R$  000000000006700000000000670000000000058000000000006000000000000580000000000055000000000009000004000000000000008100000000000000493800000000000347302018082000000010000000000000BRBBASACNOR3275
012018073078BBASH35     070BBAS  FM    ON      NM000R$  000000000006900000000000690000000000049000000000005100000000000570000000000048000000000005700028000000000000156000000000000008066800000000000349802018082000000010000000000000BRBBASACNOR3276
012018073078BBASH350    070BBAS        ON      NM000R$  000000000007400000000000740000000000074000000000007400000000000740000000000000000000000012000002000000000000000300000000000000022200000000000344802018082000000010000000000000BRBBASACNOR3273
012018073078BBASH354    070BBASE       ON      NM000R$  000000000004800000000000480000000000046000000000004700000000000460000000000036000000000005800002000000000000007000000000000000332000000000000352302018082000000010000000000000BRBBASACNOR3275
012018073078BBASH355    070BBAS        ON      NM000R$  000000000004000000000000400000000000037000000000003900000000000380000000000034000000000004000007000000000000109800000000000004374300000000000354802018082000000010000000000000BRBBASACNOR3276
012018073078BBASH357    070BBASE       ON      NM000R$  000000000003700000000000370000000000037000000000003700000000000370000000000001000000000000000001000000000000001200000000000000044400000000000357302018082000000010000000000000BRBBASACNOR3277
012018073078BBASH360    070BBAS  FM    ON      NM000R$  000000000003700000000000370000000000028000000000003200000000000280000000000020000000000003400012000000000000007600000000000000244400000000000359802018082000000010000000000000BRBBASACNOR3276
012018073078BBASH364    070BBAS        ON      NM000R$  000000000002600000000000260000000000026000000000002600000000000260000000000000000000000003200001000000000000001000000000000000026000000000000364802018082000000010000000000000BRBBASACNOR3277
012018073078BBASH375    070BBAS        ON      NM000R$  000000000002000000000000200000000000015000000000001600000000000160000000000009000000000001900012000000000000020400000000000000341200000000000369802018082000000010000000000000BRBBASACNOR3273
012018073078BBASH377    070BBAS        ON      NM000R$  000000000001500000000000150000000000015000000000001500000000000150000000000001000000000001800002000000000000005000000000000000075000000000000374802018082000000010000000000000BRBBASACNOR3275
012018073078BBASH83     070BBASE       ON      NM000R$  000000000017700000000001770000000000175000000000017600000000001770000000000024000000000000000005000000000000005100000000000000900500000000000322302018082000000010000000000000BRBBASACNOR3272
012018073078BBASI12     070BBAS  FM    ON      NM000R$  000000000029600000000002960000000000296000000000029600000000002960000000000000000000000000000001000000000000003000000000000000888000000000000316502018091700000010000000000000BRBBASACNOR3270
012018073078BBASI21     070BBAS  FM    ON      NM000R$  000000000024500000000002450000000000245000000000024500000000002450000000000000000000000000000001000000000000003000000000000000735000000000000326502018091700000010000000000000BRBBASACNOR3271
012018073078BBASI334    070BBASE       ON      NM000R$  000000000022000000000002200000000000205000000000020700000000002050000000000076000000000000000003000000000000005900000000000001225000000000000334002018091700000010000000000000BRBBASACNOR3276
012018073078BBASI339    070BBAS  FM    ON      NM000R$  000000000019600000000001960000000000196000000000019600000000001960000000000000000000000000000001000000000000001000000000000000196000000000000336502018091700000010000000000000BRBBASACNOR3275
012018073078BBASI341    070BBASE       ON      NM000R$  000000000020900000000002090000000000180000000000018900000000001800000000000000000000000020000003000000000000003000000000000000568900000000000339002018091700000010000000000000BRBBASACNOR3275
012018073078BBASI352    070BBAS        ON      NM000R$  000000000013500000000001370000000000130000000000013400000000001300000000000125000000000000000003000000000000024000000000000003234000000000000351502018091700000010000000000000BRBBASACNOR3276
012018073078BBASI361    070BBASE       ON      NM000R$  000000000011000000000001100000000000110000000000011000000000001100000000000000000000000000000001000000000000000100000000000000011000000000000359002018091700000010000000000000BRBBASACNOR3275
012018073078BBASI364    070BBAS        ON      NM000R$  000000000010800000000001080000000000100000000000010200000000001000000000000020000000000038500002000000000000000300000000000000030800000000000361502018091700000010000000000000BRBBASACNOR3275
012018073078BBASI369    070BBAS        ON      NM000R$  000000000008300000000000830000000000083000000000008300000000000830000000000030000000000000000001000000000000026400000000000002191200000000000366502018091700000010000000000000BRBBASACNOR3275
012018073078BBASI374    070BBAS        ON      NM000R$  000000000008000000000000800000000000080000000000008000000000000800000000000002000000000009500001000000000000004000000000000000320000000000000371502018091700000010000000000000BRBBASACNOR3275
012018073078BBASI381    070BBASE       ON      NM000R$  000000000005700000000000620000000000057000000000005900000000000620000000000000000000000006500003000000000000046000000000000002722000000000000379002018091700000010000000000000BRBBASACNOR3275
012018073078BBASI5      070BBAS  FM    ON      NM000R$  000000000012100000000001210000000000121000000000012100000000001210000000000000000000000000000001000000000000000500000000000000060500000000000356502018091700000010000000000000BRBBASACNOR3275
012018073078BBASI98     070BBAS        ON      NM000R$  000000000006300000000000630000000000063000000000006300000000000630000000000000000000000014200010000000000000084200000000000005304600000000000376502018091700000010000000000000BRBBASACNOR3270
012018073078BBASJ339    070BBASE       ON      NM000R$  000000000032900000000003290000000000329000000000032900000000003290000000000000000000000032900004000000000000000700000000000000230300000000000339602018101500000010000000000000BRBBASACNOR3277
012018073078BBASJ36     070BBAS        ON      NM000R$  000000000024700000000002470000000000227000000000023000000000002270000000000000000000000025000002000000000000005800000000000001334600000000000352102018101500000010000000000000BRBBASACNOR3271
012018073078BBASJ378    070BBASE       ON      NM000R$  000000000014200000000001420000000000141000000000014100000000001410000000000000000000000000000002000000000000100000000000000014124000000000000379602018101500000010000000000000BRBBASACNOR3277
012018073078BBASJ87     070BBASE       ON      NM000R$  000000000015500000000001550000000000155000000000015500000000001550000000000000000000000027500001000000000000001300000000000000201500000000000369602018101500000010000000000000BRBBASACNOR3271
012018073078BBASL387    070BBAS        ON      NM000R$  000000000019000000000001900000000000190000000000019000000000001900000000000000000000000000000001000000000000003200000000000000608000000000000381702018121700000010000000000000BRBBASACNOR3273
012018073082BBAST12     080BBASE       ON      NM000R$  000000000092900000000009300000000000925000000000092500000000009250000000000000000000000000000003000000000000002600000000000002405900000000000424802018082000000010000000000000BRBBASACNOR3274
012018073082BBAST148    080BBASE       ON      NM000R$  000000000005600000000000700000000000056000000000005900000000000600000000000058000000000014000004000000000000009200000000000000548000000000000314802018082000000010000000000000BRBBASACNOR3277
012018073082BBAST19     080BBASE  FM   ON      NM000R$  000000000011600000000001160000000000116000000000011600000000001160000000000000000000000014900001000000000000000500000000000000058000000000000329802018082000000010000000000000BRBBASACNOR3269
012018073082BBAST20     080BBASE       ON      NM000R$  000000000013100000000001340000000000131000000000013300000000001340000000000000000000000000000002000000000000002300000000000000307300000000000332302018082000000010000000000000BRBBASACNOR3269
012018073082BBAST253    080BBASE       ON      NM000R$  000000000000400000000000040000000000004000000000000400000000000040000000000001000000000000500002000000000000003000000000000000012000000000000252302018082000000010000000000000BRBBASACNOR3276
012018073082BBAST272    080BBASE       ON      NM000R$  000000000000600000000000060000000000006000000000000600000000000060000000000005000000000000900001000000000000001000000000000000006000000000000269802018082000000010000000000000BRBBASACNOR3275
012018073082BBAST274    080BBASE       ON      NM000R$  000000000000500000000000050000000000005000000000000500000000000050000000000003000000000001000001000000000000005000000000000000025000000000000272302018082000000010000000000000BRBBASACNOR3275
012018073082BBAST287    080BBASE       ON      NM000R$  000000000001500000000000150000000000015000000000001500000000000150000000000012000000000002200002000000000000010000000000000000150000000000000284802018082000000010000000000000BRBBASACNOR3275
012018073082BBAST293    080BBASE       ON      NM000R$  000000000001500000000000230000000000015000000000001900000000000230000000000015000000000002300009000000000000018000000000000000343000000000000292302018082000000010000000000000BRBBASACNOR3276
012018073082BBAST295    080BBASE       ON      NM000R$  000000000002300000000000230000000000023000000000002300000000000230000000000000000000000002700001000000000000000800000000000000018400000000000294802018082000000010000000000000BRBBASACNOR3276
012018073082BBAST314    080BBASE       ON      NM000R$  000000000005900000000000590000000000059000000000005900000000000590000000000000000000000000000001000000000000003000000000000000177000000000000312302018082000000010000000000000BRBBASACNOR3275
012018073082BBAST315    080BBASE  FM   ON      NM000R$  000000000004800000000000500000000000048000000000004900000000000500000000000010000000000009900005000000000000031800000000000001588000000000000309802018082000000010000000000000BRBBASACNOR3273
012018073082BBAST319    080BBASE       ON      NM000R$  000000000007300000000000780000000000066000000000007700000000000700000000000000000000000000000006000000000000017600000000000001356200000000000317302018082000000010000000000000BRBBASACNOR3275
012018073082BBAST320    080BBASE  FM   ON      NM000R$  000000000007500000000000750000000000074000000000007400000000000740000000000000000000000010900003000000000000021000000000000001561200000000000319802018082000000010000000000000BRBBASACNOR3276
012018073082BBAST342    080BBASE  FM   ON      NM000R$  000000000017500000000001770000000000175000000000017600000000001770000000000000000000000000000003000000000000001500000000000000264400000000000339802018082000000010000000000000BRBBASACNOR3275
012018073082BBAST379    080BBASE       ON      NM000R$  000000000048400000000004840000000000484000000000048400000000004840000000000000000000000000000002000000000000001500000000000000726000000000000377302018082000000010000000000000BRBBASACNOR3275
012018073082BBASU249    080BBASE       ON      NM000R$  000000000001400000000000140000000000014000000000001400000000000140000000000000000000000000000001000000000000003700000000000000051800000000000249002018091700000010000000000000BRBBASACNOR3277
012018073082BBASU279    080BBASE       ON      NM000R$  000000000004000000000000460000000000040000000000004300000000000460000000000000000000000004700004000000000000000400000000000000017400000000000279002018091700000010000000000000BRBBASACNOR3277
012018073082BBASU289    080BBASE       ON      NM000R$  000000000009000000000000900000000000090000000000009000000000000900000000000050000000000008500002000000000000001000000000000000090000000000000289002018091700000010000000000000BRBBASACNOR3277
012018073082BBASU291    080BBASE       ON      NM000R$  000000000007300000000000730000000000073000000000007300000000000730000000000000000000000000000001000000000000000300000000000000021900000000000291502018091700000010000000000000BRBBASACNOR3277
012018073082BBASU306    080BBASE       ON      NM000R$  000000000009800000000000980000000000098000000000009800000000000980000000000000000000000000000001000000000000000100000000000000009800000000000304002018091700000010000000000000BRBBASACNOR3275
012018073082BBASU311    080BBASE  FM   ON      NM000R$  000000000011800000000001180000000000118000000000011800000000001180000000000000000000000000000001000000000000026400000000000003115200000000000309002018091700000010000000000000BRBBASACNOR3275
012018073082BBASU329    080BBASE  FM   ON      NM000R$  000000000021000000000002100000000000210000000000021000000000002100000000000000000000000000000001000000000000000100000000000000021000000000000329002018091700000010000000000000BRBBASACNOR3276
012018073082BBASU426    080BBASE       ON      NM000R$  000000000091500000000009300000000000915000000000092900000000009300000000000000000000000000000003000000000000002500000000000002323500000000000424002018091700000010000000000000BRBBASACNOR3275
012018073082BBASU98     080BBASE       ON      NM000R$  000000000050200000000005020000000000502000000000050200000000005020000000000000000000000000000001000000000000001500000000000000753000000000000376502018091700000010000000000000BRBBASACNOR3270
012018073082BBASV274    080BBASE       ON      NM000R$  000000000008000000000000800000000000078000000000007900000000000780000000000000000000000000000002000000000000002300000000000000182000000000000274602018101500000010000000000000BRBBASACNOR3277
012018073082BBASV319    080BBASE       ON      NM000R$  000000000023500000000002350000000000235000000000023500000000002350000000000000000000000000000001000000000000001300000000000000305500000000000319602018101500000010000000000000BRBBASACNOR3277
012018073082BBASV344    080BBASE       ON      NM000R$  000000000037400000000003740000000000374000000000037400000000003740000000000000000000000000000001000000000000000200000000000000074800000000000344602018101500000010000000000000BRBBASACNOR3277
012018073082BBASX292    080BBASE       ON      NM000R$  000000000016000000000002150000000000160000000000016100000000002150000000000000000000000000000002000000000000003300000000000000533500000000000291702018121700000010000000000000BRBBASACNOR3276
012018073082BBASX326    080BBASE       ON      NM000R$  000000000035000000000003500000000000350000000000035000000000003500000000000000000000000000000002000000000000003200000000000001120000000000000326702018121700000010000000000000BRBBASACNOR3277
012018073002BBDC3       010BRADESCO    ON      N1   R$  000000000279900000000028460000000002784000000000281800000000028400000000002834000000000284006045000000000002597800000000007322769600000000000000009999123100000010000000000000BRBBDCACNOR1682
012018073096BBDC3F      020BRADESCO    ON      N1   R$  000000000280000000000028400000000002781000000000281500000000028250000000002825000000000284400071000000000000002414000000000006795942000000000000009999123100000010000000000000BRBBDCACNOR1682
012018073062BBDC3T      030BRADESCO    ON      N1060R$  000000000282200000000028230000000002822000000000282200000000028230000000000000000000000000000002000000000000001200000000000003386502000000000000009999123100000010000000000000BRBBDCACNOR1682
012018073002BBDC4       010BRADESCO    PN      N1   R$  000000000310000000000031310000000003074000000000310400000000031130000000003110000000000311322327000000000009195000000000028546753300000000000000009999123100000010000000000000BRBBDCACNPR8682
012018073096BBDC4F      020BRADESCO    PN      N1   R$  000000000309000000000031300000000003077000000000310600000000031050000000003105000000000311000231000000000000006148000000000019096075000000000000009999123100000010000000000000BRBBDCACNPR8682
012018073062BBDC4T      030BRADESCO    PN      N1016R$  000000000313100000000031320000000003131000000000313100000000031320000000000000000000000000000002000000000000000500000000000001565894000000000000009999123100000010000000000000BRBBDCACNPR8682
012018073062BBDC4T      030BRADESCO    PN      N1052R$  000000000315900000000031600000000003159000000000315900000000031600000000000000000000000000000002000000000000000500000000000001579796000000000000009999123100000010000000000000BRBBDCACNPR8682
012018073062BBDC4T      030BRADESCO    PN      N1060R$  000000000315500000000031560000000003155000000000315500000000031560000000000000000000000000000002000000000000002000000000000006310055000000000000009999123100000010000000000000BRBBDCACNPR8682
012018073062BBDC4T      030BRADESCO    PN      N1150R$  000000000320500000000032060000000003205000000000320500000000032060000000000000000000000000000002000000000000014000000000000044881683000000000000009999123100000010000000000000BRBBDCACNPR8682
012018073078BBDCH272    070BBDC        PN      N1000R$  000000000040200000000004020000000000402000000000040200000000004020000000000000000000000000000002000000000000001500000000000000603000000000000270602018082000000010000000000000BRBBDCACNPR8680
012018073078BBDCH28     070BBDC  FM    ON      N1000R$  000000000010000000000001000000000000098000000000009900000000000980000000000000000000000000000002000000000000008500000000000000844000000000000279002018082000000010000000000000BRBBDCACNOR1679
012018073078BBDCH303    070BBDC        PN      N1000R$  000000000015300000000001530000000000153000000000015300000000001530000000000025000000000018900002000000000000002500000000000000382500000000000301902018082000000010000000000000BRBBDCACNPR8679
012018073078BBDCH31     070BBDC  FM    ON      N1000R$  000000000000800000000000080000000000008000000000000800000000000080000000000000000000000000000001000000000000005000000000000000040000000000000309002018082000000010000000000000BRBBDCACNOR1679
012018073078BBDCH313    070BBDC        PN      N1000R$  000000000010600000000001120000000000080000000000009200000000001000000000000080000000000010200012000000000000011800000000000001088500000000000311002018082000000010000000000000BRBBDCACNPR8679
012018073078BBDCH322    070BBDC  FM    PN      N1000R$  000000000005000000000000600000000000048000000000005500000000000580000000000001000000000008000013000000000000017600000000000000974800000000000320102018082000000010000000000000BRBBDCACNPR8679
012018073078BBDCH327    070BBDC  FM    PN      N1000R$  000000000004800000000000480000000000035000000000004600000000000410000000000000000000000004000008000000000000047400000000000002186400000000000325102018082000000010000000000000BRBBDCACNPR8679
012018073078BBDCH329    070BBDCE       PN      N1000R$  000000000003600000000000360000000000035000000000003500000000000350000000000000000000000003600002000000000000005000000000000000177400000000000327602018082000000010000000000000BRBBDCACNPR8678
012018073078BBDCH332    070BBDC        PN      N1000R$  000000000002500000000000330000000000020000000000002500000000000330000000000020000000000002900020000000000000133200000000000003403900000000000330102018082000000010000000000000BRBBDCACNPR8679
012018073078BBDCH340    070BBDC  FM    PN      N1000R$  000000000001400000000000150000000000013000000000001300000000000140000000000014000000000001500005000000000000003200000000000000044700000000000338302018082000000010000000000000BRBBDCACNPR8679
012018073078BBDCH52     070BBDC        PN      N1000R$  000000000028300000000002830000000000283000000000028300000000002830000000000000000000000000000001000000000000001100000000000000311300000000000288102018082000000010000000000000BRBBDCACNPR8668
012018073078BBDCH6      070BBDCE       PN      N1000R$  000000000007500000000000750000000000075000000000007500000000000750000000000030000000000009200003000000000000006600000000000000495000000000000313502018082000000010000000000000BRBBDCACNPR8680
012018073078BBDCH61     070BBDC  FM    PN      N1000R$  000000000012500000000001250000000000116000000000012100000000001160000000000019000000000013700003000000000000001700000000000000206200000000000306202018082000000010000000000000BRBBDCACNPR8668
012018073078BBDCH84     070BBDCE       PN      N1000R$  000000000018900000000001890000000000189000000000018900000000001890000000000107000000000000000001000000000000001000000000000000189000000000000299402018082000000010000000000000BRBBDCACNPR8667
012018073078BBDCH97     070BBDCE       PN      N1000R$  000000000007400000000000740000000000062000000000007200000000000620000000000050000000000007300004000000000000018200000000000001319320000000000317602018082000000010000000000000BRBBDCACNPR8668
012018073078BBDCI307    070BBDC  FM    PN      N1000R$  000000000020300000000002030000000000203000000000020300000000002030000000000000000000000023300002000000000000000500000000000000101500000000000305502018091700000010000000000000BRBBDCACNPR8680
012018073078BBDCI309    070BBDCE       PN      N1000R$  000000000017800000000001780000000000175000000000017600000000001750000000000000000000000000000002000000000000004900000000000000862600000000000308002018091700000010000000000000BRBBDCACNPR8680
012018073078BBDCI31     070BBDC        PN      N1000R$  000000000042600000000004260000000000423000000000042500000000004230000000000000000000000000000003000000000000001500000000000000638070000000000271902018091700000010000000000000BRBBDCACNPR8668
012018073078BBDCI332    070BBDC  FM    PN      N1000R$  000000000007800000000000780000000000078000000000007800000000000780000000000000000000000020000001000000000000000500000000000000039000000000000332302018091700000010000000000000BRBBDCACNPR8682
012018073078BBDCI341    070BBDC  FM    PN      N1000R$  000000000005300000000000530000000000050000000000005200000000000500000000000000000000000000000002000000000000008600000000000000449800000000000341402018091700000010000000000000BRBBDCACNPR8682
012018073078BBDCI343    070BBDCE       PN      N1000R$  000000000004700000000000480000000000044000000000004600000000000440000000000000000000000000000005000000000001000000000000000046140000000000000343902018091700000010000000000000BRBBDCACNPR8682
012018073078BBDCI58     070BBDCE       PN      N1000R$  000000000005100000000000510000000000051000000000005100000000000510000000000000000000000000000001000000000000001300000000000000066300000000000338902018091700000010000000000000BRBBDCACNPR8668
012018073078BBDCJ40     070BBDCE       PN      N1000R$  000000000010500000000001050000000000105000000000010500000000001050000000000000000000000000000001000000000000000100000000000000010500000000000342602018101500000010000000000000BRBBDCACNPR8669
012018073082BBDCT249    080BBDCE       PN      N1000R$  000000000000800000000000080000000000008000000000000800000000000080000000000000000000000000800001000000000000001000000000000000008000000000000247402018082000000010000000000000BRBBDCACNPR8680
012018073082BBDCT254    080BBDCE       PN      N1000R$  000000000000800000000000080000000000008000000000000800000000000080000000000000000000000000800001000000000000001000000000000000008000000000000252402018082000000010000000000000BRBBDCACNPR8680
012018073082BBDCT303    080BBDCE       PN      N1000R$  000000000006100000000000610000000000061000000000006100000000000610000000000000000000000000000001000000000000000500000000000000030500000000000301902018082000000010000000000000BRBBDCACNPR8679
012018073082BBDCT52     080BBDCE  FM   PN      N1000R$  000000000002300000000000230000000000020000000000002100000000000220000000000000000000000006000009000000000000066960000000000001445080000000000288102018082000000010000000000000BRBBDCACNPR8668
012018073082BBDCT6      080BBDCE       PN      N1000R$  000000000009500000000000950000000000095000000000009500000000000950000000000000000000000000000002000000000000002000000000000000190000000000000313502018082000000010000000000000BRBBDCACNPR8680
012018073082BBDCT61     080BBDCE       PN      N1000R$  000000000006500000000000650000000000065000000000006500000000000650000000000000000000000008500001000000000000003800000000000000247000000000000306202018082000000010000000000000BRBBDCACNPR8668
012018073082BBDCT71     080BBDCE       PN      N1000R$  000000000001000000000000100000000000009000000000000900000000000090000000000001000000000001200004000000000000008000000000000000075000000000000276702018082000000010000000000000BRBBDCACNPR8667
012018073082BBDCT84     080BBDCE  FM   PN      N1000R$  000000000004400000000000520000000000041000000000004500000000000410000000000000000000000000000017000000000000025280000000000001143160000000000299402018082000000010000000000000BRBBDCACNPR8667
012018073082BBDCT92     080BBDCE       PN      N1000R$  000000000000200000000000020000000000001000000000000100000000000010000000000001000000000000200008000000000000018780000000000000031780000000000231202018082000000010000000000000BRBBDCACNPR8667
012018073082BBDCT96     080BBDCE  FM   PN      N1000R$  000000000007200000000000740000000000070000000000007200000000000700000000000070000000000000000011000000000000046100000000000003332800000000000308502018082000000010000000000000BRBBDCACNPR8667
012018073082BBDCT97     080BBDCE  FM   PN      N1000R$  000000000011400000000001140000000000114000000000011400000000001140000000000000000000000000000001000000000000000570000000000000064980000000000317602018082000000010000000000000BRBBDCACNPR8668
012018073082BBDCU20     080BBDCE  FM   PN      N1000R$  000000000008400000000000870000000000084000000000008500000000000870000000000000000000000000000004000000000000000400000000000000034200000000000298002018091700000010000000000000BRBBDCACNPR8668
012018073082BBDCU260    080BBDCE       PN      N1000R$  000000000002500000000000250000000000017000000000001800000000000170000000000017000000000002000043000000000000040300000000000000763900000000000258502018091700000010000000000000BRBBDCACNPR8680
012018073082BBDCU307    080BBDCE       PN      N1000R$  000000000012700000000001270000000000126000000000012600000000001260000000000000000000000000000002000000000001000000000000000126500000000000000305502018091700000010000000000000BRBBDCACNPR8680
012018073082BBDCU309    080BBDCE  FM   PN      N1000R$  000000000012300000000001230000000000123000000000012300000000001230000000000000000000000000000001000000000000000500000000000000061500000000000308002018091700000010000000000000BRBBDCACNPR8680
012018073082BBDCU33     080BBDCE       PN      N1000R$  000000000007600000000000760000000000075000000000007500000000000750000000000000000000000000000002000000000001000000000000000075500000000000000291102018091700000010000000000000BRBBDCACNPR8670
012018073082BBDCU41     080BBDCE       PN      N1000R$  000000000003900000000000390000000000039000000000003900000000000390000000000000000000000004000001000000000000000100000000000000003900000000000278702018091700000010000000000000BRBBDCACNPR8668
012018073082BBDCU70     080BBDCE       PN      N1000R$  000000000002500000000000250000000000025000000000002500000000000250000000000025000000000000000001000000000000001020000000000000025500000000000267302018091700000010000000000000BRBBDCACNPR8668
012018073012BBFI11B     010FII BB PROGRCI      MB   R$  000000021249500000002124950000000203500000000020555400000002057990000000204850000000020580000056000000000000000138000000000028366471000000000000009999123100000010000000000000BRBBFICTF006256
012018073012BBPO11      010FII BB PRGIICI           R$  000000001320000000000132940000000013051000000001310200000000130990000000013099000000001310004752000000000000064192000000000841044239000000000000009999123100000010000000000000BRBBPOCTF003168
012018073012BBRC11      010FII BB CORP CI           R$  000000001393800000000139380000000013798000000001385400000000138970000000013850000000001389700051000000000000001077000000000014921241000000000000009999123100000010000000000000BRBBRCCTF004182
012018073002BBRK3       010BR BROKERS  ON      NM   R$  000000000003500000000000350000000000033000000000003400000000000340000000000033000000000003400517000000000002092100000000000071428000000000000000009999123100000010000000000000BRBBRKACNOR4112
012018073096BBRK3F      020BR BROKERS  ON      NM   R$  000000000003700000000000370000000000034000000000003400000000000360000000000032000000000003600007000000000000000126000000000000004398000000000000009999123100000010000000000000BRBBRKACNOR4112
012018073014BBSD11      010BB ETF SP DVCI           R$  000000000579600000000058090000000005781000000000579400000000058010000000000000000000000693400012000000000000000350000000000002028210000000000000009999123100000010000000000000BRBBSDCTF000100
012018073002BBSE3       010BBSEGURIDADEON      NM   R$  000000000248500000000024900000000002465000000000247300000000024690000000002469000000000247505744000000000001216700000000003009198100000000000000009999123100000010000000000000BRBBSEACNOR5110
012018073096BBSE3F      020BBSEGURIDADEON      NM   R$  000000000247600000000024890000000002465000000000247400000000024700000000002470000000000248500180000000000000003859000000000009547749000000000000009999123100000010000000000000BRBBSEACNOR5110
012018073078BBSEH24     070BBSE        ON      NM000R$  000000000011600000000001160000000000115000000000011500000000001150000000000080000000000000000018000000000000100000000000000011510000000000000242602018082000000010000000000000BRBBSEACNOR5110
012018073078BBSEH26     070BBSE        ON      NM000R$  000000000001500000000000150000000000015000000000001500000000000150000000000014000000000002500001000000000000002000000000000000030000000000000262602018082000000010000000000000BRBBSEACNOR5110
012018073078BBSEH27     070BBSE        ON      NM000R$  000000000000400000000000040000000000004000000000000400000000000040000000000002000000000000000001000000000000000500000000000000002000000000000272602018082000000010000000000000BRBBSEACNOR5110
012018073078BBSEH53     070BBSE  FM    ON      NM000R$  000000000013300000000001330000000000133000000000013300000000001330000000000000000000000000000001000000000000000100000000000000013300000000000237602018082000000010000000000000BRBBSEACNOR5110
012018073078BBSEH54     070BBSE  FM    ON      NM000R$  000000000007500000000000760000000000074000000000007500000000000740000000000051000000000020500016000000000000015500000000000001169000000000000247602018082000000010000000000000BRBBSEACNOR5110
012018073078BBSEH55     070BBSE  FM    ON      NM000R$  000000000003300000000000350000000000033000000000003300000000000350000000000021000000000003500003000000000000001700000000000000057100000000000257602018082000000010000000000000BRBBSEACNOR5110
012018073078BBSEH56     070BBSE  FM    ON      NM000R$  000000000001600000000000170000000000013000000000001600000000000130000000000013000000000001500004000000000000002000000000000000032100000000000267602018082000000010000000000000BRBBSEACNOR5110
012018073078BBSEH57     070BBSE  FM    ON      NM000R$  000000000000700000000000070000000000007000000000000700000000000070000000000004000000000000600001000000000000000200000000000000001400000000000277602018082000000010000000000000BRBBSEACNOR5110
012018073078BBSEH58     070BBSE        ON      NM000R$  000000000000200000000000020000000000002000000000000200000000000020000000000000000000000000200001000000000000000400000000000000000800000000000287602018082000000010000000000000BRBBSEACNOR5110
012018073078BBSEI245    070BBSE  FM    ON      NM000R$  000000000011900000000001190000000000119000000000011900000000001190000000000107000000000000000002000000000000001200000000000000142800000000000245502018091700000010000000000000BRBBSEACNOR5110
012018073078BBSEI55     070BBSE  FM    ON      NM000R$  000000000007000000000000730000000000070000000000007000000000000730000000000000000000000000000016000000000000014600000000000001022300000000000255502018091700000010000000000000BRBBSEACNOR5110
012018073082BBSET24     080BBSEE       ON      NM000R$  000000000005000000000000500000000000050000000000005000000000000500000000000000000000000005000001000000000000000200000000000000010000000000000242602018082000000010000000000000BRBBSEACNOR5110
012018073082BBSET54     080BBSEE  FM   ON      NM000R$  000000000007100000000000710000000000071000000000007100000000000710000000000000000000000007100001000000000000000500000000000000035500000000000247602018082000000010000000000000BRBBSEACNOR5110
012018073082BBSEU245    080BBSEE  FM   ON      NM000R$  000000000008300000000000830000000000083000000000008300000000000830000000000000000000000000000001000000000000000500000000000000041500000000000245502018091700000010000000000000BRBBSEACNOR5110
012018073082BBSEU54     080BBSEE  FM   ON      NM000R$  000000000005500000000000550000000000055000000000005500000000000550000000000000000000000000000001000000000000000300000000000000016500000000000235502018091700000010000000000000BRBBSEACNOR5109
012018073012BBVJ11      010FII C JARDIMCI           R$  000000000466900000000049890000000004500000000000459100000000045000000000004500000000000470000034000000000000001243000000000005707158000000000000009999123100000010000000000000BRBBVJCTF001186
012018073096BBYY34F     020BEST BUY    DRN          R$  000000002775600000000277560000000027756000000002775600000000277560000000000000000000000000000001000000000000000078000000000002164968000000000000009999123100000010000000000000BRBBYYBDR005108
012018073012BCFF11      010FII BC FFII CI           R$  000000000772000000000077240000000007616000000000766200000000076170000000007617000000000762000284000000000000005336000000000040889243000000000000009999123100000010000000000000BRBCFFCTF000202
012018073012BCIA11      010FII BCIA    CI           R$  000000001060000000000107500000000010500000000001055800000000107000000000010400000000001074900005000000000000000025000000000000263950000000000000009999123100000010000000000000BRBCIACTF005138
012018073012BCRI11      010FII BEES CRICI           R$  000000001049900000000105000000000010423000000001048900000000105000000000010481000000001050000064000000000000000926000000000009713393000000000000009999123100000010000000000000BRBCRICTF009138
012018073002BEEF3       010MINERVA     ON      NM   R$  000000000074500000000007500000000000725000000000073500000000007250000000000723000000000072603156000000000001045600000000000769072200000000000000009999123100000010000000000000BRBEEFACNOR6107
012018073096BEEF3F      020MINERVA     ON      NM   R$  000000000075400000000007550000000000728000000000073600000000007350000000000727000000000073500059000000000000001517000000000001117869000000000000009999123100000010000000000000BRBEEFACNOR6107
012018073062BEEF3T      030MINERVA     ON      NM016R$  000000000074800000000007490000000000734000000000073700000000007350000000000000000000000000000006000000000000012900000000000009509686000000000000009999123100000010000000000000BRBEEFACNOR6107
012018073002BEES3       010BANESTES    ON  EJ       R$  000000000036800000000003700000000000357000000000036700000000003670000000000365000000000036800020000000000000006700000000000002464400000000000000009999123100000010000000000000BRBEESACNOR9312
012018073096BEES3F      020BANESTES    ON  EJ       R$  000000000037000000000003700000000000363000000000036900000000003630000000000363000000000036900004000000000000000015000000000000005539000000000000009999123100000010000000000000BRBEESACNOR9312
012018073002BEES4       010BANESTES    PN  EJ       R$  000000000035500000000003770000000000355000000000036200000000003770000000000360000000000037700002000000000000000300000000000000108700000000000000009999123100000010000000000000BRBEESACNPR6237
012018073096BEES4F      020BANESTES    PN  EJ       R$  000000000036500000000003650000000000365000000000036500000000003650000000000356000000000036500002000000000000000050000000000000018250000000000000009999123100000010000000000000BRBEESACNPR6237
012018073002BERK34      010BERKSHIRE   DRN          R$  000000007485500000000748550000000074322000000007458800000000743220000000073465000000007432200002000000000000000200000000000014917700000000000000009999123100000010000000000000BRBERKBDR002100
012018073096BERK34F     020BERKSHIRE   DRN          R$  000000007400000000000744830000000074000000000007416500000000744830000000025685000000000000000003000000000000000076000000000005636558000000000000009999123100000010000000000000BRBERKBDR002100
012018073002BGIP4       010BANESE      PN           R$  000000000384900000000039030000000003849000000000387000000000039030000000003815000000000389000005000000000000001100000000000004257300000000000000009999123100000010000000000000BRBGIPACNPR8195
012018073010BIDI2       010BANCO INTER DIR PRE N1   R$  000000000062000000000006200000000000500000000000053300000000006100000000000450000000000062000032000000000000008300000000000004426600000000000000009999123100000010000000000000BRBIDID01PR5100
012018073096BIDI2F      020BANCO INTER DIR PRE N1   R$  000000000050000000000006000000000000500000000000055500000000005000000000000500000000000061700040000000000000000634000000000000351914000000000000009999123100000010000000000000BRBIDID01PR5100
012018073002BIDI4       010BANCO INTER PN      N1   R$  000000000172400000000017550000000001701000000000172600000000017130000000001713000000000173000239000000000000041100000000000070963400000000000000009999123100000010000000000000BRBIDIACNPR0101
012018073096BIDI4F      020BANCO INTER PN      N1   R$  000000000174000000000017540000000001701000000000172600000000017300000000001716000000000174600049000000000000001015000000000001752529000000000000009999123100000010000000000000BRBIDIACNPR0101
012018073002BIIB34      010BIOGEN      DRN          R$  000000002086400000000208640000000020864000000002086400000000208640000000000000000000000000000001000000000000000600000000000012518400000000000000009999123100000010000000000000BRBIIBBDR001101
012018073096BIIB34F     020BIOGEN      DRN          R$  000000002086400000000208640000000020864000000002086400000000208640000000000000000000000000000001000000000000000081000000000001689984000000000000009999123100000010000000000000BRBIIBBDR001101
012018073002BIOM3       010BIOMM       ON      MA   R$  000000000082800000000009000000000000822000000000085200000000008250000000000825000000000083900095000000000000030400000000000025926100000000000000009999123100000010000000000000BRBIOMACNOR2106
012018073096BIOM3F      020BIOMM       ON      MA   R$  000000000088800000000009050000000000888000000000089600000000009050000000000820000000000093900002000000000000000025000000000000022404000000000000009999123100000010000000000000BRBIOMACNOR2106
012018073002BKBR3       010BK BRASIL   ON      NM   R$  000000000151300000000015130000000001461000000000147300000000014610000000001461000000000146500326000000000000059500000000000087674200000000000000009999123100000010000000000000BRBKBRACNOR4100
012018073096BKBR3F      020BK BRASIL   ON      NM   R$  000000000150000000000015000000000001479000000000148000000000014790000000001465000000000147900003000000000000000019000000000000028122000000000000009999123100000010000000000000BRBKBRACNOR4100
012018073002BMEB3       010MERC BRASIL ON           R$  000000000065000000000006500000000000650000000000065000000000006500000000000580000000000065000001000000000000000100000000000000065000000000000000009999123100000010000000000000BRBMEBACNOR8194
012018073002BMEB4       010MERC BRASIL PN           R$  000000000057700000000005770000000000558000000000056400000000005740000000000555000000000057500012000000000000003600000000000002031100000000000000009999123100000010000000000000BRBMEBACNPR5199
012018073096BMEB4F      020MERC BRASIL PN           R$  000000000054500000000005450000000000540000000000054300000000005400000000000575000000000000000002000000000000000067000000000000036430000000000000009999123100000010000000000000BRBMEBACNPR5199
012018073096BMIN3F      020MERC INVEST ON           R$  000000000200000000000020000000000002000000000000200000000000020000000000001950000000000219900001000000000000000011000000000000022000000000000000009999123100000010000000000000BRBMINACNOR4167
012018073012BMLC11B     010FII BMBRC LCCI      MB   R$  000000000798000000000079800000000007801000000000782100000000079700000000007811000000000797000004000000000000000076000000000000594408000000000000009999123100000010000000000000BRBMLCCTF004177
012018073002BMYB34      010BRISTOLMYERSDRN          R$  000000002209400000000220940000000022094000000002209400000000220940000000000000000000000000000001000000000000000100000000000002209400000000000000009999123100000010000000000000BRBMYBBDR000119
012018073096BMYB34F     020BRISTOLMYERSDRN          R$  000000002197400000000219740000000021974000000002197400000000219740000000000000000000000000000002000000000000000077000000000001691998000000000000009999123100000010000000000000BRBMYBBDR000119
012018073002BNBR3       010NORD BRASIL ON           R$  000000000365000000000036500000000003650000000000365000000000036500000000003500000000000364900004000000000000000800000000000002920000000000000000009999123100000010000000000000BRBNBRACNOR8196
012018073012BNFS11      010FII BANRISULCI           R$  000000001125000000000112500000000011250000000001125000000000112500000000011250000000001130000004000000000000000050000000000000562500000000000000009999123100000010000000000000BRBNFSCTF000170
012018073002BOAC34      010BANK AMERICADRN          R$  000000001173200000000117480000000011631000000001168400000000117060000000000000000000001170600004000000000000001800000000000021032200000000000000009999123100000010000000000000BRBOACBDR004131
012018073096BOAC34F     020BANK AMERICADRN          R$  000000001173200000000117320000000011732000000001173200000000117320000000000000000000000000000001000000000000000038000000000000445816000000000000009999123100000010000000000000BRBOACBDR004131
012018073002BOBR4       010BOMBRIL     PN           R$  000000000033300000000003330000000000322000000000032900000000003310000000000330000000000033100026000000000000010100000000000003326300000000000000009999123100000010000000000000BRBOBRACNPR3128
012018073096BOBR4F      020BOMBRIL     PN           R$  000000000030200000000003260000000000302000000000032200000000003250000000000322000000000034700006000000000000000069000000000000022234000000000000009999123100000010000000000000BRBOBRACNPR3128
012018073002BOEI34      010BOEING      DRN          R$  000000013266100000001326610000000132661000000013266100000001326610000000000000000000000000000001000000000000000100000000000013266100000000000000009999123100000010000000000000BRBOEIBDR003125
012018073096BOEI34F     020BOEING      DRN          R$  000000013142100000001314210000000131421000000013142100000001314210000000000000000000013900000001000000000000000019000000000002496999000000000000009999123100000010000000000000BRBOEIBDR003125
012018073002BONY34      010BNY MELLON  DRN ED       R$  000000002010500000000201050000000020105000000002010500000000201050000000000000000000000000000001000000000000000100000000000002010500000000000000009999123100000010000000000000BRBONYBDR001112
012018073096BONY34F     020BNY MELLON  DRN ED       R$  000000001996400000000199640000000019964000000001996400000000199640000000000000000000000000000002000000000000000052000000000001038128000000000000009999123100000010000000000000BRBONYBDR001112
012018073014BOVA11      010ISHARES BOVACI           R$  000000000771900000000077670000000007690000000000772700000000077420000000007742000000000775213570000000000001505230000000011631655790000000000000009999123100000010000000000000BRBOVACTF003103
012018073096BOVA11F     020ISHARES BOVACI           R$  000000000773500000000077620000000007450000000000771400000000077470000000007748000000000780400016000000000000000049000000000000378015000000000000009999123100000010000000000000BRBOVACTF003103
012018073078BOVAH75     070BOVA        CI        000R$  000000000033700000000003370000000000300000000000030500000000003000000000000291000000000000000003000000000000000210000000000000064170000000000750002018082000000010000000000000BRBOVACTF003103
012018073078BOVAH76     070BOVA  FM    CI        000R$  000000000026300000000002630000000000227000000000024800000000002600000000000090000000000039900006000000000000004700000000000001169900000000000760002018082000000010000000000000BRBOVACTF003103
012018073078BOVAH77     070BOVA  FM    CI        000R$  000000000019900000000001990000000000179000000000019500000000001880000000000180000000000019900006000000000000025800000000000005043900000000000770002018082000000010000000000000BRBOVACTF003103
012018073078BOVAH78     070BOVA  FM    CI        000R$  000000000014500000000001450000000000130000000000013600000000001360000000000000000000000014100004000000000000017600000000000002407500000000000780002018082000000010000000000000BRBOVACTF003103
012018073078BOVAH79     070BOVA  FM    CI        000R$  000000000008000000000000960000000000080000000000008500000000000960000000000000000000000009600002000000000000000600000000000000051200000000000790002018082000000010000000000000BRBOVACTF003103
012018073078BOVAH80     070BOVA  FM    CI        000R$  000000000005600000000000630000000000056000000000006200000000000630000000000001000000000009500003000000000000016150000000000001012400000000000800002018082000000010000000000000BRBOVACTF003103
012018073078BOVAI77     070BOVA  FM    CI        000R$  000000000031500000000003150000000000315000000000031500000000003150000000000000000000000000000001000000000000001000000000000000315000000000000770002018091700000010000000000000BRBOVACTF003103
012018073078BOVAI79     070BOVA  FM    CI        000R$  000000000021100000000002110000000000211000000000021100000000002110000000000000000000000021600001000000000000000200000000000000042200000000000790002018091700000010000000000000BRBOVACTF003103
012018073078BOVAJ79     070BOVA        CI        000R$  000000000024100000000002410000000000241000000000024100000000002410000000000000000000000000000001000000000000000600000000000000144600000000000790002018101500000010000000000000BRBOVACTF003103
012018073078BOVAL90     070BOVA        CI        000R$  000000000014800000000001500000000000135000000000014000000000001350000000000135000000000014700018000000000000012990000000000001819460000000000900002018121700000010000000000000BRBOVACTF003103
012018073082BOVAT68     080BOVAE       CI        000R$  000000000000500000000000050000000000005000000000000500000000000050000000000005000000000000800002000000000000003500000000000000017500000000000680002018082000000010000000000000BRBOVACTF003103
012018073082BOVAT69     080BOVAE       CI        000R$  000000000001000000000000100000000000010000000000001000000000000100000000000000000000000000000002000000000000005100000000000000051000000000000690002018082000000010000000000000BRBOVACTF003103
012018073082BOVAT70     080BOVAE       CI        000R$  000000000001000000000000100000000000010000000000001000000000000100000000000000000000000012000003000000000000001500000000000000015000000000000700002018082000000010000000000000BRBOVACTF003103
012018073082BOVAT74     080BOVAE       CI        000R$  000000000005000000000000500000000000037000000000004700000000000370000000000037000000000014000006000000000000012110000000000000573970000000000740002018082000000010000000000000BRBOVACTF003103
012018073082BOVAT75     080BOVAE  FM   CI        000R$  000000000006000000000000600000000000060000000000006000000000000600000000000000000000000000000001000000000000000100000000000000006000000000000750002018082000000010000000000000BRBOVACTF003103
012018073082BOVAT76     080BOVAE  FM   CI        000R$  000000000010000000000001000000000000100000000000010000000000001000000000000000000000000000000001000000000000000200000000000000020000000000000760002018082000000010000000000000BRBOVACTF003103
012018073082BOVAT77     080BOVAE  FM   CI        000R$  000000000013500000000001440000000000135000000000013700000000001440000000000000000000000014300006000000000000002300000000000000317100000000000770002018082000000010000000000000BRBOVACTF003103
012018073082BOVAT78     080BOVAE  FM   CI        000R$  000000000015800000000001580000000000158000000000015800000000001580000000000000000000000000000001000000000000002000000000000000316000000000000780002018082000000010000000000000BRBOVACTF003103
012018073082BOVAU73     080BOVAE       CI        000R$  000000000011100000000001110000000000099000000000010600000000000990000000000090000000000000000002000000000000001200000000000000127200000000000730002018091700000010000000000000BRBOVACTF003103
012018073014BOVV11      010IT NOW IBOV CI           R$  000000000804900000000080740000000008003000000000804400000000080460000000008046000000000833400029000000000000022680000000000182439000000000000000009999123100000010000000000000BRBOVVCTF009100
012018073002BPAC11      010BTGP BANCO  UNT          R$  000000000206300000000020630000000002031000000000203700000000020310000000002031000000000204400653000000000000139900000000000285014600000000000000009999123100000010000000000000BRBPACUNT006102
012018073096BPAC11F     020BTGP BANCO  UNT          R$  000000000203800000000020420000000002032000000000203700000000020420000000002036000000000209000004000000000000000188000000000000382989000000000000009999123100000010000000000000BRBPACUNT006102
012018073062BPAC11T     030BTGP BANCO  UNT       182R$  000000000211000000000021120000000002110000000000211000000000021120000000000000000000000000000004000000000000002000000000000004221357000000000000009999123100000010000000000000BRBPACUNT006102
012018073002BPAC5       010BTGP BANCO  PNA          R$  000000000070000000000007000000000000700000000000070000000000007000000000000655000000000070000002000000000000000400000000000000280000000000000000009999123100000010000000000000BRBPACACNPA0117
012018073002BPAN4       010BANCO PAN   PN      N1   R$  000000000017700000000001770000000000173000000000017400000000001740000000000173000000000017400052000000000000049400000000000008607500000000000000009999123100000010000000000000BRBPANACNPR1106
012018073096BPAN4F      020BANCO PAN   PN      N1   R$  000000000016800000000001760000000000168000000000017400000000001760000000000171000000000017400004000000000000000113000000000000019704000000000000009999123100000010000000000000BRBPANACNPR1106
012018073062BPAN4T      030BANCO PAN   PN      N1023R$  000000000017500000000001760000000000175000000000017500000000001760000000000000000000000000000002000000000000032000000000000005600851000000000000009999123100000010000000000000BRBPANACNPR1106
012018073012BPFF11      010FII ABSOLUTOCI           R$  000000000897100000000091610000000008970000000000910500000000090160000000009012000000000914900241000000000000003018000000000027481204000000000000009999123100000010000000000000BRBPFFCTF002164
012018073008BPHA3       010BR PHARMA   ON      NM   R$  000000000018700000000001870000000000173000000000017700000000001740000000000174000000000017700132000000000000107600000000000019125300000000000000009999123100000010000000000000BRBPHAACNOR6105
012018073096BPHA3F      020BR PHARMA   ON      NM   R$  000000000017700000000001810000000000177000000000017900000000001810000000000171000000000018000005000000000000000061000000000000010921000000000000009999123100000010000000000000BRBPHAACNOR6105
012018073002BRAP3       010BRADESPAR   ON      N1   R$  000000000278500000000028280000000002783000000000280500000000028090000000002808000000000285600016000000000000003700000000000010381300000000000000009999123100000010000000000000BRBRAPACNOR5133
012018073096BRAP3F      020BRADESPAR   ON      N1   R$  000000000280000000000028000000000002545000000000277800000000027820000000002782000000000280900006000000000000000072000000000000200024000000000000009999123100000010000000000000BRBRAPACNOR5133
012018073002BRAP4       010BRADESPAR   PN      N1   R$  000000000321800000000032250000000003172000000000319600000000032020000000003202000000000320903464000000000000722000000000002308185100000000000000009999123100000010000000000000BRBRAPACNPR2133
012018073096BRAP4F      020BRADESPAR   PN      N1   R$  000000000320100000000032240000000003082000000000318300000000031870000000003187000000000321300028000000000000000879000000000002798409000000000000009999123100000010000000000000BRBRAPACNPR2133
012018073062BRAP4T      030BRADESPAR   PN      N1030R$  000000000321200000000032130000000003212000000000321200000000032130000000000000000000000000000002000000000000000200000000000000642441000000000000009999123100000010000000000000BRBRAPACNPR2133
012018073062BRAP4T      030BRADESPAR   PN      N1182R$  000000000330200000000033030000000003302000000000330200000000033030000000000000000000000000000002000000000000000500000000000001651343000000000000009999123100000010000000000000BRBRAPACNPR2133
012018073082BRAPT312    080BRAPE  FM   PN      N1000R$  000000000002800000000000280000000000028000000000002800000000000280000000000000000000000002800006000000000000018500000000000000518000000000000299602018082000000010000000000000BRBRAPACNPR2132
012018073014BRAX11      010ISHARES BRAXCI           R$  000000000647600000000065060000000006456000000000649100000000065060000000006000000000000656500007000000000000000980000000000006361230000000000000009999123100000010000000000000BRBRAXCTF002100
012018073012BRCR11      010FII BC FUND CI           R$  000000000893900000000089560000000008870000000000889500000000088800000000008880000000000889900382000000000000012462000000000110858890000000000000009999123100000010000000000000BRBRCRCTF000191
012018073002BRDT3       010PETROBRAS BRON  ED  NM   R$  000000000212900000000021340000000002053000000000209100000000020700000000002067000000000207003858000000000004211200000000008808348300000000000000009999123100000010000000000000BRBRDTACNOR1116
012018073096BRDT3F      020PETROBRAS BRON  ED  NM   R$  000000000213000000000021300000000002057000000000209200000000020700000000002050000000000207000050000000000000001744000000000003649535000000000000009999123100000010000000000000BRBRDTACNOR1116
012018073062BRDT3T      030PETROBRAS BRON  ED  NM016R$  000000000208900000000020900000000002089000000000208900000000020900000000000000000000000000000002000000000000001000000000000002089495000000000000009999123100000010000000000000BRBRDTACNOR1116
012018073002BRFS3       010BRF SA      ON      NM   R$  000000000230800000000023100000000002252000000000228600000000022880000000002288000000000229707001000000000002738200000000006259874000000000000000009999123100000010000000000000BRBRFSACNOR8118
012018073096BRFS3F      020BRF SA      ON      NM   R$  000000000230400000000023080000000002252000000000228400000000022830000000002270000000000228300123000000000000002973000000000006793144000000000000009999123100000010000000000000BRBRFSACNOR8118
012018073062BRFS3T      030BRF SA      ON      NM016R$  000000000231300000000023140000000002313000000000231300000000023140000000000000000000000000000002000000000000000700000000000001619412000000000000009999123100000010000000000000BRBRFSACNOR8118
012018073062BRFS3T      030BRF SA      ON      NM030R$  000000000231700000000023220000000002301000000000230800000000023020000000000000000000000000000010000000000000309000000000000713252133000000000000009999123100000010000000000000BRBRFSACNOR8118
012018073062BRFS3T      030BRF SA      ON      NM052R$  000000000231800000000023190000000002318000000000231800000000023190000000000000000000000000000002000000000000001000000000000002318180000000000000009999123100000010000000000000BRBRFSACNOR8118
012018073062BRFS3T      030BRF SA      ON      NM060R$  000000000233000000000023310000000002330000000000233000000000023310000000000000000000000000000002000000000000002000000000000004660710000000000000009999123100000010000000000000BRBRFSACNOR8118
012018073062BRFS3T      030BRF SA      ON      NM091R$  000000000231100000000023270000000002311000000000232200000000023180000000000000000000000000000008000000000000002500000000000005805302000000000000009999123100000010000000000000BRBRFSACNOR8118
012018073078BRFSH20     070BRFS        ON      NM000R$  000000000029100000000002910000000000291000000000029100000000002910000000000271000000000034900001000000000000000100000000000000029100000000000200002018082000000010000000000000BRBRFSACNOR8118
012018073078BRFSH22     070BRFS  FM    ON      NM000R$  000000000015300000000001530000000000153000000000015300000000001530000000000070000000000024600001000000000000000100000000000000015300000000000220002018082000000010000000000000BRBRFSACNOR8118
012018073078BRFSH23     070BRFS  FM    ON      NM000R$  000000000010000000000001040000000000077000000000009000000000001010000000000039000000000014500022000000000000031300000000000002847800000000000230002018082000000010000000000000BRBRFSACNOR8118
012018073078BRFSH235    070BRFS        ON      NM000R$  000000000008000000000000800000000000080000000000008000000000000800000000000000000000000018500001000000000000000300000000000000024000000000000235002018082000000010000000000000BRBRFSACNOR8118
012018073078BRFSH24     070BRFS  FM    ON      NM000R$  000000000004500000000000500000000000041000000000004400000000000500000000000043000000000006600005000000000000003300000000000000146000000000000240002018082000000010000000000000BRBRFSACNOR8118
012018073078BRFSH245    070BRFS        ON      NM000R$  000000000003000000000000300000000000030000000000003000000000000300000000000000000000000000000001000000000000000100000000000000003000000000000245002018082000000010000000000000BRBRFSACNOR8118
012018073078BRFSH247    070BRFSE       ON      NM000R$  000000000003000000000000300000000000030000000000003000000000000300000000000000000000000008000001000000000000000100000000000000003000000000000247502018082000000010000000000000BRBRFSACNOR8118
012018073078BRFSH250    070BRFS  FM    ON      NM000R$  000000000002500000000000300000000000019000000000001900000000000300000000000020000000000003500009000000000000036700000000000000726200000000000250002018082000000010000000000000BRBRFSACNOR8118
012018073078BRFSH252    070BRFSE       ON      NM000R$  000000000002000000000000200000000000020000000000002000000000000200000000000000000000000002800002000000000000005000000000000000100000000000000252502018082000000010000000000000BRBRFSACNOR8118
012018073078BRFSH257    070BRFSE       ON      NM000R$  000000000001200000000000120000000000012000000000001200000000000120000000000012000000000007300001000000000000002000000000000000024000000000000257502018082000000010000000000000BRBRFSACNOR8118
012018073078BRFSH26     070BRFS  FM    ON      NM000R$  000000000001300000000000140000000000011000000000001200000000000140000000000012000000000001500009000000000000022600000000000000279800000000000260002018082000000010000000000000BRBRFSACNOR8118
012018073078BRFSH27     070BRFS        ON      NM000R$  000000000000700000000000070000000000005000000000000600000000000070000000000003000000000000700009000000000000023000000000000000156000000000000270002018082000000010000000000000BRBRFSACNOR8118
012018073078BRFSH275    070BRFS        ON      NM000R$  000000000000600000000000060000000000006000000000000600000000000060000000000005000000000000600002000000000000000500000000000000003000000000000275002018082000000010000000000000BRBRFSACNOR8118
012018073078BRFSI230    070BRFS  FM    ON      NM000R$  000000000011800000000001560000000000118000000000014500000000001560000000000107000000000050000012000000000000002200000000000000320400000000000230002018091700000010000000000000BRBRFSACNOR8118
012018073078BRFSI232    070BRFSE       ON      NM000R$  000000000015000000000001500000000000150000000000015000000000001500000000000001000000000050000001000000000000001000000000000000150000000000000232502018091700000010000000000000BRBRFSACNOR8118
012018073078BRFSI235    070BRFS        ON      NM000R$  000000000014000000000001400000000000140000000000014000000000001400000000000001000000000050000001000000000000001000000000000000140000000000000235002018091700000010000000000000BRBRFSACNOR8118
012018073078BRFSI24     070BRFS  FM    ON      NM000R$  000000000008200000000000970000000000081000000000009200000000000960000000000073000000000000000006000000000000008500000000000000782900000000000240002018091700000010000000000000BRBRFSACNOR8118
012018073078BRFSI242    070BRFSE       ON      NM000R$  000000000007000000000000700000000000070000000000007000000000000700000000000000000000000000000001000000000000002000000000000000140000000000000242502018091700000010000000000000BRBRFSACNOR8118
012018073078BRFSI245    070BRFS        ON      NM000R$  000000000007300000000000730000000000050000000000006500000000000500000000000001000000000050000002000000000000006000000000000000392000000000000245002018091700000010000000000000BRBRFSACNOR8118
012018073078BRFSI25     070BRFS  FM    ON      NM000R$  000000000005600000000000700000000000050000000000006200000000000680000000000000000000000000000034000000000000086400000000000005365800000000000250002018091700000010000000000000BRBRFSACNOR8118
012018073078BRFSI260    070BRFS  FM    ON      NM000R$  000000000004100000000000410000000000041000000000004100000000000410000000000026000000000000000001000000000000003000000000000000123000000000000260002018091700000010000000000000BRBRFSACNOR8118
012018073078BRFSI275    070BRFS        ON      NM000R$  000000000002500000000000250000000000025000000000002500000000000250000000000000000000000002800001000000000000002000000000000000050000000000000275002018091700000010000000000000BRBRFSACNOR8118
012018073078BRFSJ25     070BRFS        ON      NM000R$  000000000012000000000001200000000000120000000000012000000000001200000000000100000000000000000001000000000000000100000000000000012000000000000250002018101500000010000000000000BRBRFSACNOR8118
012018073078BRFSL25     070BRFS        ON      NM000R$  000000000015000000000001500000000000150000000000015000000000001500000000000000000000000016000001000000000000000200000000000000030000000000000250002018121700000010000000000000BRBRFSACNOR8118
012018073078BRFSL267    070BRFSE       ON      NM000R$  000000000010000000000001000000000000100000000000010000000000001000000000000000000000000000000002000000000000004300000000000000430000000000000267502018121700000010000000000000BRBRFSACNOR8118
012018073082BRFST18     080BRFSE       ON      NM000R$  000000000000600000000000060000000000006000000000000600000000000060000000000000000000000001500001000000000000000100000000000000000600000000000180002018082000000010000000000000BRBRFSACNOR8118
012018073082BRFST19     080BRFSE       ON      NM000R$  000000000000900000000000090000000000009000000000000900000000000090000000000007000000000001200003000000000000009600000000000000086400000000000190002018082000000010000000000000BRBRFSACNOR8118
012018073082BRFST20     080BRFSE       ON      NM000R$  000000000001700000000000170000000000017000000000001700000000000170000000000014000000000008000001000000000000030000000000000000510000000000000200002018082000000010000000000000BRBRFSACNOR8118
012018073082BRFSU21     080BRFSE  FM   ON      NM000R$  000000000005700000000000570000000000050000000000005500000000000500000000000000000000000000000005000000000000010500000000000000578000000000000210002018091700000010000000000000BRBRFSACNOR8118
012018073082BRFSU230    080BRFSE  FM   ON      NM000R$  000000000012600000000001440000000000126000000000012700000000001440000000000000000000000000000002000000000000002700000000000000343800000000000230002018091700000010000000000000BRBRFSACNOR8118
012018073082BRFSX205    080BRFSE       ON      NM000R$  000000000008000000000000800000000000080000000000008000000000000800000000000000000000000000000002000000000000004300000000000000344000000000000205002018121700000010000000000000BRBRFSACNOR8118
012018073082BRFSX225    080BRFSE       ON      NM000R$  000000000018000000000001800000000000180000000000018000000000001800000000000000000000000000000002000000000000004300000000000000774000000000000225002018121700000010000000000000BRBRFSACNOR8118
012018073002BRGE6       010ALFA CONSORCPNB          R$  000000000078000000000007870000000000780000000000078400000000007870000000000000000000000080000003000000000000000600000000000000470800000000000000009999123100000010000000000000BRBRGEACNPB7207
012018073002BRIN3       010BR INSURANCEON      NM   R$  000000000150100000000015300000000001450000000000148900000000014750000000001470000000000149000060000000000000018500000000000027553300000000000000009999123100000010000000000000BRBRINACNOR3111
012018073096BRIN3F      020BR INSURANCEON      NM   R$  000000000148100000000014990000000001470000000000148200000000014990000000001460000000000150000004000000000000000004000000000000005930000000000000009999123100000010000000000000BRBRINACNOR3111
012018073062BRIN3T      030BR INSURANCEON      NM091R$  000000000153400000000015350000000001534000000000153400000000015350000000000000000000000000000002000000000000002000000000000003069910000000000000009999123100000010000000000000BRBRINACNOR3111
012018073002BRIV3       010ALFA INVEST ON           R$  000000000052900000000005290000000000529000000000052900000000005290000000000491000000000052900001000000000000000100000000000000052900000000000000009999123100000010000000000000BRBRIVACNOR6205
012018073096BRIV3F      020ALFA INVEST ON           R$  000000000048200000000004820000000000482000000000048200000000004820000000000482000000000054600001000000000000000042000000000000020244000000000000009999123100000010000000000000BRBRIVACNOR6205
012018073002BRIV4       010ALFA INVEST PN           R$  000000000065100000000006770000000000651000000000066400000000006770000000000655000000000067800002000000000000000200000000000000132800000000000000009999123100000010000000000000BRBRIVACNPR3206
012018073096BRIV4F      020ALFA INVEST PN           R$  000000000060800000000006080000000000608000000000060800000000006080000000000608000000000067300001000000000000000008000000000000004864000000000000009999123100000010000000000000BRBRIVACNPR3206
012018073002BRKM3       010BRASKEM     ON      N1   R$  000000000514300000000051800000000005143000000000516000000000051490000000005060000000000514900005000000000000000500000000000002580100000000000000009999123100000010000000000000BRBRKMACNOR1116
