00COTAHIST.2018BOVESPA 20180801                                                                                                                                                                                                                      
012018080102AALR3       010ALLIAR      ON      NM   R$  000000000130900000000013390000000001305000000000132600000000013300000000001313000000000133000548000000000000236100000000000313181100000000000000009999123100000010000000000000BRAALRACNOR6100
012018080196AALR3F      020ALLIAR      ON      NM   R$  000000000128300000000013390000000001279000000000131400000000013190000000001279000000000131900005000000000000000169000000000000222131000000000000009999123100000010000000000000BRAALRACNOR6100
012018080102AAPL34      010APPLE       DRN          R$  000000000740500000000075950000000007405000000000745700000000075950000000007200000000000759500070000000000000209500000000001562269600000000000000009999123100000010000000000000BRAAPLBDR004125
012018080196AAPL34F     020APPLE       DRN          R$  000000000748000000000076200000000007400000000000748400000000076200000000007170000000000762100009000000000000000211000000000001579286000000000000009999123100000010000000000000BRAAPLBDR004125
012018080102ABCB4       010ABC BRASIL  PN      N2   R$  000000000155200000000015860000000001529000000000154900000000015360000000001536000000000154002409000000000000316100000000000489872100000000000000009999123100000010000000000000BRABCBACNPR4130
012018080196ABCB4F      020ABC BRASIL  PN      N2   R$  000000000158900000000015890000000001530000000000155200000000015400000000001530000000000154000063000000000000001692000000000002626784000000000000009999123100000010000000000000BRABCBACNPR4130
012018080112ABCP11      010FII ABC IMOBCI  ER       R$  000000000156700000000015720000000001551000000000156400000000015590000000001559000000000157000384000000000000027996000000000043810665000000000000009999123100000010000000000000BRABCPCTF000274
012018080102ABEV3       010AMBEV S/A   ON           R$  000000000194500000000019710000000001936000000000195200000000019450000000001945000000000194616661000000000009261100000000018079555200000000000000009999123100000010000000000000BRABEVACNOR1120
012018080196ABEV3F      020AMBEV S/A   ON           R$  000000000195000000000019680000000001937000000000195200000000019590000000001946000000000195900272000000000000005343000000000010429762000000000000009999123100000010000000000000BRABEVACNOR1120
012018080162ABEV3T      030AMBEV S/A   ON        016R$  000000000194900000000019530000000001949000000000195100000000019530000000000000000000000000000004000000000000010500000000000020495001000000000000009999123100000010000000000000BRABEVACNOR1120
012018080162ABEV3T      030AMBEV S/A   ON        061R$  000000000196900000000019700000000001969000000000196900000000019700000000000000000000000000000002000000000000000200000000000000393808000000000000009999123100000010000000000000BRABEVACNOR1120
012018080162ABEV3T      030AMBEV S/A   ON        090R$  000000000198300000000019840000000001972000000000197900000000019730000000000000000000000000000004000000000000001600000000000003167779000000000000009999123100000010000000000000BRABEVACNOR1120
012018080178ABEVH19     070ABEV        ON        000R$  000000000008000000000000800000000000080000000000008000000000000800000000000051000000000008000001000000000000000200000000000000016000000000000188502018082000000010000000000000BRABEVACNOR1119
012018080178ABEVH2      070ABEV        ON        000R$  000000000011100000000001230000000000111000000000011400000000001230000000000001000000000000000007000000000000001000000000000000114700000000000183502018082000000010000000000000BRABEVACNOR1117
012018080178ABEVH20     070ABEV  FM    ON        000R$  000000000002800000000000280000000000021000000000002500000000000240000000000015000000000002400034000000000000234800000000000006057200000000000198502018082000000010000000000000BRABEVACNOR1118
012018080178ABEVH21     070ABEV        ON        000R$  000000000001000000000000120000000000007000000000001000000000000110000000000002000000000001900008000000000000050200000000000000544700000000000203502018082000000010000000000000BRABEVACNOR1116
012018080178ABEVH210    070ABEV  FM    ON        000R$  000000000000400000000000060000000000004000000000000500000000000050000000000003000000000000500004000000000000030400000000000000160600000000000208502018082000000010000000000000BRABEVACNOR1119
012018080178ABEVH49     070ABEV  FM    ON        000R$  000000000004600000000000540000000000046000000000005300000000000460000000000010000000000014000006000000000000044800000000000002390300000000000193502018082000000010000000000000BRABEVACNOR1117
012018080178ABEVI19     070ABEV  FM    ON        000R$  000000000009800000000000980000000000098000000000009800000000000980000000000043000000000010100001000000000000008000000000000000784000000000000190102018091700000010000000000000BRABEVACNOR1119
012018080178ABEVI20     070ABEV  FM    ON        000R$  000000000004400000000000520000000000043000000000004500000000000430000000000027000000000005000011000000000000036700000000000001683500000000000200102018091700000010000000000000BRABEVACNOR1119
012018080178ABEVI221    070ABEV        ON        000R$  000000000000800000000000080000000000008000000000000800000000000080000000000000000000000004000001000000000000004000000000000000032000000000000220102018091700000010000000000000BRABEVACNOR1119
012018080182ABEVT19     080ABEVE  FM   ON        000R$  000000000000900000000000100000000000009000000000000900000000000100000000000010000000000010000002000000000000010000000000000000095000000000000188502018082000000010000000000000BRABEVACNOR1119
012018080182ABEVT2      080ABEVE       ON        000R$  000000000000300000000000040000000000003000000000000300000000000040000000000002000000000000800002000000000000003300000000000000012800000000000183502018082000000010000000000000BRABEVACNOR1117
012018080182ABEVT210    080ABEVE  FM   ON        000R$  000000000014300000000001430000000000126000000000013500000000001350000000000000000000000015000005000000000000060000000000000008136000000000000208502018082000000010000000000000BRABEVACNOR1119
012018080182ABEVT49     080ABEVE  FM   ON        000R$  000000000002500000000000250000000000025000000000002500000000000250000000000000000000000010000001000000000000004000000000000000100000000000000193502018082000000010000000000000BRABEVACNOR1117
012018080182ABEVT68     080ABEVE       ON        000R$  000000000000500000000000050000000000005000000000000500000000000050000000000000000000000000000001000000000000003600000000000000018000000000000181002018082000000010000000000000BRABEVACNOR1117
012018080182ABEVT79     080ABEVE       ON        000R$  000000000001500000000000150000000000015000000000001500000000000150000000000000000000000004200001000000000000000500000000000000007500000000000191002018082000000010000000000000BRABEVACNOR1117
012018080182ABEVT80     080ABEVE       ON        000R$  000000000004100000000000410000000000041000000000004100000000000410000000000000000000000000000001000000000000002000000000000000082000000000000196002018082000000010000000000000BRABEVACNOR1117
012018080182ABEVU48     080ABEVE  FM   ON        000R$  000000000002200000000000220000000000022000000000002200000000000220000000000000000000000000000001000000000000005000000000000000110000000000000185102018091700000010000000000000BRABEVACNOR1119
012018080102ADHM3       010ADVANCED-DH ON           R$  000000000018100000000001810000000000180000000000018000000000001800000000000171000000000018000006000000000000005400000000000000972400000000000000009999123100000010000000000000BRADHMACNOR9101
012018080196ADHM3F      020ADVANCED-DH ON           R$  000000000019000000000001900000000000180000000000018000000000001800000000000180000000000019000003000000000000000073000000000000013150000000000000009999123100000010000000000000BRADHMACNOR9101
012018080112AEFI11      010FII AESAPAR CI  ER       R$  000000001499900000000149990000000014811000000001484000000000148300000000014830000000001486000114000000000000001804000000000026773161000000000000009999123100000010000000000000BRAEFICTF002180
012018080102AELP3       010AES ELPA    ON           R$  000000000020300000000002100000000000202000000000020600000000002100000000000202000000000021000009000000000000003500000000000000721700000000000000009999123100000010000000000000BRAELPACNOR2124
012018080196AELP3F      020AES ELPA    ON           R$  000000000020000000000002000000000000200000000000020000000000002000000000000200000000000022200002000000000000000090000000000000018000000000000000009999123100000010000000000000BRAELPACNOR2124
012018080112AGCX11      010FII AG CAIXACI  ER       R$  000000010199900000001025000000000101050000000010154500000001013700000000101006000000010137000113000000000000000660000000000067020295000000000000009999123100000010000000000000BRAGCXCTF003169
012018080102AGRO3       010BRASILAGRO  ON      NM   R$  000000000140100000000014100000000001395000000000140000000000013950000000001395000000000140000070000000000000015800000000000022131500000000000000009999123100000010000000000000BRAGROACNOR7107
012018080196AGRO3F      020BRASILAGRO  ON      NM   R$  000000000136500000000014020000000001230000000000137100000000014020000000001245000000000140200016000000000000000206000000000000282451000000000000009999123100000010000000000000BRAGROACNOR7107
012018080112ALMI11      010FII TORRE ALCI           R$  000000013999800000001399980000000138104000000013879600000001396000000000138200000000013960000011000000000000000037000000000005135452000000000000009999123100000010000000000000BRALMICTF003249
012018080102ALPA4       010ALPARGATAS  PN      N1   R$  000000000127500000000012950000000001270000000000128600000000012950000000001293000000000129501517000000000000313600000000000403346300000000000000009999123100000010000000000000BRALPAACNPR7226
012018080196ALPA4F      020ALPARGATAS  PN      N1   R$  000000000131300000000013130000000001270000000000128300000000012940000000001266000000000129400018000000000000000389000000000000499186000000000000009999123100000010000000000000BRALPAACNPR7226
012018080162ALPA4T      030ALPARGATAS  PN      N1061R$  000000000129000000000012910000000001290000000000129000000000012910000000000000000000000000000002000000000000000800000000000001032633000000000000009999123100000010000000000000BRALPAACNPR7226
012018080102ALSC3       010ALIANSCE    ON      NM   R$  000000000150500000000015530000000001505000000000153900000000015450000000001540000000000154501904000000000000605600000000000932031700000000000000009999123100000010000000000000BRALSCACNOR0111
012018080196ALSC3F      020ALIANSCE    ON      NM   R$  000000000164200000000016420000000001523000000000153800000000015460000000001452000000000154600014000000000000000219000000000000336995000000000000009999123100000010000000000000BRALSCACNOR0111
012018080102ALUP11      010ALUPAR      UNT     N2   R$  000000000163400000000016490000000001624000000000163900000000016400000000001636000000000164402612000000000000946700000000001551733100000000000000009999123100000010000000000000BRALUPCDAM15108
012018080196ALUP11F     020ALUPAR      UNT     N2   R$  000000000161200000000016450000000001612000000000163600000000016440000000001638000000000164400023000000000000000448000000000000733220000000000000009999123100000010000000000000BRALUPCDAM15108
012018080102ALUP3       010ALUPAR      ON      N2   R$  000000000058500000000006450000000000585000000000060800000000006450000000000590000000000063800010000000000000004800000000000002921800000000000000009999123100000010000000000000BRALUPACNOR8108
012018080196ALUP3F      020ALUPAR      ON      N2   R$  000000000060400000000006040000000000604000000000060400000000006040000000000530000000000060400001000000000000000050000000000000030200000000000000009999123100000010000000000000BRALUPACNOR8108
012018080102ALUP4       010ALUPAR      PN      N2   R$  000000000051000000000005100000000000510000000000051000000000005100000000000510000000000053900001000000000000000100000000000000051000000000000000009999123100000010000000000000BRALUPACNPR5108
012018080112ALZR11      010FII ALIANZA CI           R$  000000000939900000000093990000000009189000000000927900000000092300000000009230000000000931500161000000000000002738000000000025407199000000000000009999123100000010000000000000BRALZRCTF006106
012018080102AMAR3       010LOJAS MARISAON      NM   R$  000000000044700000000004550000000000433000000000044200000000004350000000000435000000000043702310000000000000907800000000000401764100000000000000009999123100000010000000000000BRAMARACNOR4112
012018080196AMAR3F      020LOJAS MARISAON      NM   R$  000000000045000000000004520000000000438000000000044400000000004420000000000440000000000044200021000000000000000547000000000000243265000000000000009999123100000010000000000000BRAMARACNOR4112
012018080162AMAR3T      030LOJAS MARISAON      NM016R$  000000000043400000000004350000000000434000000000043400000000004350000000000000000000000000000002000000000000003200000000000001390588000000000000009999123100000010000000000000BRAMARACNOR4112
012018080162AMAR3T      030LOJAS MARISAON      NM061R$  000000000044900000000004500000000000449000000000044900000000004500000000000000000000000000000002000000000000100000000000000044901720000000000000009999123100000010000000000000BRAMARACNOR4112
012018080162AMAR3T      030LOJAS MARISAON      NM090R$  000000000045300000000004540000000000453000000000045300000000004540000000000000000000000000000002000000000000007600000000000003445946000000000000009999123100000010000000000000BRAMARACNOR4112
012018080102AMZO34      010AMAZON      DRN          R$  000000033664500000003366450000000336645000000033664500000003366450000000000000000000000000000001000000000000000100000000000033664500000000000000009999123100000010000000000000BRAMZOBDR002101
012018080196AMZO34F     020AMAZON      DRN          R$  000000033656900000003542690000000333068000000034041200000003470000000000335000000000049999900005000000000000000006000000000002042475000000000000009999123100000010000000000000BRAMZOBDR002101
012018080102ANIM3       010ANIMA       ON      NM   R$  000000000149000000000015690000000001475000000000152200000000015600000000001560000000000156401373000000000000265300000000000403900000000000000000009999123100000010000000000000BRANIMACNOR6105
012018080196ANIM3F      020ANIMA       ON      NM   R$  000000000149000000000015800000000001487000000000153900000000015800000000001508000000000158000026000000000000000952000000000001465856000000000000009999123100000010000000000000BRANIMACNOR6105
012018080102APTI4       010ALIPERTI    PN           R$  000000035000000000003500000000000350000000000035000000000003500000000000000000000000000000000002000000000000000200000000000070000000000000000000009999123100000010000000000000BRAPTIACNPR3129
012018080102ARZZ3       010AREZZO CO   ON      NM   R$  000000000422700000000042350000000004057000000000418800000000042200000000004216000000000422201528000000000000224000000000000938331300000000000000009999123100000010000000000000BRARZZACNOR3130
012018080196ARZZ3F      020AREZZO CO   ON      NM   R$  000000000419800000000042400000000004119000000000419100000000042400000000004122000000000424000032000000000000000650000000000002724656000000000000009999123100000010000000000000BRARZZACNOR3130
012018080162ARZZ3T      030AREZZO CO   ON      NM061R$  000000000417600000000041770000000004176000000000417600000000041770000000000000000000000000000002000000000000000300000000000001252988000000000000009999123100000010000000000000BRARZZACNOR3130
012018080102ATOM3       010ATOMPAR     ON           R$  000000000023300000000002330000000000222000000000022700000000002290000000000225000000000022800016000000000000010600000000000002413500000000000000009999123100000010000000000000BRATOMACNOR1102
012018080102ATTB34      010ATT INC     DRN          R$  000000001201700000000120170000000012017000000001201700000000120170000000000000000000001201700001000000000000000100000000000001201700000000000000009999123100000010000000000000BRATTBBDR007124
012018080102AZUL4       010AZUL        PN      N2   R$  000000000241300000000024220000000002334000000000236700000000023890000000002377000000000238903963000000000001226800000000002904953500000000000000009999123100000010000000000000BRAZULACNPR4100
012018080196AZUL4F      020AZUL        PN      N2   R$  000000000236900000000024780000000002319000000000235500000000023650000000002355000000000236500029000000000000000742000000000001747708000000000000009999123100000010000000000000BRAZULACNPR4100
012018080178AZULI242    070AZULE       PN      N2000R$  000000000011600000000001160000000000116000000000011600000000001160000000000070000000000000000001000000000000010000000000000001160000000000000242502018091700000010000000000000BRAZULACNPR4100
012018080178AZULI265    070AZUL        PN      N2000R$  000000000001600000000000160000000000016000000000001600000000000160000000000000000000000000000001000000000000010000000000000000160000000000000265002018091700000010000000000000BRAZULACNPR4100
012018080102B3SA3       010B3          ON      NM   R$  000000000237900000000023960000000002348000000000236600000000023670000000002363000000000236818141000000000006866200000000016249372900000000000000009999123100000010000000000000BRB3SAACNOR6102
012018080196B3SA3F      020B3          ON      NM   R$  000000000239800000000023980000000002350000000000236800000000023600000000002350000000000236000199000000000000005466000000000012944689000000000000009999123100000010000000000000BRB3SAACNOR6102
012018080162B3SA3T      030B3          ON      NM016R$  000000000237600000000023770000000002376000000000237600000000023770000000000000000000000000000002000000000000095000000000000225730730000000000000009999123100000010000000000000BRB3SAACNOR6102
012018080162B3SA3T      030B3          ON      NM061R$  000000000240400000000024050000000002385000000000240200000000023860000000000000000000000000000004000000000000001700000000000004084138000000000000009999123100000010000000000000BRB3SAACNOR6102
012018080162B3SA3T      030B3          ON      NM090R$  000000000240700000000024080000000002399000000000240400000000024000000000000000000000000000000004000000000000000500000000000001202216000000000000009999123100000010000000000000BRB3SAACNOR6102
012018080178B3SAH231    070B3SA  FM    ON      NM000R$  000000000013600000000001360000000000124000000000012500000000001280000000000000000000000000000006000000000000012500000000000001571200000000000229102018082000000010000000000000BRB3SAACNOR6101
012018080178B3SAH236    070B3SAE       ON      NM000R$  000000000008700000000000870000000000087000000000008700000000000870000000000067000000000000000001000000000000001000000000000000087000000000000236602018082000000010000000000000BRB3SAACNOR6102
012018080178B3SAH24     070B3SA  FM    ON      NM000R$  000000000006900000000000800000000000060000000000006800000000000600000000000057000000000008200031000000000000052100000000000003588200000000000239102018082000000010000000000000BRB3SAACNOR6101
012018080178B3SAH249    070B3SAE       ON      NM000R$  000000000003800000000000380000000000038000000000003800000000000380000000000000000000000000000001000000000000000500000000000000019000000000000246602018082000000010000000000000BRB3SAACNOR6100
012018080178B3SAH251    070B3SA  FM    ON      NM000R$  000000000003900000000000390000000000027000000000003000000000000300000000000027000000000003300018000000000000018300000000000000563500000000000249102018082000000010000000000000BRB3SAACNOR6101
012018080178B3SAH26     070B3SA  FM    ON      NM000R$  000000000001600000000000160000000000013000000000001400000000000130000000000003000000000002000005000000000000004900000000000000070200000000000259102018082000000010000000000000BRB3SAACNOR6101
012018080178B3SAH271    070B3SA  FM    ON      NM000R$  000000000000500000000000050000000000005000000000000500000000000050000000000000000000000003000001000000000000001000000000000000005000000000000269102018082000000010000000000000BRB3SAACNOR6101
012018080178B3SAH53     070B3SA        ON      NM000R$  000000000009300000000000930000000000093000000000009300000000000930000000000072000000000000000008000000000000007000000000000000651000000000000234102018082000000010000000000000BRB3SAACNOR6101
012018080178B3SAH54     070B3SA        ON      NM000R$  000000000005500000000000550000000000048000000000005000000000000480000000000035000000000000000002000000000000000700000000000000035000000000000244102018082000000010000000000000BRB3SAACNOR6101
012018080178B3SAI23     070B3SA  FM    ON      NM000R$  000000000016500000000001820000000000164000000000017100000000001650000000000000000000000000000005000000000000037500000000000006435000000000000229402018091700000010000000000000BRB3SAACNOR6101
012018080178B3SAI25     070B3SA  FM    ON      NM000R$  000000000008300000000000850000000000083000000000008300000000000850000000000060000000000000000003000000000000011000000000000000915000000000000249402018091700000010000000000000BRB3SAACNOR6101
012018080178B3SAL261    070B3SAE       ON      NM000R$  000000000016500000000001650000000000165000000000016500000000001650000000000000000000000000000001000000000000010500000000000001732500000000000261902018121700000010000000000000BRB3SAACNOR6102
012018080178B3SAL271    070B3SAE       ON      NM000R$  000000000009000000000000910000000000090000000000009000000000000910000000000000000000000000000003000000000000260000000000000023556000000000000271902018121700000010000000000000BRB3SAACNOR6102
012018080182B3SAT231    080B3SAE  FM   ON      NM000R$  000000000003900000000000420000000000039000000000004100000000000420000000000000000000000011000004000000000000013600000000000000565200000000000229102018082000000010000000000000BRB3SAACNOR6101
012018080182B3SAT24     080B3SAE  FM   ON      NM000R$  000000000008000000000000870000000000080000000000008300000000000870000000000000000000000000000003000000000000004000000000000000334000000000000239102018082000000010000000000000BRB3SAACNOR6101
012018080182B3SAT244    080B3SAE       ON      NM000R$  000000000009600000000000960000000000096000000000009600000000000960000000000000000000000000000001000000000000010000000000000000960000000000000241602018082000000010000000000000BRB3SAACNOR6100
012018080182B3SAT251    080B3SAE  FM   ON      NM000R$  000000000014100000000001450000000000137000000000014000000000001450000000000000000000000000000004000000000000017900000000000002520400000000000249102018082000000010000000000000BRB3SAACNOR6101
012018080182B3SAU22     080B3SAE  FM   ON      NM000R$  000000000004800000000000480000000000048000000000004800000000000480000000000000000000000000000001000000000000000200000000000000009600000000000219402018091700000010000000000000BRB3SAACNOR6101
012018080182B3SAU23     080B3SAE  FM   ON      NM000R$  000000000009100000000000910000000000091000000000009100000000000910000000000000000000000000000001000000000000007000000000000000637000000000000229402018091700000010000000000000BRB3SAACNOR6101
012018080182B3SAU52     080B3SAE       ON      NM000R$  000000000006300000000000630000000000063000000000006300000000000630000000000000000000000000000002000000000000001500000000000000094500000000000224402018091700000010000000000000BRB3SAACNOR6101
012018080182B3SAX203    080B3SAE       ON      NM000R$  000000000005500000000000550000000000055000000000005500000000000550000000000000000000000000000001000000000000010500000000000000577500000000000201902018121700000010000000000000BRB3SAACNOR6101
012018080182B3SAX211    080B3SAE       ON      NM000R$  000000000010000000000001000000000000100000000000010000000000001000000000000000000000000000000002000000000000260000000000000026000000000000000211902018121700000010000000000000BRB3SAACNOR6102
012018080182B3SAX234    080B3SAE       ON      NM000R$  000000000018500000000001850000000000185000000000018500000000001850000000000000000000000000000002000000000000260000000000000048100000000000000234402018121700000010000000000000BRB3SAACNOR6102
012018080182B3SAX74     080B3SAE       ON      NM000R$  000000000022000000000002200000000000220000000000022000000000002200000000000000000000000000000001000000000000010500000000000002310000000000000236902018121700000010000000000000BRB3SAACNOR6100
012018080102BAUH4       010EXCELSIOR   PN           R$  000000000120100000000012880000000001201000000000124400000000012880000000001210000000000128800002000000000000000200000000000000248900000000000000009999123100000010000000000000BRBAUHACNPR3113
012018080102BAZA3       010AMAZONIA    ON           R$  000000000213900000000021390000000002139000000000213900000000021390000000002101000000000234500001000000000000000100000000000000213900000000000000009999123100000010000000000000BRBAZAACNOR0172
012018080196BAZA3F      020AMAZONIA    ON           R$  000000000235000000000023500000000002350000000000235000000000023500000000002110000000000275000001000000000000000004000000000000009400000000000000009999123100000010000000000000BRBAZAACNOR0172
012018080102BBAS3       010BRASIL      ON      NM   R$  000000000322200000000033250000000003222000000000329200000000032970000000003296000000000329716470000000000007674600000000025268411400000000000000009999123100000010000000000000BRBBASACNOR3277
012018080196BBAS3F      020BRASIL      ON      NM   R$  000000000324400000000033230000000003229000000000329100000000033020000000003302000000000330500399000000000000008808000000000028988952000000000000009999123100000010000000000000BRBBASACNOR3277
012018080162BBAS3T      030BRASIL      ON      NM016R$  000000000332800000000033290000000003328000000000332800000000033290000000000000000000000000000002000000000000002000000000000006657183000000000000009999123100000010000000000000BRBBASACNOR3277
012018080162BBAS3T      030BRASIL      ON      NM030R$  000000000333700000000033380000000003317000000000333100000000033180000000000000000000000000000008000000000000009400000000000031317467000000000000009999123100000010000000000000BRBBASACNOR3277
012018080162BBAS3T      030BRASIL      ON      NM047R$  000000000329300000000032940000000003293000000000329300000000032940000000000000000000000000000002000000000000001000000000000003293512000000000000009999123100000010000000000000BRBBASACNOR3277
012018080162BBAS3T      030BRASIL      ON      NM061R$  000000000333600000000033480000000003317000000000333600000000033180000000000000000000000000000012000000000000426600000000001423301861000000000000009999123100000010000000000000BRBBASACNOR3277
012018080162BBAS3T      030BRASIL      ON      NM090R$  000000000334500000000033710000000003333000000000333900000000033530000000000000000000000000000024000000000001001500000000003344998263000000000000009999123100000010000000000000BRBBASACNOR3277
012018080178BBASA50     070BBAS        ON      NM000R$  000000000006000000000000600000000000060000000000006000000000000600000000000026000000000000000001000000000000001000000000000000060000000000000494702019012100000010000000000000BRBBASACNOR3273
012018080178BBASH18     070BBASE       ON      NM000R$  000000000012400000000001440000000000124000000000014200000000001280000000000060000000000029000006000000000000105100000000000014982800000000000327302018082000000010000000000000BRBBASACNOR3269
012018080178BBASH19     070BBAS  FM    ON      NM000R$  000000000011700000000001340000000000104000000000011600000000001160000000000108000000000015000041000000000000098200000000000011424500000000000329802018082000000010000000000000BRBBASACNOR3269
012018080178BBASH20     070BBASE       ON      NM000R$  000000000009400000000001120000000000094000000000010100000000001120000000000001000000000000000006000000000000036100000000000003657200000000000332302018082000000010000000000000BRBBASACNOR3269
012018080178BBASH272    070BBAS        ON      NM000R$  000000000059500000000005950000000000595000000000059500000000005950000000000000000000000070000001000000000000000500000000000000297500000000000269802018082000000010000000000000BRBBASACNOR3275
012018080178BBASH295    070BBAS        ON      NM000R$  000000000035000000000003700000000000350000000000036000000000003700000000000200000000000000000002000000000000001300000000000000469000000000000294802018082000000010000000000000BRBBASACNOR3276
012018080178BBASH300    070BBAS        ON      NM000R$  000000000031000000000003400000000000310000000000032400000000003300000000000320000000000000000007000000000000007000000000000002271400000000000299802018082000000010000000000000BRBBASACNOR3276
012018080178BBASH303    070BBASE       ON      NM000R$  000000000029500000000003100000000000295000000000030900000000003100000000000000000000000000000006000000000000087000000000000026940000000000000302302018082000000010000000000000BRBBASACNOR3277
012018080178BBASH314    070BBASE       ON      NM000R$  000000000022000000000002200000000000220000000000022000000000002200000000000004000000000000000001000000000000002000000000000000440000000000000312302018082000000010000000000000BRBBASACNOR3275
012018080178BBASH315    070BBAS        ON      NM000R$  000000000021900000000002190000000000219000000000021900000000002190000000000220000000000000000001000000000000001000000000000000219000000000000309802018082000000010000000000000BRBBASACNOR3273
012018080178BBASH319    070BBASE       ON      NM000R$  000000000018700000000001990000000000181000000000018600000000001820000000000000000000000045000320000000000000260900000000000048769700000000000317302018082000000010000000000000BRBBASACNOR3275
012018080178BBASH320    070BBAS  FM    ON      NM000R$  000000000016500000000001900000000000161000000000018300000000001730000000000001000000000019000042000000000000169200000000000030996300000000000319802018082000000010000000000000BRBBASACNOR3276
012018080178BBASH337    070BBAS        ON      NM000R$  000000000010200000000001030000000000090000000000009300000000000900000000000000000000000009900007000000000000007000000000000000656000000000000334802018082000000010000000000000BRBBASACNOR3275
012018080178BBASH339    070BBASE       ON      NM000R$  000000000007300000000000880000000000073000000000008000000000000760000000000066000000000008100037000000000000096000000000000007713400000000000337302018082000000010000000000000BRBBASACNOR3275
012018080178BBASH342    070BBAS  FM    ON      NM000R$  000000000006600000000000840000000000066000000000007100000000000730000000000070000000000008400033000000000000088900000000000006379600000000000339802018082000000010000000000000BRBBASACNOR3275
012018080178BBASH344    070BBASE       ON      NM000R$  000000000006700000000000670000000000066000000000006600000000000660000000000055000000000009500002000000000000004500000000000000298500000000000342302018082000000010000000000000BRBBASACNOR3275
012018080178BBASH349    070BBASE       ON      NM000R$  000000000004500000000000470000000000045000000000004500000000000470000000000015000000000009800005000000000000024000000000000001100000000000000347302018082000000010000000000000BRBBASACNOR3275
012018080178BBASH35     070BBAS  FM    ON      NM000R$  000000000003800000000000500000000000038000000000004200000000000410000000000041000000000004500058000000000000103600000000000004410500000000000349802018082000000010000000000000BRBBASACNOR3276
012018080178BBASH350    070BBAS        ON      NM000R$  000000000005800000000000650000000000058000000000005900000000000650000000000000000000000012200002000000000000004100000000000000245500000000000344802018082000000010000000000000BRBBASACNOR3273
012018080178BBASH354    070BBASE       ON      NM000R$  000000000003600000000000430000000000035000000000003600000000000350000000000010000000000004300007000000000000059800000000000002158600000000000352302018082000000010000000000000BRBBASACNOR3275
012018080178BBASH357    070BBASE       ON      NM000R$  000000000002500000000000250000000000025000000000002500000000000250000000000025000000000000000004000000000000009300000000000000232500000000000357302018082000000010000000000000BRBBASACNOR3277
012018080178BBASH360    070BBAS  FM    ON      NM000R$  000000000002500000000000280000000000020000000000002300000000000240000000000020000000000003500025000000000000039100000000000000905200000000000359802018082000000010000000000000BRBBASACNOR3276
012018080178BBASH375    070BBAS        ON      NM000R$  000000000001600000000000160000000000014000000000001500000000000140000000000004000000000001600004000000000000002600000000000000039800000000000369802018082000000010000000000000BRBBASACNOR3273
012018080178BBASI12     070BBAS  FM    ON      NM000R$  000000000027000000000002700000000000270000000000027000000000002700000000000000000000000000000001000000000000004200000000000001134000000000000316502018091700000010000000000000BRBBASACNOR3270
012018080178BBASI21     070BBAS  FM    ON      NM000R$  000000000022800000000002280000000000228000000000022800000000002280000000000000000000000000000001000000000000000200000000000000045600000000000326502018091700000010000000000000BRBBASACNOR3271
012018080178BBASI326    070BBASE       ON      NM000R$  000000000024000000000002400000000000240000000000024000000000002400000000000000000000000000000001000000000000001000000000000000240000000000000324002018091700000010000000000000BRBBASACNOR3275
012018080178BBASI334    070BBASE       ON      NM000R$  000000000018600000000001900000000000185000000000018800000000001850000000000080000000000000000003000000000000003500000000000000658000000000000334002018091700000010000000000000BRBBASACNOR3276
012018080178BBASI346    070BBAS  FM    ON      NM000R$  000000000013200000000001320000000000132000000000013200000000001320000000000003000000000000000001000000000000000300000000000000039600000000000346502018091700000010000000000000BRBBASACNOR3277
012018080178BBASI352    070BBAS        ON      NM000R$  000000000012000000000001280000000000120000000000012100000000001280000000000000000000000000000004000000000000026000000000000003151000000000000351502018091700000010000000000000BRBBASACNOR3276
012018080178BBASI356    070BBASE       ON      NM000R$  000000000010600000000001060000000000106000000000010600000000001060000000000000000000000000000001000000000000000600000000000000063600000000000354002018091700000010000000000000BRBBASACNOR3275
012018080178BBASI361    070BBASE       ON      NM000R$  000000000010100000000001010000000000091000000000009200000000000910000000000000000000000011000002000000000000002300000000000000212300000000000359002018091700000010000000000000BRBBASACNOR3275
012018080178BBASI364    070BBAS        ON      NM000R$  000000000008500000000000850000000000085000000000008500000000000850000000000065000000000038500001000000000000002400000000000000204000000000000361502018091700000010000000000000BRBBASACNOR3275
012018080178BBASI369    070BBAS        ON      NM000R$  000000000007200000000000830000000000070000000000008100000000000700000000000030000000000000000006000000000000033700000000000002741000000000000366502018091700000010000000000000BRBBASACNOR3275
012018080178BBASI374    070BBAS        ON      NM000R$  000000000007300000000000730000000000065000000000006600000000000650000000000002000000000006800002000000000000000500000000000000033300000000000371502018091700000010000000000000BRBBASACNOR3275
012018080178BBASJ322    070BBAS        ON      NM000R$  000000000031000000000003100000000000310000000000031000000000003100000000000000000000000000000001000000000000082000000000000025420000000000000322102018101500000010000000000000BRBBASACNOR3276
012018080178BBASJ332    070BBAS        ON      NM000R$  000000000030700000000003070000000000307000000000030700000000003070000000000000000000000000000001000000000000100000000000000030700000000000000332102018101500000010000000000000BRBBASACNOR3277
012018080178BBASJ36     070BBAS        ON      NM000R$  000000000021500000000002150000000000215000000000021500000000002150000000000000000000000025000001000000000000000100000000000000021500000000000352102018101500000010000000000000BRBBASACNOR3271
012018080178BBASL402    070BBAS        ON      NM000R$  000000000019500000000001950000000000195000000000019500000000001950000000000000000000000000000001000000000000000100000000000000019500000000000396702018121700000010000000000000BRBBASACNOR3273
012018080182BBAST148    080BBASE       ON      NM000R$  000000000006000000000000600000000000047000000000005200000000000530000000000049000000000014000019000000000000044400000000000002346400000000000314802018082000000010000000000000BRBBASACNOR3277
012018080182BBAST18     080BBASE       ON      NM000R$  000000000009100000000001050000000000091000000000009100000000000910000000000000000000000000000003000000000000005400000000000000494200000000000327302018082000000010000000000000BRBBASACNOR3269
012018080182BBAST19     080BBASE  FM   ON      NM000R$  000000000010400000000001070000000000104000000000010600000000001070000000000000000000000014700002000000000000006000000000000000639000000000000329802018082000000010000000000000BRBBASACNOR3269
012018080182BBAST20     080BBASE       ON      NM000R$  000000000012800000000001280000000000123000000000012600000000001230000000000000000000000000000002000000000000003000000000000000379000000000000332302018082000000010000000000000BRBBASACNOR3269
012018080182BBAST245    080BBASE       ON      NM000R$  000000000000200000000000020000000000002000000000000200000000000020000000000001000000000000600006000000000000053000000000000000106000000000000244802018082000000010000000000000BRBBASACNOR3276
012018080182BBAST257    080BBASE       ON      NM000R$  000000000000800000000000080000000000008000000000000800000000000080000000000001000000000000900001000000000000000500000000000000004000000000000254802018082000000010000000000000BRBBASACNOR3275
012018080182BBAST272    080BBASE       ON      NM000R$  000000000000400000000000040000000000004000000000000400000000000040000000000000000000000000900001000000000000002100000000000000008400000000000269802018082000000010000000000000BRBBASACNOR3275
012018080182BBAST279    080BBASE       ON      NM000R$  000000000000800000000000080000000000008000000000000800000000000080000000000000000000000001700001000000000000001000000000000000008000000000000277302018082000000010000000000000BRBBASACNOR3275
012018080182BBAST289    080BBASE       ON      NM000R$  000000000001800000000000180000000000015000000000001500000000000150000000000001000000000001500002000000000000002900000000000000046200000000000287302018082000000010000000000000BRBBASACNOR3275
012018080182BBAST293    080BBASE       ON      NM000R$  000000000001700000000000170000000000013000000000001400000000000170000000000012000000000001700005000000000000058200000000000000845800000000000292302018082000000010000000000000BRBBASACNOR3276
012018080182BBAST300    080BBASE       ON      NM000R$  000000000003000000000000300000000000030000000000003000000000000300000000000001000000000003200001000000000000000700000000000000021000000000000299802018082000000010000000000000BRBBASACNOR3276
012018080182BBAST303    080BBASE       ON      NM000R$  000000000002600000000000260000000000026000000000002600000000000260000000000010000000000003000002000000000000010000000000000000260000000000000302302018082000000010000000000000BRBBASACNOR3277
012018080182BBAST304    080BBASE       ON      NM000R$  000000000004500000000000450000000000027000000000003100000000000270000000000000000000000006200008000000000000007300000000000000231400000000000304802018082000000010000000000000BRBBASACNOR3277
012018080182BBAST308    080BBASE       ON      NM000R$  000000000005300000000000530000000000033000000000003500000000000350000000000000000000000000000006000000000000002600000000000000093300000000000307302018082000000010000000000000BRBBASACNOR3276
012018080182BBAST314    080BBASE       ON      NM000R$  000000000005200000000000520000000000050000000000005100000000000500000000000000000000000012000003000000000000010500000000000000545000000000000312302018082000000010000000000000BRBBASACNOR3275
012018080182BBAST315    080BBASE  FM   ON      NM000R$  000000000004900000000000550000000000037000000000004100000000000370000000000010000000000008700017000000000000141400000000000005861500000000000309802018082000000010000000000000BRBBASACNOR3273
012018080182BBAST319    080BBASE       ON      NM000R$  000000000006400000000000650000000000053000000000005900000000000530000000000000000000000000000093000000000000132800000000000007926400000000000317302018082000000010000000000000BRBBASACNOR3275
012018080182BBAST320    080BBASE  FM   ON      NM000R$  000000000007400000000000740000000000061000000000006900000000000620000000000000000000000013000038000000000000185000000000000012940600000000000319802018082000000010000000000000BRBBASACNOR3276
012018080182BBAST339    080BBASE       ON      NM000R$  000000000015400000000001540000000000141000000000014600000000001450000000000000000000000000000009000000000000044500000000000006540000000000000337302018082000000010000000000000BRBBASACNOR3275
012018080182BBAST342    080BBASE  FM   ON      NM000R$  000000000017300000000001760000000000152000000000016400000000001630000000000000000000000000000015000000000000040300000000000006641900000000000339802018082000000010000000000000BRBBASACNOR3275
012018080182BBAST78     080BBASE       ON      NM000R$  000000000001000000000000100000000000010000000000001000000000000100000000000000000000000002000001000000000000001000000000000000010000000000000282302018082000000010000000000000BRBBASACNOR3272
012018080182BBASU299    080BBASE       ON      NM000R$  000000000007400000000000740000000000074000000000007400000000000740000000000000000000000000000001000000000000002000000000000000148000000000000299002018091700000010000000000000BRBBASACNOR3277
012018080182BBASU30     080BBASE       ON      NM000R$  000000000009500000000000950000000000095000000000009500000000000950000000000000000000000000000001000000000000000100000000000000009500000000000306502018091700000010000000000000BRBBASACNOR3277
012018080182BBASU306    080BBASE       ON      NM000R$  000000000009400000000000940000000000094000000000009400000000000940000000000000000000000000000001000000000000000500000000000000047000000000000304002018091700000010000000000000BRBBASACNOR3275
012018080182BBASU311    080BBASE  FM   ON      NM000R$  000000000012900000000001290000000000107000000000011000000000001070000000000000000000000028000002000000000000001200000000000000132800000000000309002018091700000010000000000000BRBBASACNOR3275
012018080182BBASU324    080BBASE       ON      NM000R$  000000000015500000000001550000000000155000000000015500000000001550000000000000000000000000000001000000000000001000000000000000155000000000000321502018091700000010000000000000BRBBASACNOR3275
012018080182BBASU329    080BBASE  FM   ON      NM000R$  000000000018500000000001850000000000185000000000018500000000001850000000000000000000000000000001000000000000000200000000000000037000000000000329002018091700000010000000000000BRBBASACNOR3276
012018080182BBASU341    080BBASE  FM   ON      NM000R$  000000000025000000000002500000000000250000000000025000000000002500000000000000000000000000000001000000000000000100000000000000025000000000000339002018091700000010000000000000BRBBASACNOR3275
012018080102BBDC3       010BRADESCO    ON      N1   R$  000000000276000000000028390000000002757000000000280700000000028300000000002792000000000283005265000000000001807400000000005074216300000000000000009999123100000010000000000000BRBBDCACNOR1682
012018080196BBDC3F      020BRADESCO    ON      N1   R$  000000000278800000000028350000000002755000000000280100000000028250000000002782000000000282500101000000000000002225000000000006233029000000000000009999123100000010000000000000BRBBDCACNOR1682
012018080162BBDC3T      030BRADESCO    ON      N1030R$  000000000283900000000028400000000002839000000000283900000000028400000000000000000000000000000002000000000000014000000000000039750711000000000000009999123100000010000000000000BRBBDCACNOR1682
012018080162BBDC3T      030BRADESCO    ON      N1061R$  000000000282200000000028230000000002822000000000282200000000028230000000000000000000000000000002000000000000002000000000000005644307000000000000009999123100000010000000000000BRBBDCACNOR1682
012018080102BBDC4       010BRADESCO    PN      N1   R$  000000000302400000000031170000000003020000000000308200000000030930000000003093000000000309419982000000000011616000000000035806502900000000000000009999123100000010000000000000BRBBDCACNPR8682
012018080196BBDC4F      020BRADESCO    PN      N1   R$  000000000303100000000031150000000003022000000000308000000000031140000000003080000000000311400358000000000000006981000000000021503534000000000000009999123100000010000000000000BRBBDCACNPR8682
012018080162BBDC4T      030BRADESCO    PN      N1061R$  000000000311100000000031120000000003111000000000311100000000031120000000000000000000000000000002000000000000180000000000000560036065000000000000009999123100000010000000000000BRBBDCACNPR8682
012018080178BBDCH281    070BBDC        PN      N1000R$  000000000031800000000003180000000000308000000000031300000000003080000000000000000000000000000004000000000000004100000000000001283800000000000279202018082000000010000000000000BRBBDCACNPR8680
012018080178BBDCH303    070BBDC        PN      N1000R$  000000000010700000000001400000000000105000000000012700000000001220000000000010000000000014000008000000000000007000000000000000895000000000000301902018082000000010000000000000BRBBDCACNPR8679
012018080178BBDCH313    070BBDC        PN      N1000R$  000000000007000000000000850000000000070000000000007600000000000700000000000071000000000009000007000000000000007300000000000000562000000000000311002018082000000010000000000000BRBBDCACNPR8679
012018080178BBDCH322    070BBDC  FM    PN      N1000R$  000000000003400000000000500000000000034000000000004100000000000380000000000031000000000005400014000000000000016800000000000000694900000000000320102018082000000010000000000000BRBBDCACNPR8679
012018080178BBDCH327    070BBDC  FM    PN      N1000R$  000000000003000000000000300000000000030000000000003000000000000300000000000000000000000000000002000000000000002000000000000000060000000000000325102018082000000010000000000000BRBBDCACNPR8679
012018080178BBDCH332    070BBDC        PN      N1000R$  000000000002900000000000290000000000029000000000002900000000000290000000000008000000000002600001000000000000000100000000000000002900000000000330102018082000000010000000000000BRBBDCACNPR8679
012018080178BBDCH340    070BBDC  FM    PN      N1000R$  000000000001000000000000100000000000010000000000001000000000000100000000000000000000000001400001000000000000001000000000000000010000000000000338302018082000000010000000000000BRBBDCACNPR8679
012018080178BBDCH6      070BBDCE       PN      N1000R$  000000000004800000000000580000000000048000000000005300000000000580000000000000000000000007600002000000000000002000000000000000106000000000000313502018082000000010000000000000BRBBDCACNPR8680
012018080178BBDCH61     070BBDC  FM    PN      N1000R$  000000000008200000000001120000000000082000000000009700000000001070000000000087000000000013500014000000000000005550000000000000540950000000000306202018082000000010000000000000BRBBDCACNPR8668
012018080178BBDCH73     070BBDCE       PN      N1000R$  000000000021100000000002110000000000211000000000021100000000002110000000000000000000000000000001000000000000001560000000000000329160000000000290302018082000000010000000000000BRBBDCACNPR8667
012018080178BBDCH84     070BBDCE       PN      N1000R$  000000000016000000000001600000000000160000000000016000000000001600000000000105000000000000000001000000000000018000000000000002880000000000000299402018082000000010000000000000BRBBDCACNPR8667
012018080178BBDCH91     070BBDC  FM    PN      N1000R$  000000000013800000000001630000000000138000000000015100000000001580000000000000000000000028900008000000000000013040000000000001979640000000000297102018082000000010000000000000BRBBDCACNPR8667
012018080178BBDCH97     070BBDCE       PN      N1000R$  000000000005500000000000550000000000043000000000004900000000000430000000000000000000000006100003000000000000006600000000000000325800000000000317602018082000000010000000000000BRBBDCACNPR8668
012018080178BBDCI25     070BBDCE       PN      N1000R$  000000000014400000000001440000000000144000000000014400000000001440000000000000000000000000000001000000000000001400000000000000201600000000000311602018091700000010000000000000BRBBDCACNPR8668
012018080178BBDCI304    070BBDC        PN      N1000R$  000000000018100000000001810000000000181000000000018100000000001810000000000000000000000000000001000000000000002600000000000000470600000000000304102018091700000010000000000000BRBBDCACNPR8682
012018080178BBDCI307    070BBDC  FM    PN      N1000R$  000000000018000000000001800000000000180000000000018000000000001800000000000000000000000023300003000000000000018000000000000003240000000000000305502018091700000010000000000000BRBBDCACNPR8680
012018080178BBDCI309    070BBDCE       PN      N1000R$  000000000015500000000001650000000000155000000000015800000000001650000000000000000000000000000003000000000000001200000000000000190000000000000308002018091700000010000000000000BRBBDCACNPR8680
012018080178BBDCI332    070BBDC  FM    PN      N1000R$  000000000006000000000000600000000000060000000000006000000000000600000000000000000000000006800001000000000000001500000000000000090000000000000332302018091700000010000000000000BRBBDCACNPR8682
012018080178BBDCI334    070BBDCE       PN      N1000R$  000000000005500000000000550000000000055000000000005500000000000550000000000000000000000000000002000000000000001000000000000000055000000000000334802018091700000010000000000000BRBBDCACNPR8682
012018080178BBDCI343    070BBDCE       PN      N1000R$  000000000003500000000000350000000000035000000000003500000000000350000000000035000000000000000001000000000000000100000000000000003500000000000343902018091700000010000000000000BRBBDCACNPR8682
012018080178BBDCI6      070BBDC  FM    PN      N1000R$  000000000010300000000001030000000000103000000000010300000000001030000000000000000000000000000001000000000000000100000000000000010300000000000323002018091700000010000000000000BRBBDCACNPR8670
012018080178BBDCI96     070BBDCE       PN      N1000R$  000000000010400000000001040000000000104000000000010400000000001040000000000000000000000000000001000000000000005000000000000000520000000000000320702018091700000010000000000000BRBBDCACNPR8669
012018080178BBDCJ40     070BBDCE       PN      N1000R$  000000000010100000000001010000000000093000000000009700000000000930000000000000000000000000000002000000000000000200000000000000019400000000000342602018101500000010000000000000BRBBDCACNPR8669
012018080182BBDCT23     080BBDCE       PN      N1000R$  000000000001900000000000190000000000019000000000001900000000000190000000000000000000000001900001000000000000001000000000000000019000000000000283502018082000000010000000000000BRBBDCACNPR8668
012018080182BBDCT281    080BBDCE       PN      N1000R$  000000000000800000000000080000000000008000000000000800000000000080000000000007000000000001600001000000000000001000000000000000008000000000000279202018082000000010000000000000BRBBDCACNPR8680
012018080182BBDCT303    080BBDCE       PN      N1000R$  000000000005800000000000580000000000052000000000005600000000000520000000000000000000000000000003000000000000003000000000000000168000000000000301902018082000000010000000000000BRBBDCACNPR8679
012018080182BBDCT6      080BBDCE       PN      N1000R$  000000000009000000000000900000000000090000000000009000000000000900000000000000000000000011500002000000000000002000000000000000180000000000000313502018082000000010000000000000BRBBDCACNPR8680
012018080182BBDCT61     080BBDCE       PN      N1000R$  000000000007200000000000750000000000063000000000006600000000000630000000000000000000000006300010000000000000008300000000000000551500000000000306202018082000000010000000000000BRBBDCACNPR8668
012018080182BBDCT73     080BBDCE       PN      N1000R$  000000000003700000000000370000000000037000000000003700000000000370000000000001000000000003700001000000000000005000000000000000185000000000000290302018082000000010000000000000BRBBDCACNPR8667
012018080182BBDCT84     080BBDCE  FM   PN      N1000R$  000000000005600000000000560000000000033000000000003400000000000420000000000000000000000004500017000000000000092900000000000003222760000000000299402018082000000010000000000000BRBBDCACNPR8667
012018080182BBDCT92     080BBDCE       PN      N1000R$  000000000000100000000000010000000000001000000000000100000000000010000000000001000000000000200011000000000000111010000000000000111010000000000231202018082000000010000000000000BRBBDCACNPR8667
012018080182BBDCT96     080BBDCE  FM   PN      N1000R$  000000000007500000000000790000000000067000000000007300000000000730000000000065000000000007300008000000000000011720000000000000861860000000000308502018082000000010000000000000BRBBDCACNPR8667
012018080182BBDCT97     080BBDCE  FM   PN      N1000R$  000000000012200000000001220000000000122000000000012200000000001220000000000000000000000000000001000000000000003590000000000000437980000000000317602018082000000010000000000000BRBBDCACNPR8668
012018080182BBDCU260    080BBDCE       PN      N1000R$  000000000002100000000000270000000000015000000000001500000000000150000000000016000000000002300033000000000000057500000000000000916700000000000258502018091700000010000000000000BRBBDCACNPR8680
012018080112BBFI11B     010FII BB PROGRCI  ER  MB   R$  000000020500000000002069990000000199994000000020234500000002030000000000201200000000020300000081000000000000000249000000000050384147000000000000009999123100000010000000000000BRBBFICTF006257
012018080112BBPO11      010FII BB PRGIICI  ER       R$  000000001310000000000131010000000012850000000001296600000000128500000000012850000000001292500653000000000000021798000000000282651685000000000000009999123100000010000000000000BRBBPOCTF003169
012018080112BBRC11      010FII BB CORP CI  ER       R$  000000001380000000000143700000000013800000000001394900000000138500000000013850000000001405000022000000000000000227000000000003166621000000000000009999123100000010000000000000BRBBRCCTF004183
012018080102BBRK3       010BR BROKERS  ON      NM   R$  000000000003200000000000340000000000031000000000003200000000000320000000000031000000000003201099000000000004673500000000000151535200000000000000009999123100000010000000000000BRBBRKACNOR4112
012018080196BBRK3F      020BR BROKERS  ON      NM   R$  000000000003500000000000360000000000034000000000003400000000000350000000000032000000000003600005000000000000000159000000000000005516000000000000009999123100000010000000000000BRBBRKACNOR4112
012018080162BBRK3T      030BR BROKERS  ON      NM090R$  000000000003200000000000330000000000032000000000003200000000000330000000000000000000000000000004000000000000020000000000000000650176000000000000009999123100000010000000000000BRBBRKACNOR4112
012018080114BBSD11      010BB ETF SP DVCI           R$  000000000576400000000057770000000005743000000000576000000000057430000000005700000000000693400007000000000000000200000000000001152070000000000000009999123100000010000000000000BRBBSDCTF000100
012018080102BBSE3       010BBSEGURIDADEON      NM   R$  000000000245000000000024990000000002442000000000246800000000024840000000002480000000000248413236000000000003760000000000009282740800000000000000009999123100000010000000000000BRBBSEACNOR5110
012018080196BBSE3F      020BBSEGURIDADEON      NM   R$  000000000246000000000024950000000002447000000000246900000000024950000000002475000000000249500269000000000000006207000000000015330511000000000000009999123100000010000000000000BRBBSEACNOR5110
012018080162BBSE3T      030BBSEGURIDADEON      NM016R$  000000000250200000000025030000000002502000000000250200000000025030000000000000000000000000000002000000000000000400000000000001000887000000000000009999123100000010000000000000BRBBSEACNOR5110
012018080162BBSE3T      030BBSEGURIDADEON      NM030R$  000000000247400000000024930000000002474000000000249100000000024930000000000000000000000000000004000000000000002100000000000005233187000000000000009999123100000010000000000000BRBBSEACNOR5110
012018080178BBSEH24     070BBSE        ON      NM000R$  000000000009500000000000950000000000095000000000009500000000000950000000000060000000000000000001000000000000000200000000000000019000000000000242602018082000000010000000000000BRBBSEACNOR5110
012018080178BBSEH26     070BBSE        ON      NM000R$  000000000001900000000000190000000000013000000000001500000000000150000000000013000000000000000003000000000000013000000000000000198000000000000262602018082000000010000000000000BRBBSEACNOR5110
012018080178BBSEH55     070BBSE  FM    ON      NM000R$  000000000002500000000000280000000000025000000000002700000000000280000000000001000000000005000011000000000000013400000000000000365700000000000257602018082000000010000000000000BRBBSEACNOR5110
012018080178BBSEH56     070BBSE  FM    ON      NM000R$  000000000001200000000000120000000000009000000000001100000000000120000000000001000000000001400004000000000000035600000000000000422700000000000267602018082000000010000000000000BRBBSEACNOR5110
012018080178BBSEH57     070BBSE  FM    ON      NM000R$  000000000000500000000000070000000000004000000000000600000000000040000000000004000000000002400009000000000000003600000000000000023700000000000277602018082000000010000000000000BRBBSEACNOR5110
012018080178BBSEH67     070BBSE        ON      NM000R$  000000000004300000000000430000000000043000000000004300000000000430000000000000000000000000000001000000000000001000000000000000043000000000000252602018082000000010000000000000BRBBSEACNOR5108
012018080178BBSEI245    070BBSE  FM    ON      NM000R$  000000000010700000000001070000000000107000000000010700000000001070000000000110000000000000000001000000000000000200000000000000021400000000000245502018091700000010000000000000BRBBSEACNOR5110
012018080178BBSEI26     070BBSE        ON      NM000R$  000000000004500000000000470000000000045000000000004600000000000470000000000000000000000000000002000000000000004100000000000000192500000000000260502018091700000010000000000000BRBBSEACNOR5110
012018080182BBSET53     080BBSEE  FM   ON      NM000R$  000000000003300000000000330000000000033000000000003300000000000330000000000000000000000000000001000000000000001000000000000000033000000000000237602018082000000010000000000000BRBBSEACNOR5110
012018080182BBSET54     080BBSEE  FM   ON      NM000R$  000000000006800000000000680000000000062000000000006200000000000620000000000000000000000000000002000000000000003100000000000000192800000000000247602018082000000010000000000000BRBBSEACNOR5110
012018080182BBSET67     080BBSEE       ON      NM000R$  000000000009000000000000900000000000090000000000009000000000000900000000000008000000000000000001000000000000002000000000000000180000000000000252602018082000000010000000000000BRBBSEACNOR5108
012018080182BBSEU24     080BBSEE       ON      NM000R$  000000000005700000000000570000000000057000000000005700000000000570000000000000000000000000000001000000000000000100000000000000005700000000000240502018091700000010000000000000BRBBSEACNOR5110
012018080182BBSEV54     080BBSEE       ON      NM000R$  000000000009800000000000980000000000098000000000009800000000000980000000000000000000000000000001000000000000002000000000000000196000000000000245502018101500000010000000000000BRBBSEACNOR5110
012018080112BBVJ11      010FII C JARDIMCI  ER       R$  000000000449700000000046000000000004416000000000451000000000046000000000004521000000000460000020000000000000000535000000000002412955000000000000009999123100000010000000000000BRBBVJCTF001187
012018080102BBYY34      010BEST BUY    DRN          R$  000000002817600000000281760000000028176000000002817600000000281760000000000000000000000000000001000000000000002600000000000073257600000000000000009999123100000010000000000000BRBBYYBDR005108
012018080196BBYY34F     020BEST BUY    DRN          R$  000000002817600000000281850000000028176000000002817900000000281850000000000000000000000000000002000000000000000156000000000004396032000000000000009999123100000010000000000000BRBBYYBDR005108
012018080112BCFF11      010FII BC FFII CI           R$  000000000770000000000077650000000007657000000000772600000000077650000000007764000000000776500196000000000000006572000000000050781795000000000000009999123100000010000000000000BRBCFFCTF000202
012018080112BCIA11      010FII BCIA    CI  ER       R$  000000001119700000000111990000000011195000000001119600000000111990000000010800000000001119900014000000000000000084000000000000940486000000000000009999123100000010000000000000BRBCIACTF005139
012018080112BCRI11      010FII BEES CRICI  ER       R$  000000001049500000000105290000000010440000000001047000000000104400000000010440000000001046000046000000000000000699000000000007319184000000000000009999123100000010000000000000BRBCRICTF009139
012018080196BDLL4F      020BARDELLA    PN           R$  000000000190000000000019000000000001900000000000190000000000019000000000001400000000000274900001000000000000000001000000000000001900000000000000009999123100000010000000000000BRBDLLACNPR8151
012018080102BEEF3       010MINERVA     ON      NM   R$  000000000075400000000007640000000000737000000000075300000000007510000000000751000000000075304126000000000003929200000000002961362600000000000000009999123100000010000000000000BRBEEFACNOR6107
012018080196BEEF3F      020MINERVA     ON      NM   R$  000000000075600000000007630000000000741000000000075300000000007580000000000754000000000075800064000000000000002013000000000001516862000000000000009999123100000010000000000000BRBEEFACNOR6107
012018080162BEEF3T      030MINERVA     ON      NM120R$  000000000077500000000007760000000000775000000000077500000000007760000000000000000000000000000002000000000000001500000000000001162555000000000000009999123100000010000000000000BRBEEFACNOR6107
012018080102BEES3       010BANESTES    ON  EJ       R$  000000000036900000000003690000000000355000000000035600000000003590000000000355000000000035900029000000000000009900000000000003534000000000000000009999123100000010000000000000BRBEESACNOR9313
012018080102BEES4       010BANESTES    PN  EJ       R$  000000000036000000000003600000000000360000000000036000000000003600000000000356000000000036000001000000000000000400000000000000144000000000000000009999123100000010000000000000BRBEESACNPR6238
012018080196BERK34F     020BERKSHIRE   DRN          R$  000000007430000000000743000000000074300000000007430000000000743000000000074300000000000000000002000000000000000026000000000001931800000000000000009999123100000010000000000000BRBERKBDR002100
012018080102BGIP4       010BANESE      PN           R$  000000000381600000000039890000000003770000000000383300000000039890000000003510000000000399000012000000000000001700000000000006516700000000000000009999123100000010000000000000BRBGIPACNPR8195
012018080196BGIP4F      020BANESE      PN           R$  000000000400100000000040010000000004001000000000400100000000040010000000003210000000000499900001000000000000000005000000000000020005000000000000009999123100000010000000000000BRBGIPACNPR8195
012018080102BIDI4       010BANCO INTER PN      N1   R$  000000000174000000000018000000000001707000000000173500000000017150000000001713000000000171501213000000000000221900000000000385146300000000000000009999123100000010000000000000BRBIDIACNPR0101
012018080196BIDI4F      020BANCO INTER PN      N1   R$  000000000170500000000017890000000001701000000000173500000000017150000000001714000000000171500090000000000000002143000000000003718242000000000000009999123100000010000000000000BRBIDIACNPR0101
012018080102BIOM3       010BIOMM       ON      MA   R$  000000000081200000000008560000000000812000000000083000000000008160000000000816000000000083600096000000000000018000000000000014945900000000000000009999123100000010000000000000BRBIOMACNOR2106
012018080196BIOM3F      020BIOMM       ON      MA   R$  000000000081700000000008170000000000817000000000081700000000008170000000000817000000000088000001000000000000000009000000000000007353000000000000009999123100000010000000000000BRBIOMACNOR2106
012018080102BKBR3       010BK BRASIL   ON      NM   R$  000000000145100000000014710000000001436000000000145300000000014630000000001463000000000146600720000000000000279900000000000406747200000000000000009999123100000010000000000000BRBKBRACNOR4100
012018080196BKBR3F      020BK BRASIL   ON      NM   R$  000000000143600000000014750000000001436000000000144800000000014750000000001442000000000147500006000000000000000173000000000000250585000000000000009999123100000010000000000000BRBKBRACNOR4100
012018080102BMEB4       010MERC BRASIL PN           R$  000000000056000000000005750000000000560000000000057000000000005630000000000562000000000057500013000000000000004400000000000002509900000000000000009999123100000010000000000000BRBMEBACNPR5199
012018080196BMIN4F      020MERC INVEST PN           R$  000000000110200000000011020000000001102000000000110200000000011020000000001100000000000111000001000000000000000009000000000000009918000000000000009999123100000010000000000000BRBMINACNPR1169
012018080196BNBR3F      020NORD BRASIL ON           R$  000000000361000000000036100000000003610000000000361000000000036100000000003610000000000377900001000000000000000010000000000000036100000000000000009999123100000010000000000000BRBNBRACNOR8196
012018080102BOAC34      010BANK AMERICADRN          R$  000000001179100000000118200000000011715000000001178800000000118200000000000000000000001182000004000000000000007900000000000093125600000000000000009999123100000010000000000000BRBOACBDR004131
012018080196BOAC34F     020BANK AMERICADRN          R$  000000001179100000000117910000000011715000000001172100000000117150000000000000000000000000000002000000000000000061000000000000714995000000000000009999123100000010000000000000BRBOACBDR004131
012018080102BOBR4       010BOMBRIL     PN           R$  000000000033500000000003360000000000323000000000033300000000003250000000000322000000000032500135000000000000140800000000000047016400000000000000009999123100000010000000000000BRBOBRACNPR3128
012018080196BOBR4F      020BOMBRIL     PN           R$  000000000032800000000003280000000000328000000000032800000000003280000000000325000000000034700001000000000000000060000000000000019680000000000000009999123100000010000000000000BRBOBRACNPR3128
012018080114BOVA11      010ISHARES BOVACI           R$  000000000760100000000076960000000007600000000000764500000000076460000000007646000000000764813702000000000001698780000000012987380700000000000000009999123100000010000000000000BRBOVACTF003103
012018080196BOVA11F     020ISHARES BOVACI           R$  000000000762000000000078430000000007600000000000764100000000076600000000007813000000000784300031000000000000000095000000000000725934000000000000009999123100000010000000000000BRBOVACTF003103
012018080178BOVAH70     070BOVA        CI        000R$  000000000067700000000006770000000000677000000000067700000000006770000000000000000000000000000001000000000000002000000000000001354000000000000700002018082000000010000000000000BRBOVACTF003103
012018080178BOVAH74     070BOVA        CI        000R$  000000000030900000000003090000000000309000000000030900000000003090000000000000000000000000000001000000000000000150000000000000046350000000000740002018082000000010000000000000BRBOVACTF003103
012018080178BOVAH75     070BOVA        CI        000R$  000000000024500000000002450000000000241000000000024300000000002410000000000231000000000000000002000000000000000200000000000000048600000000000750002018082000000010000000000000BRBOVACTF003103
012018080178BOVAH76     070BOVA  FM    CI        000R$  000000000018300000000001830000000000165000000000017500000000001780000000000090000000000019900004000000000000003800000000000000668400000000000760002018082000000010000000000000BRBOVACTF003103
012018080178BOVAH77     070BOVA  FM    CI        000R$  000000000012500000000001410000000000125000000000012500000000001290000000000000000000000013400007000000000000020400000000000002570300000000000770002018082000000010000000000000BRBOVACTF003103
012018080178BOVAH78     070BOVA  FM    CI        000R$  000000000009200000000000950000000000088000000000008800000000000880000000000000000000000009500006000000000000016600000000000001463500000000000780002018082000000010000000000000BRBOVACTF003103
012018080178BOVAH79     070BOVA  FM    CI        000R$  000000000005100000000000550000000000050000000000005400000000000550000000000000000000000006500003000000000000002530000000000000136680000000000790002018082000000010000000000000BRBOVACTF003103
012018080178BOVAH80     070BOVA  FM    CI        000R$  000000000003500000000000350000000000025000000000003100000000000320000000000001000000000000000004000000000000001450000000000000046050000000000800002018082000000010000000000000BRBOVACTF003103
012018080178BOVAI78     070BOVA  FM    CI        000R$  000000000019900000000001990000000000199000000000019900000000001990000000000000000000000000000001000000000000002000000000000000398000000000000780002018091700000010000000000000BRBOVACTF003103
012018080178BOVAI79     070BOVA  FM    CI        000R$  000000000016900000000001740000000000169000000000017000000000001740000000000000000000000016600002000000000000000300000000000000051200000000000790002018091700000010000000000000BRBOVACTF003103
012018080178BOVAI80     070BOVA  FM    CI        000R$  000000000012500000000001250000000000123000000000012400000000001230000000000000000000000000000002000000000000004130000000000000516050000000000800002018091700000010000000000000BRBOVACTF003103
012018080178BOVAI84     070BOVA        CI        000R$  000000000006800000000000680000000000068000000000006800000000000680000000000000000000000000000001000000000000004030000000000000274040000000000840002018091700000010000000000000BRBOVACTF003103
012018080178BOVAL90     070BOVA        CI        000R$  000000000010800000000001330000000000108000000000011800000000001290000000000111000000000012900039000000000000049990000000000005945380000000000900002018121700000010000000000000BRBOVACTF003103
012018080182BOVAT70     080BOVAE       CI        000R$  000000000001400000000000140000000000010000000000001200000000000100000000000000000000000012000002000000000000001400000000000000018000000000000700002018082000000010000000000000BRBOVACTF003103
012018080182BOVAT73     080BOVAE       CI        000R$  000000000002800000000000280000000000028000000000002800000000000280000000000000000000000000000001000000000000001000000000000000028000000000000730002018082000000010000000000000BRBOVACTF003103
012018080182BOVAT74     080BOVAE       CI        000R$  000000000006500000000000650000000000047000000000005800000000000520000000000039000000000012000003000000000000002400000000000000140500000000000740002018082000000010000000000000BRBOVACTF003103
012018080182BOVAT75     080BOVAE  FM   CI        000R$  000000000008000000000000800000000000068000000000007300000000000700000000000000000000000000000005000000000000036900000000000002716000000000000750002018082000000010000000000000BRBOVACTF003103
012018080182BOVAT76     080BOVAE  FM   CI        000R$  000000000011700000000001170000000000109000000000010900000000001090000000000000000000000000000002000000000000002200000000000000240600000000000760002018082000000010000000000000BRBOVACTF003103
012018080182BOVAT77     080BOVAE  FM   CI        000R$  000000000016000000000001600000000000142000000000015800000000001600000000000143000000000000000006000000000000002400000000000000380100000000000770002018082000000010000000000000BRBOVACTF003103
012018080182BOVAT78     080BOVAE  FM   CI        000R$  000000000019300000000001950000000000193000000000019300000000001950000000000000000000000000000003000000000000000500000000000000096700000000000780002018082000000010000000000000BRBOVACTF003103
012018080182BOVAU64     080BOVAE       CI        000R$  000000000000500000000000050000000000005000000000000500000000000050000000000000000000000000000001000000000000004030000000000000020150000000000640002018091700000010000000000000BRBOVACTF003103
012018080182BOVAU70     080BOVAE       CI        000R$  000000000005900000000000590000000000059000000000005900000000000590000000000000000000000000000001000000000000000300000000000000017700000000000700002018091700000010000000000000BRBOVACTF003103
012018080182BOVAU72     080BOVAE       CI        000R$  000000000009000000000000900000000000090000000000009000000000000900000000000000000000000000000001000000000000004030000000000000362700000000000720002018091700000010000000000000BRBOVACTF003103
012018080182BOVAU73     080BOVAE       CI        000R$  000000000012000000000001200000000000120000000000012000000000001200000000000000000000000000000001000000000000000500000000000000060000000000000730002018091700000010000000000000BRBOVACTF003103
012018080182BOVAU75     080BOVAE  FM   CI        000R$  000000000016500000000001690000000000165000000000016700000000001690000000000000000000000018900003000000000000000300000000000000050100000000000750002018091700000010000000000000BRBOVACTF003103
012018080182BOVAU76     080BOVAE  FM   CI        000R$  000000000021900000000002190000000000210000000000021400000000002100000000000000000000000000000002000000000000002100000000000000450900000000000760002018091700000010000000000000BRBOVACTF003103
012018080182BOVAX70     080BOVAE       CI        000R$  000000000030000000000003000000000000300000000000030000000000003000000000000150000000000029700011000000000000014500000000000004350000000000000700002018121700000010000000000000BRBOVACTF003103
012018080182BOVAX72     080BOVAE       CI        000R$  000000000030000000000003000000000000299000000000029900000000002990000000000000000000000000000004000000000000002500000000000000748500000000000720002018121700000010000000000000BRBOVACTF003103
012018080114BOVV11      010IT NOW IBOV CI           R$  000000000791100000000079820000000007909000000000795600000000079560000000007410000000000795600026000000000000047420000000000377303420000000000000009999123100000010000000000000BRBOVVCTF009100
012018080196BOVV11F     020IT NOW IBOV CI           R$  000000000796000000000079600000000007960000000000796000000000079600000000000000000000000794000002000000000000000006000000000000047760000000000000009999123100000010000000000000BRBOVVCTF009100
012018080182BOVVX70     080BOVVE       CI        000R$  000000000030000000000003100000000000300000000000030300000000003000000000000290000000000030000007000000000000001200000000000000364000000000000700002018121700000010000000000000BRBOVVCTF009100
012018080102BPAC11      010BTGP BANCO  UNT          R$  000000000196300000000019950000000001930000000000195800000000019500000000001949000000000195000988000000000000575900000000001127972500000000000000009999123100000010000000000000BRBPACUNT006102
012018080196BPAC11F     020BTGP BANCO  UNT          R$  000000000198000000000019800000000001912000000000194600000000019540000000001950000000000201000012000000000000000174000000000000338609000000000000009999123100000010000000000000BRBPACUNT006102
012018080102BPAN4       010BANCO PAN   PN      N1   R$  000000000017100000000001730000000000170000000000017100000000001730000000000171000000000017300054000000000000128400000000000021961100000000000000009999123100000010000000000000BRBPANACNPR1106
012018080196BPAN4F      020BANCO PAN   PN      N1   R$  000000000017700000000001770000000000170000000000017300000000001700000000000170000000000017300004000000000000000145000000000000025147000000000000009999123100000010000000000000BRBPANACNPR1106
012018080162BPAN4T      030BANCO PAN   PN      N1030R$  000000000017200000000001730000000000172000000000017200000000001730000000000000000000000000000002000000000000050000000000000008604293000000000000009999123100000010000000000000BRBPANACNPR1106
012018080112BPFF11      010FII ABSOLUTOCI  ER       R$  000000000919000000000092010000000009100000000000917000000000091100000000009110000000000920000685000000000000001814000000000016634890000000000000009999123100000010000000000000BRBPFFCTF002165
012018080108BPHA3       010BR PHARMA   ON      NM   R$  000000000016600000000001770000000000165000000000016800000000001700000000000166000000000016900066000000000000053300000000000008954500000000000000009999123100000010000000000000BRBPHAACNOR6105
012018080196BPHA3F      020BR PHARMA   ON      NM   R$  000000000016700000000001670000000000151000000000016400000000001510000000000151000000000017800005000000000000000024000000000000003959000000000000009999123100000010000000000000BRBPHAACNOR6105
012018080102BRAP3       010BRADESPAR   ON      N1   R$  000000000281700000000028170000000002781000000000279800000000027830000000002783000000000279500082000000000000024400000000000068290800000000000000009999123100000010000000000000BRBRAPACNOR5133
012018080196BRAP3F      020BRADESPAR   ON      N1   R$  000000000280300000000028390000000002795000000000280200000000028040000000002781000000000280300006000000000000000096000000000000269087000000000000009999123100000010000000000000BRBRAPACNOR5133
012018080102BRAP4       010BRADESPAR   PN      N1   R$  000000000321400000000032140000000003150000000000317000000000031630000000003157000000000316304794000000000001183400000000003751965300000000000000009999123100000010000000000000BRBRAPACNPR2133
012018080196BRAP4F      020BRADESPAR   PN      N1   R$  000000000320500000000032050000000003082000000000316600000000031680000000003150000000000316800142000000000000001613000000000005108050000000000000009999123100000010000000000000BRBRAPACNPR2133
012018080162BRAP4T      030BRADESPAR   PN      N1030R$  000000000318300000000031840000000003183000000000318300000000031840000000000000000000000000000002000000000000000200000000000000636608000000000000009999123100000010000000000000BRBRAPACNPR2133
012018080162BRAP4T      030BRADESPAR   PN      N1120R$  000000000323300000000032340000000003233000000000323300000000032340000000000000000000000000000002000000000000001000000000000003233752000000000000009999123100000010000000000000BRBRAPACNPR2133
012018080182BRAPT1      080BRAPE  FM   PN      N1000R$  000000000007500000000000780000000000075000000000007600000000000760000000000000000000000000000004000000000000010000000000000000762400000000000317102018082000000010000000000000BRBRAPACNPR2133
012018080182BRAPU31     080BRAPE  FM   PN      N1000R$  000000000009800000000000980000000000098000000000009800000000000980000000000000000000000000000001000000000000000100000000000000009800000000000310002018091700000010000000000000BRBRAPACNPR2133
012018080114BRAX11      010ISHARES BRAXCI           R$  000000000638500000000064300000000006385000000000641600000000064300000000006408000000000643000005000000000000000810000000000005197410000000000000009999123100000010000000000000BRBRAXCTF002100
012018080112BRCR11      010FII BC FUND CI           R$  000000000894300000000089900000000008775000000000886000000000089000000000008835000000000890000511000000000000029879000000000264749496000000000000009999123100000010000000000000BRBRCRCTF000191
012018080102BRDT3       010PETROBRAS BRON  ED  NM   R$  000000000193100000000019710000000001894000000000192000000000019300000000001925000000000193005719000000000002611500000000005016601000000000000000009999123100000010000000000000BRBRDTACNOR1116
012018080196BRDT3F      020PETROBRAS BRON  ED  NM   R$  000000000196800000000019820000000001898000000000192400000000019270000000001896000000000192700095000000000000002627000000000005056213000000000000009999123100000010000000000000BRBRDTACNOR1116
012018080162BRDT3T      030PETROBRAS BRON  ED  NM016R$  000000000191800000000019370000000001918000000000193500000000019370000000000000000000000000000004000000000000027000000000000052260463000000000000009999123100000010000000000000BRBRDTACNOR1116
012018080162BRDT3T      030PETROBRAS BRON  ED  NM030R$  000000000191500000000019340000000001915000000000192500000000019270000000000000000000000000000006000000000000007500000000000014438961000000000000009999123100000010000000000000BRBRDTACNOR1116
012018080162BRDT3T      030PETROBRAS BRON  ED  NM050R$  000000000192600000000019270000000001926000000000192600000000019270000000000000000000000000000002000000000000001500000000000002889701000000000000009999123100000010000000000000BRBRDTACNOR1116
012018080102BRFS3       010BRF SA      ON      NM   R$  000000000228200000000023250000000002259000000000228600000000022680000000002267000000000226811941000000000003631700000000008302854100000000000000009999123100000010000000000000BRBRFSACNOR8118
012018080196BRFS3F      020BRF SA      ON      NM   R$  000000000228000000000023210000000002260000000000228600000000022790000000002264000000000227900225000000000000005292000000000012100773000000000000009999123100000010000000000000BRBRFSACNOR8118
012018080162BRFS3T      030BRF SA      ON      NM016R$  000000000228800000000022900000000002288000000000228900000000022900000000000000000000000000000004000000000000009500000000000021746507000000000000009999123100000010000000000000BRBRFSACNOR8118
012018080162BRFS3T      030BRF SA      ON      NM022R$  000000000229500000000022960000000002295000000000229500000000022960000000000000000000000000000002000000000000003000000000000006885683000000000000009999123100000010000000000000BRBRFSACNOR8118
012018080162BRFS3T      030BRF SA      ON      NM030R$  000000000229400000000023310000000002294000000000230700000000022980000000000000000000000000000014000000000000024700000000000056991047000000000000009999123100000010000000000000BRBRFSACNOR8118
012018080162BRFS3T      030BRF SA      ON      NM061R$  000000000230600000000023320000000002291000000000229700000000022940000000000000000000000000000012000000000000004100000000000009420671000000000000009999123100000010000000000000BRBRFSACNOR8118
012018080162BRFS3T      030BRF SA      ON      NM090R$  000000000231800000000023500000000002318000000000233300000000023210000000000000000000000000000014000000000000012000000000000028002948000000000000009999123100000010000000000000BRBRFSACNOR8118
012018080162BRFS3T      030BRF SA      ON      NM120R$  000000000234400000000023630000000002344000000000235700000000023630000000000000000000000000000004000000000000007000000000000016500308000000000000009999123100000010000000000000BRBRFSACNOR8118
012018080162BRFS3T      030BRF SA      ON      NM154R$  000000000233500000000023360000000002335000000000233500000000023360000000000000000000000000000002000000000000001000000000000002335603000000000000009999123100000010000000000000BRBRFSACNOR8118
012018080162BRFS3T      030BRF SA      ON      NM180R$  000000000238500000000023860000000002363000000000236500000000023640000000000000000000000000000006000000000000020800000000000049211283000000000000009999123100000010000000000000BRBRFSACNOR8118
012018080178BRFSH20     070BRFS        ON      NM000R$  000000000031500000000003230000000000315000000000031800000000003230000000000271000000000033000002000000000000003500000000000001114500000000000200002018082000000010000000000000BRBRFSACNOR8118
012018080178BRFSH22     070BRFS  FM    ON      NM000R$  000000000014800000000001480000000000133000000000014100000000001330000000000010000000000024600008000000000000014200000000000002007300000000000220002018082000000010000000000000BRBRFSACNOR8118
012018080178BRFSH23     070BRFS  FM    ON      NM000R$  000000000008000000000000900000000000080000000000008600000000000840000000000020000000000016900022000000000000067500000000000005871000000000000230002018082000000010000000000000BRBRFSACNOR8118
012018080178BRFSH24     070BRFS  FM    ON      NM000R$  000000000004000000000000590000000000035000000000004800000000000350000000000035000000000004500011000000000000008200000000000000394600000000000240002018082000000010000000000000BRBRFSACNOR8118
012018080178BRFSH247    070BRFSE       ON      NM000R$  000000000001900000000000190000000000019000000000001900000000000190000000000000000000000008000002000000000000015200000000000000288800000000000247502018082000000010000000000000BRBRFSACNOR8118
012018080178BRFSH250    070BRFS  FM    ON      NM000R$  000000000002500000000000250000000000019000000000002200000000000240000000000015000000000002400003000000000000000300000000000000006800000000000250002018082000000010000000000000BRBRFSACNOR8118
012018080178BRFSH257    070BRFSE       ON      NM000R$  000000000001200000000000120000000000012000000000001200000000000120000000000007000000000007300001000000000000002000000000000000024000000000000257502018082000000010000000000000BRBRFSACNOR8118
012018080178BRFSH26     070BRFS  FM    ON      NM000R$  000000000000900000000000110000000000008000000000000900000000000100000000000009000000000001000019000000000000084200000000000000782800000000000260002018082000000010000000000000BRBRFSACNOR8118
012018080178BRFSH27     070BRFS        ON      NM000R$  000000000000400000000000040000000000004000000000000400000000000040000000000003000000000000400002000000000000010000000000000000040000000000000270002018082000000010000000000000BRBRFSACNOR8118
012018080178BRFSH275    070BRFS        ON      NM000R$  000000000000200000000000020000000000002000000000000200000000000020000000000002000000000000500001000000000000010000000000000000020000000000000275002018082000000010000000000000BRBRFSACNOR8118
012018080178BRFSH29     070BRFS        ON      NM000R$  000000000000100000000000010000000000001000000000000100000000000010000000000001000000000000300004000000000000047800000000000000047800000000000290002018082000000010000000000000BRBRFSACNOR8118
012018080178BRFSI227    070BRFSE       ON      NM000R$  000000000015000000000001500000000000125000000000012700000000001250000000000000000000000000000002000000000000001200000000000000152500000000000227502018091700000010000000000000BRBRFSACNOR8118
012018080178BRFSI230    070BRFS  FM    ON      NM000R$  000000000013000000000001300000000000124000000000012400000000001240000000000040000000000025000002000000000000002200000000000000274000000000000230002018091700000010000000000000BRBRFSACNOR8118
012018080178BRFSI24     070BRFS  FM    ON      NM000R$  000000000009000000000000900000000000085000000000008500000000000850000000000078000000000000000002000000000000002200000000000000188000000000000240002018091700000010000000000000BRBRFSACNOR8118
012018080178BRFSI245    070BRFS        ON      NM000R$  000000000007500000000000750000000000070000000000007300000000000700000000000000000000000000000002000000000000003000000000000000220000000000000245002018091700000010000000000000BRBRFSACNOR8118
012018080178BRFSI247    070BRFSE       ON      NM000R$  000000000006000000000000600000000000058000000000005800000000000580000000000000000000000000000003000000000000010800000000000000626800000000000247502018091700000010000000000000BRBRFSACNOR8118
012018080178BRFSI25     070BRFS  FM    ON      NM000R$  000000000006000000000000600000000000056000000000005600000000000560000000000050000000000005800002000000000000003500000000000000198000000000000250002018091700000010000000000000BRBRFSACNOR8118
012018080178BRFSI260    070BRFS  FM    ON      NM000R$  000000000003500000000000350000000000033000000000003400000000000330000000000020000000000004200002000000000000001100000000000000038300000000000260002018091700000010000000000000BRBRFSACNOR8118
012018080178BRFSJ28     070BRFS        ON      NM000R$  000000000005000000000000500000000000045000000000004700000000000450000000000045000000000006000002000000000000000200000000000000009500000000000280002018101500000010000000000000BRBRFSACNOR8118
012018080178BRFSL25     070BRFS        ON      NM000R$  000000000014000000000001500000000000140000000000014300000000001400000000000000000000000000000005000000000000000800000000000000115000000000000250002018121700000010000000000000BRBRFSACNOR8118
012018080178BRFSL275    070BRFS        ON      NM000R$  000000000008000000000000800000000000075000000000007700000000000750000000000000000000000010000002000000000000000400000000000000031000000000000275002018121700000010000000000000BRBRFSACNOR8118
012018080178BRFSL55     070BRFS        ON      NM000R$  000000000013200000000001320000000000132000000000013200000000001320000000000000000000000000000001000000000000500000000000000066000000000000000255002018121700000010000000000000BRBRFSACNOR8118
012018080182BRFST20     080BRFSE       ON      NM000R$  000000000001500000000000150000000000015000000000001500000000000150000000000000000000000010000001000000000000000100000000000000001500000000000200002018082000000010000000000000BRBRFSACNOR8118
012018080182BRFST210    080BRFSE  FM   ON      NM000R$  000000000002000000000000250000000000020000000000002100000000000220000000000000000000000000000005000000000000006600000000000000142500000000000210002018082000000010000000000000BRBRFSACNOR8118
012018080182BRFST22     080BRFSE  FM   ON      NM000R$  000000000004500000000000500000000000045000000000004700000000000490000000000050000000000022000004000000000000008800000000000000415800000000000220002018082000000010000000000000BRBRFSACNOR8118
012018080182BRFST23     080BRFSE  FM   ON      NM000R$  000000000010300000000001030000000000091000000000009600000000000950000000000024000000000000000006000000000000001700000000000000164300000000000230002018082000000010000000000000BRBRFSACNOR8118
012018080182BRFST235    080BRFSE       ON      NM000R$  000000000012300000000001260000000000123000000000012500000000001260000000000000000000000000000002000000000000002000000000000000250800000000000235002018082000000010000000000000BRBRFSACNOR8118
012018080182BRFST250    080BRFSE       ON      NM000R$  000000000022400000000002240000000000218000000000021800000000002180000000000000000000000032500003000000000000002100000000000000458600000000000250002018082000000010000000000000BRBRFSACNOR8118
012018080182BRFST48     080BRFSE       ON      NM000R$  000000000001000000000000100000000000006000000000000800000000000060000000000003000000000002700005000000000000001000000000000000008000000000000185002018082000000010000000000000BRBRFSACNOR8118
012018080182BRFSU21     080BRFSE  FM   ON      NM000R$  000000000004600000000000500000000000046000000000004700000000000500000000000000000000000000000004000000000000006100000000000000289600000000000210002018091700000010000000000000BRBRFSACNOR8118
012018080182BRFSU230    080BRFSE  FM   ON      NM000R$  000000000012500000000001250000000000125000000000012500000000001250000000000000000000000025000001000000000000001600000000000000200000000000000230002018091700000010000000000000BRBRFSACNOR8118
012018080182BRFSX195    080BRFSE       ON      NM000R$  000000000004500000000000450000000000045000000000004500000000000450000000000000000000000000000001000000000000500000000000000022500000000000000195002018121700000010000000000000BRBRFSACNOR8118
012018080182BRFSX227    080BRFSE       ON      NM000R$  000000000017900000000001790000000000179000000000017900000000001790000000000000000000000000000001000000000000500000000000000089500000000000000227502018121700000010000000000000BRBRFSACNOR8118
012018080196BRGE12F     020ALFA CONSORCPNF          R$  000000000027000000000002700000000000270000000000027000000000002700000000000000000000000000000001000000000000000015000000000000004050000000000000009999123100000010000000000000BRBRGEACNPF8095
012018080102BRIN3       010BR INSURANCEON      NM   R$  000000000146500000000014700000000001438000000000145900000000014630000000001458000000000146300027000000000000010400000000000015181900000000000000009999123100000010000000000000BRBRINACNOR3111
012018080162BRIN3T      030BR INSURANCEON      NM061R$  000000000148200000000014830000000001482000000000148200000000014830000000000000000000000000000002000000000000001000000000000001482141000000000000009999123100000010000000000000BRBRINACNOR3111
012018080162BRIN3T      030BR INSURANCEON      NM090R$  000000000148400000000014850000000001484000000000148400000000014850000000000000000000000000000002000000000000001000000000000001484820000000000000009999123100000010000000000000BRBRINACNOR3111
012018080162BRIN3T      030BR INSURANCEON      NM120R$  000000000149400000000014950000000001494000000000149400000000014950000000000000000000000000000002000000000000002000000000000002988324000000000000009999123100000010000000000000BRBRINACNOR3111
012018080102BRIV3       010ALFA INVEST ON           R$  000000000050000000000005000000000000500000000000050000000000005000000000000490000000000052500011000000000000001900000000000000950000000000000000009999123100000010000000000000BRBRIVACNOR6205
012018080102BRIV4       010ALFA INVEST PN           R$  000000000067400000000006740000000000674000000000067400000000006740000000000657000000000067400002000000000000000200000000000000134800000000000000009999123100000010000000000000BRBRIVACNPR3206
012018080102BRKM3       010BRASKEM     ON      N1   R$  000000000534900000000053500000000005160000000000526800000000051600000000005155000000000534200011000000000000001400000000000007375500000000000000009999123100000010000000000000BRBRKMACNOR1116
012018080196BRKM3F      020BRASKEM     ON      N1   R$  000000000500000000000050000000000005000000000000500000000000050000000000005101000000000529800001000000000000000008000000000000040000000000000000009999123100000010000000000000BRBRKMACNOR1116
012018080102BRKM5       010BRASKEM     PNA     N1   R$  000000000547200000000055270000000005437000000000547600000000054910000000005475000000000549206903000000000001279100000000007004686500000000000000009999123100000010000000000000BRBRKMACNPA4116
012018080196BRKM5F      020BRASKEM     PNA     N1   R$  000000000547200000000055070000000005444000000000547100000000054570000000005457000000000547000129000000000000003740000000000020461927000000000000009999123100000010000000000000BRBRKMACNPA4116
012018080162BRKM5T      030BRASKEM     PNA     N1016R$  000000000552600000000055360000000005526000000000553100000000055360000000000000000000000000000004000000000000000600000000000003318651000000000000009999123100000010000000000000BRBRKMACNPA4116
012018080162BRKM5T      030BRASKEM     PNA     N1030R$  000000000550700000000055080000000005507000000000550700000000055080000000000000000000000000000002000000000000000500000000000002753925000000000000009999123100000010000000000000BRBRKMACNPA4116
012018080162BRKM5T      030BRASKEM     PNA     N1061R$  000000000552400000000055250000000005524000000000552400000000055250000000000000000000000000000002000000000000000500000000000002762093000000000000009999123100000010000000000000BRBRKMACNPA4116
012018080178BRKMH51     070BRKM        PNA     N1000R$  000000000045000000000004500000000000450000000000045000000000004500000000000000000000000000000001000000000000000100000000000000045000000000000510002018082000000010000000000000BRBRKMACNPA4116
012018080178BRKMH52     070BRKM        PNA     N1000R$  000000000039000000000003900000000000354000000000037200000000003540000000000100000000000000000002000000000000000200000000000000074400000000000520002018082000000010000000000000BRBRKMACNPA4116
012018080178BRKMH53     070BRKM  FM    PNA     N1000R$  000000000027000000000002740000000000258000000000026200000000002580000000000000000000000000000017000000000000020000000000000005251300000000000530002018082000000010000000000000BRBRKMACNPA4116
012018080178BRKMH54     070BRKM  FM    PNA     N1000R$  000000000021100000000002110000000000210000000000021000000000002100000000000050000000000000000004000000000000005000000000000001051500000000000540002018082000000010000000000000BRBRKMACNPA4116
012018080178BRKMH56     070BRKM  FM    PNA     N1000R$  000000000010900000000001090000000000109000000000010900000000001090000000000000000000000000000001000000000000000100000000000000010900000000000560002018082000000010000000000000BRBRKMACNPA4116
012018080178BRKMH57     070BRKM  FM    PNA     N1000R$  000000000006500000000000660000000000062000000000006300000000000630000000000000000000000008000018000000000000026500000000000001691500000000000570002018082000000010000000000000BRBRKMACNPA4116
012018080178BRKMI53     070BRKM  FM    PNA     N1000R$  000000000039400000000003940000000000394000000000039400000000003940000000000000000000000000000001000000000000000100000000000000039400000000000530002018091700000010000000000000BRBRKMACNPA4116
012018080178BRKMI54     070BRKM  FM    PNA     N1000R$  000000000030900000000003090000000000309000000000030900000000003090000000000000000000000000000001000000000000000100000000000000030900000000000540002018091700000010000000000000BRBRKMACNPA4116
012018080182BRKMT54     080BRKME  FM   PNA     N1000R$  000000000011400000000001140000000000114000000000011400000000001140000000000000000000000000000001000000000000001500000000000000171000000000000540002018082000000010000000000000BRBRKMACNPA4116
012018080182BRKMT55     080BRKME  FM   PNA     N1000R$  000000000016000000000001600000000000160000000000016000000000001600000000000000000000000000000001000000000000001500000000000000240000000000000550002018082000000010000000000000BRBRKMACNPA4116
012018080182BRKMU49     080BRKME       PNA     N1000R$  000000000004200000000000420000000000042000000000004200000000000420000000000000000000000000000001000000000000000100000000000000004200000000000490002018091700000010000000000000BRBRKMACNPA4116
012018080102BRML3       010BR MALLS PARON      NM   R$  000000000099200000000010150000000000992000000000100800000000010100000000001010000000000101508357000000000002732600000000002755976900000000000000009999123100000010000000000000BRBRMLACNOR9110
012018080196BRML3F      020BR MALLS PARON      NM   R$  000000000098200000000010150000000000982000000000100500000000010150000000001006000000000103400035000000000000000939000000000000943828000000000000009999123100000010000000000000BRBRMLACNOR9110
012018080178BRMLH10     070BRML  FM    ON      NM000R$  000000000003600000000000390000000000036000000000003700000000000380000000000000000000000000000003000000000000013000000000000000493000000000000100002018082000000010000000000000BRBRMLACNOR9110
012018080178BRMLH11     070BRML  FM    ON      NM000R$  000000000000500000000000070000000000005000000000000500000000000070000000000000000000000000000002000000000000002500000000000000012700000000000110002018082000000010000000000000BRBRMLACNOR9110
012018080178BRMLH40     070BRML  FM    ON      NM000R$  000000000001900000000000190000000000019000000000001900000000000190000000000000000000000002500002000000000000000300000000000000005700000000000105002018082000000010000000000000BRBRMLACNOR9110
012018080182BRMLT10     080BRMLE  FM   ON      NM000R$  000000000003500000000000350000000000029000000000002900000000000290000000000000000000000000000003000000000000020200000000000000587000000000000100002018082000000010000000000000BRBRMLACNOR9110
012018080102BRPR3       010BR PROPERT  ON      NM   R$  000000000090200000000009120000000000891000000000090500000000009110000000000901000000000091100577000000000000397200000000000359793200000000000000009999123100000010000000000000BRBRPRACNOR9118
012018080196BRPR3F      020BR PROPERT  ON      NM   R$  000000000090200000000009120000000000900000000000090300000000009120000000000891000000000091200006000000000000000227000000000000205178000000000000009999123100000010000000000000BRBRPRACNOR9118
012018080102BRSR3       010BANRISUL    ON      N1   R$  000000000170500000000017050000000001690000000000169800000000016900000000001680000000000175000009000000000000001600000000000002717500000000000000009999123100000010000000000000BRBRSRACNOR3155
012018080196BRSR3F      020BANRISUL    ON      N1   R$  000000000176600000000017660000000001766000000000176600000000017660000000001640000000000205100001000000000000000003000000000000005298000000000000009999123100000010000000000000BRBRSRACNOR3155
012018080102BRSR6       010BANRISUL    PNB     N1   R$  000000000157300000000016020000000001555000000000157800000000015700000000001570000000000157202807000000000000539600000000000851632500000000000000009999123100000010000000000000BRBRSRACNPB4158
012018080196BRSR6F      020BANRISUL    PNB     N1   R$  000000000156600000000015990000000001562000000000157300000000015790000000001568000000000157900034000000000000001193000000000001877781000000000000009999123100000010000000000000BRBRSRACNPB4158
012018080162BRSR6T      030BANRISUL    PNB     N1030R$  000000000158800000000015890000000001588000000000158800000000015890000000000000000000000000000002000000000000000500000000000000794493000000000000009999123100000010000000000000BRBRSRACNPB4158
012018080102BSAN33      010BANSANTANDERDR3 ED       R$  000000000202100000000020210000000002010000000000201600000000020100000000002010000000000207900004000000000000001900000000000003831100000000000000009999123100000010000000000000BRBSANBDR002116
012018080196BSAN33F     020BANSANTANDERDR3 ED       R$  000000000212200000000021220000000002021000000000204800000000020210000000001851000000000218000003000000000000000091000000000000186436000000000000009999123100000010000000000000BRBSANBDR002116
