00COTAHIST.2018BOVESPA 20180802                                                                                                                                                                                                                      
012018080202AALR3       010ALLIAR      ON      NM   R$  000000000131700000000013220000000001309000000000131300000000013100000000001310000000000131500566000000000000139700000000000183460500000000000000009999123100000010000000000000BRAALRACNOR6100
012018080296AALR3F      020ALLIAR      ON      NM   R$  000000000127900000000012790000000001279000000000127900000000012790000000001279000000000131500003000000000000000087000000000000111273000000000000009999123100000010000000000000BRAALRACNOR6100
012018080202AAPL34      010APPLE       DRN          R$  000000000762600000000078320000000007625000000000772300000000078320000000007713000000000783200011000000000000022400000000000173003800000000000000009999123100000010000000000000BRAAPLBDR004125
012018080296AAPL34F     020APPLE       DRN          R$  000000000762100000000083000000000007621000000000769200000000077500000000007750000000000830000008000000000000000061000000000000469263000000000000009999123100000010000000000000BRAAPLBDR004125
012018080202ABCB4       010ABC BRASIL  PN      N2   R$  000000000153400000000015690000000001509000000000154700000000015690000000001558000000000156901291000000000000197100000000000304959900000000000000009999123100000010000000000000BRABCBACNPR4130
012018080296ABCB4F      020ABC BRASIL  PN      N2   R$  000000000153600000000015650000000001512000000000154100000000015510000000001551000000000157800044000000000000000985000000000001518566000000000000009999123100000010000000000000BRABCBACNPR4130
012018080212ABCP11      010FII ABC IMOBCI  ER       R$  000000000157500000000015850000000001557000000000157200000000015650000000001565000000000157100331000000000000017939000000000028203438000000000000009999123100000010000000000000BRABCPCTF000274
012018080202ABEV3       010AMBEV S/A   ON           R$  000000000193000000000019440000000001921000000000193000000000019290000000001929000000000193016916000000000008645900000000016692680900000000000000009999123100000010000000000000BRABEVACNOR1120
012018080296ABEV3F      020AMBEV S/A   ON           R$  000000000194300000000019440000000001922000000000193100000000019280000000001925000000000192800213000000000000004823000000000009315076000000000000009999123100000010000000000000BRABEVACNOR1120
012018080262ABEV3T      030AMBEV S/A   ON        018R$  000000000193500000000019360000000001930000000000193300000000019310000000000000000000000000000006000000000000006000000000000011600612000000000000009999123100000010000000000000BRABEVACNOR1120
012018080262ABEV3T      030AMBEV S/A   ON        032R$  000000000194600000000019470000000001946000000000194600000000019470000000000000000000000000000002000000000000025000000000000048652671000000000000009999123100000010000000000000BRABEVACNOR1120
012018080278ABEVH18     070ABEV        ON        000R$  000000000015400000000001550000000000150000000000015300000000001500000000000080000000000020000003000000000000001100000000000000169200000000000178502018082000000010000000000000BRABEVACNOR1117
012018080278ABEVH19     070ABEV        ON        000R$  000000000007300000000000730000000000073000000000007300000000000730000000000025000000000000000002000000000000001000000000000000073000000000000188502018082000000010000000000000BRABEVACNOR1119
012018080278ABEVH20     070ABEV  FM    ON        000R$  000000000001900000000000200000000000015000000000001700000000000160000000000015000000000001700043000000000000709700000000000012753300000000000198502018082000000010000000000000BRABEVACNOR1118
012018080278ABEVH21     070ABEV        ON        000R$  000000000000800000000000080000000000005000000000000600000000000050000000000003000000000002000004000000000000009600000000000000062500000000000203502018082000000010000000000000BRABEVACNOR1116
012018080278ABEVH210    070ABEV  FM    ON        000R$  000000000000400000000000040000000000003000000000000300000000000030000000000002000000000000600002000000000000011000000000000000034000000000000208502018082000000010000000000000BRABEVACNOR1119
012018080278ABEVH49     070ABEV  FM    ON        000R$  000000000003700000000000420000000000034000000000003800000000000340000000000009000000000000000008000000000000070000000000000002695600000000000193502018082000000010000000000000BRABEVACNOR1117
012018080278ABEVH91     070ABEVE       ON        000R$  000000000000400000000000040000000000004000000000000400000000000040000000000002000000000001600001000000000000010000000000000000040000000000000206002018082000000010000000000000BRABEVACNOR1117
012018080278ABEVI19     070ABEV  FM    ON        000R$  000000000009300000000000930000000000082000000000008800000000000820000000000045000000000000000007000000000000037300000000000003290800000000000190102018091700000010000000000000BRABEVACNOR1119
012018080278ABEVI20     070ABEV  FM    ON        000R$  000000000003800000000000400000000000037000000000003900000000000370000000000036000000000000000005000000000000009500000000000000374200000000000200102018091700000010000000000000BRABEVACNOR1119
012018080278ABEVI202    070ABEVE       ON        000R$  000000000003100000000000310000000000031000000000003100000000000310000000000000000000000014500001000000000000002000000000000000062000000000000202602018091700000010000000000000BRABEVACNOR1120
012018080278ABEVI21     070ABEV        ON        000R$  000000000001500000000000150000000000015000000000001500000000000150000000000000000000000000000001000000000000002000000000000000030000000000000210102018091700000010000000000000BRABEVACNOR1119
012018080278ABEVI221    070ABEV        ON        000R$  000000000000700000000000070000000000007000000000000700000000000070000000000000000000000000000001000000000000001500000000000000010500000000000220102018091700000010000000000000BRABEVACNOR1119
012018080278ABEVI49     070ABEV  FM    ON        000R$  000000000006200000000000620000000000057000000000006100000000000570000000000000000000000000000002000000000000012100000000000000749700000000000195102018091700000010000000000000BRABEVACNOR1119
012018080278ABEVI50     070ABEV  FM    ON        000R$  000000000002800000000000280000000000024000000000002400000000000240000000000000000000000000000002000000000000002200000000000000053600000000000205102018091700000010000000000000BRABEVACNOR1119
012018080278ABEVI51     070ABEV  FM    ON        000R$  000000000000900000000000090000000000009000000000000900000000000090000000000000000000000000000001000000000000004000000000000000036000000000000215102018091700000010000000000000BRABEVACNOR1119
012018080278ABEVL220    070ABEV        ON        000R$  000000000002300000000000230000000000023000000000002300000000000230000000000000000000000000000001000000000000007000000000000000161000000000000218502018121700000010000000000000BRABEVACNOR1119
012018080282ABEVT18     080ABEVE       ON        000R$  000000000000300000000000060000000000003000000000000300000000000060000000000000000000000003600004000000000000001100000000000000003600000000000178502018082000000010000000000000BRABEVACNOR1117
012018080282ABEVT19     080ABEVE  FM   ON        000R$  000000000001800000000000180000000000016000000000001700000000000160000000000011000000000000000003000000000000000700000000000000012000000000000188502018082000000010000000000000BRABEVACNOR1119
012018080282ABEVT2      080ABEVE       ON        000R$  000000000000700000000000070000000000007000000000000700000000000070000000000000000000000000800005000000000000051000000000000000357000000000000183502018082000000010000000000000BRABEVACNOR1117
012018080282ABEVT20     080ABEVE  FM   ON        000R$  000000000007000000000000700000000000059000000000006300000000000640000000000000000000000000000007000000000000070000000000000004448000000000000198502018082000000010000000000000BRABEVACNOR1118
012018080282ABEVT210    080ABEVE  FM   ON        000R$  000000000014900000000001590000000000143000000000015100000000001560000000000000000000000000000013000000000000154000000000000023276000000000000208502018082000000010000000000000BRABEVACNOR1119
012018080282ABEVT49     080ABEVE  FM   ON        000R$  000000000003300000000000370000000000033000000000003300000000000370000000000010000000000000000003000000000000014000000000000000469000000000000193502018082000000010000000000000BRABEVACNOR1117
012018080282ABEVT68     080ABEVE       ON        000R$  000000000000500000000000050000000000005000000000000500000000000050000000000000000000000000000001000000000000004000000000000000020000000000000181002018082000000010000000000000BRABEVACNOR1117
012018080282ABEVT79     080ABEVE       ON        000R$  000000000002200000000000220000000000022000000000002200000000000220000000000000000000000000000001000000000000001200000000000000026400000000000191002018082000000010000000000000BRABEVACNOR1117
012018080282ABEVU20     080ABEVE  FM   ON        000R$  000000000008800000000000910000000000088000000000008900000000000910000000000000000000000000000002000000000000024000000000000002148000000000000200102018091700000010000000000000BRABEVACNOR1119
012018080282ABEVU89     080ABEVE  FM   ON        000R$  000000000005100000000000510000000000051000000000005100000000000510000000000000000000000000000001000000000000006200000000000000316200000000000192602018091700000010000000000000BRABEVACNOR1117
012018080202ABTT34      010ABBOTT      DRN          R$  000000000609500000000060950000000006095000000000609500000000060950000000000000000000000000000001000000000000000300000000000001828500000000000000009999123100000010000000000000BRABTTBDR007127
012018080202ACNB34      010ACCENTURE   DRN          R$  000000006047600000000604760000000060476000000006047600000000604760000000000000000000000000000001000000000000000100000000000006047600000000000000009999123100000010000000000000BRACNBBDR006106
012018080202ADHM3       010ADVANCED-DH ON           R$  000000000017700000000001850000000000177000000000018200000000001850000000000178000000000018400004000000000000001000000000000000182200000000000000009999123100000010000000000000BRADHMACNOR9101
012018080212AEFI11      010FII AESAPAR CI  ER       R$  000000001489900000000148990000000014752000000001480800000000147520000000014752000000001482000119000000000000001850000000000027395782000000000000009999123100000010000000000000BRAEFICTF002180
012018080202AELP3       010AES ELPA    ON           R$  000000000021100000000002110000000000210000000000021000000000002100000000000205000000000021000005000000000000001700000000000000358200000000000000009999123100000010000000000000BRAELPACNOR2124
012018080296AELP3F      020AES ELPA    ON           R$  000000000020100000000002100000000000201000000000020100000000002010000000000202000000000021000006000000000000000061000000000000012270000000000000009999123100000010000000000000BRAELPACNOR2124
012018080202AETB34      010AETNA INC   DRN          R$  000000007082300000000708230000000070823000000007082300000000708230000000000000000000000000000001000000000000000100000000000007082300000000000000009999123100000010000000000000BRAETBBDR009108
012018080212AGCX11      010FII AG CAIXACI  ER       R$  000000010187000000001018700000000101200000000010156100000001015000000000101325000000010170000077000000000000000208000000000021124792000000000000009999123100000010000000000000BRAGCXCTF003169
012018080202AGRO3       010BRASILAGRO  ON      NM   R$  000000000139400000000014020000000001390000000000139400000000013950000000001395000000000139700057000000000000036600000000000051052900000000000000009999123100000010000000000000BRAGROACNOR7107
012018080296AGRO3F      020BRASILAGRO  ON      NM   R$  000000000132200000000013950000000001322000000000137100000000013950000000001216000000000140000004000000000000000129000000000000176931000000000000009999123100000010000000000000BRAGROACNOR7107
012018080212ALMI11      010FII TORRE ALCI           R$  000000013990000000001399000000000137118000000013843400000001390000000000137200000000013970000031000000000000000194000000000026856361000000000000009999123100000010000000000000BRALMICTF003249
012018080202ALPA3       010ALPARGATAS  ON      N1   R$  000000000131300000000013150000000001284000000000129800000000013000000000001300000000000136900014000000000000002100000000000002725800000000000000009999123100000010000000000000BRALPAACNOR0226
012018080296ALPA3F      020ALPARGATAS  ON      N1   R$  000000000131200000000013120000000001284000000000129800000000012840000000001281000000000135000002000000000000000100000000000000129828000000000000009999123100000010000000000000BRALPAACNOR0226
012018080202ALPA4       010ALPARGATAS  PN      N1   R$  000000000129000000000012930000000001275000000000128600000000012850000000001285000000000128701928000000000000292800000000000376659500000000000000009999123100000010000000000000BRALPAACNPR7226
012018080296ALPA4F      020ALPARGATAS  PN      N1   R$  000000000129000000000012900000000001278000000000128200000000012800000000001280000000000129900015000000000000000285000000000000365554000000000000009999123100000010000000000000BRALPAACNPR7226
012018080202ALSC3       010ALIANSCE    ON      NM   R$  000000000153700000000015470000000001528000000000153800000000015470000000001532000000000154701002000000000000200600000000000308666300000000000000009999123100000010000000000000BRALSCACNOR0111
012018080296ALSC3F      020ALIANSCE    ON      NM   R$  000000000153500000000015430000000001533000000000153600000000015390000000001501000000000164600005000000000000000114000000000000175207000000000000009999123100000010000000000000BRALSCACNOR0111
012018080262ALSC3T      030ALIANSCE    ON      NM090R$  000000000155800000000015590000000001558000000000155800000000015590000000000000000000000000000002000000000000001300000000000002025708000000000000009999123100000010000000000000BRALSCACNOR0111
012018080202ALUP11      010ALUPAR      UNT     N2   R$  000000000163100000000016450000000001621000000000163000000000016240000000001620000000000162401136000000000000185200000000000301968000000000000000009999123100000010000000000000BRALUPCDAM15108
012018080296ALUP11F     020ALUPAR      UNT     N2   R$  000000000164800000000016480000000001629000000000163600000000016300000000001611000000000163000027000000000000000748000000000001223797000000000000009999123100000010000000000000BRALUPCDAM15108
012018080202ALUP3       010ALUPAR      ON      N2   R$  000000000062500000000006590000000000606000000000063000000000006590000000000610000000000067900026000000000000006200000000000003911500000000000000009999123100000010000000000000BRALUPACNOR8108
012018080296ALUP3F      020ALUPAR      ON      N2   R$  000000000060400000000006040000000000604000000000060400000000006040000000000604000000000061500002000000000000000033000000000000019932000000000000009999123100000010000000000000BRALUPACNOR8108
012018080202ALUP4       010ALUPAR      PN      N2   R$  000000000050200000000005020000000000502000000000050200000000005020000000000481000000000052000002000000000000000200000000000000100400000000000000009999123100000010000000000000BRALUPACNPR5108
012018080296ALUP4F      020ALUPAR      PN      N2   R$  000000000051000000000005400000000000510000000000052500000000005400000000000510000000000054000002000000000000000002000000000000001050000000000000009999123100000010000000000000BRALUPACNPR5108
012018080212ALZR11      010FII ALIANZA CI           R$  000000000933900000000093390000000009219000000000925300000000092300000000009225000000000930500065000000000000001270000000000011752192000000000000009999123100000010000000000000BRALZRCTF006106
012018080202AMAR3       010LOJAS MARISAON      NM   R$  000000000043500000000004360000000000420000000000042700000000004260000000000426000000000043000856000000000000360700000000000154291000000000000000009999123100000010000000000000BRAMARACNOR4112
012018080296AMAR3F      020LOJAS MARISAON      NM   R$  000000000043500000000004350000000000419000000000042900000000004190000000000420000000000043500013000000000000000360000000000000154498000000000000009999123100000010000000000000BRAMARACNOR4112
012018080202AMGN34      010AMGEN       DRN          R$  000000007397800000000739780000000073978000000007397800000000739780000000000000000000000000000001000000000000000100000000000007397800000000000000009999123100000010000000000000BRAMGNBDR004126
012018080202AMZO34      010AMAZON      DRN          R$  000000034519300000003451930000000345193000000034519300000003451930000000000000000000000000000001000000000000000100000000000034519300000000000000009999123100000010000000000000BRAMZOBDR002101
012018080296AMZO34F     020AMAZON      DRN          R$  000000033603000000003450000000000336030000000034006700000003450000000000338000000000034500000003000000000000000152000000000051690330000000000000009999123100000010000000000000BRAMZOBDR002101
012018080202ANIM3       010ANIMA       ON      NM   R$  000000000157700000000015850000000001537000000000156800000000015830000000001576000000000158301528000000000000246400000000000386438700000000000000009999123100000010000000000000BRANIMACNOR6105
012018080296ANIM3F      020ANIMA       ON      NM   R$  000000000156000000000015850000000001545000000000155900000000015770000000001501000000000158500006000000000000000287000000000000447599000000000000009999123100000010000000000000BRANIMACNOR6105
012018080202ARMT34      010ARCELOR     DRN          R$  000000000598700000000059870000000005987000000000598700000000059870000000000000000000000000000001000000000000000300000000000001796100000000000000009999123100000010000000000000BRARMTBDR008116
012018080202ARZZ3       010AREZZO CO   ON      NM   R$  000000000420000000000043100000000004176000000000425000000000043030000000004250000000000430301604000000000000407100000000001730581100000000000000009999123100000010000000000000BRARZZACNOR3130
012018080296ARZZ3F      020AREZZO CO   ON      NM   R$  000000000419800000000042990000000004198000000000424200000000042980000000004181000000000432000020000000000000000660000000000002800139000000000000009999123100000010000000000000BRARZZACNOR3130
012018080278ARZZJ54     070ARZZ        ON      NM000R$  000000000007000000000000700000000000070000000000007000000000000700000000000000000000000000000001000000000000010000000000000000700000000000000530602018101500000010000000000000BRARZZACNOR3126
012018080278ARZZJ60     070ARZZ        ON      NM000R$  000000000002500000000000250000000000025000000000002500000000000250000000000000000000000000000001000000000000010000000000000000250000000000000590602018101500000010000000000000BRARZZACNOR3126
012018080282ARZZV12     080ARZZE       ON      NM000R$  000000000021000000000002100000000000210000000000021000000000002100000000000000000000000000000001000000000000010000000000000002100000000000000415602018101500000010000000000000BRARZZACNOR3126
012018080282ARZZV19     080ARZZE       ON      NM000R$  000000000065000000000006500000000000650000000000065000000000006500000000000000000000000000000001000000000000010000000000000006500000000000000485602018101500000010000000000000BRARZZACNOR3126
012018080282ARZZV50     080ARZZE       ON      NM000R$  000000000069000000000006900000000000690000000000069000000000006900000000000000000000000000000001000000000000010000000000000006900000000000000490602018101500000010000000000000BRARZZACNOR3126
012018080202ATOM3       010ATOMPAR     ON           R$  000000000022500000000002300000000000223000000000022500000000002250000000000225000000000022900017000000000000004100000000000000926000000000000000009999123100000010000000000000BRATOMACNOR1102
012018080296ATOM3F      020ATOMPAR     ON           R$  000000000024300000000002430000000000228000000000023900000000002280000000000000000000000024000004000000000000000119000000000000028490000000000000009999123100000010000000000000BRATOMACNOR1102
012018080202ATTB34      010ATT INC     DRN          R$  000000001208900000000120890000000012002000000001206700000000120020000000000000000000001200300002000000000000000400000000000004826900000000000000009999123100000010000000000000BRATTBBDR007124
012018080202AVON34      010AVON        DRN          R$  000000000031800000000003280000000000318000000000032000000000003270000000000281000000000000000006000000000000550200000000000176165500000000000000009999123100000010000000000000BRAVONBDR009121
012018080202AXPB34      010AMERICAN EXPDRN          R$  000000003769900000000376990000000037699000000003769900000000376990000000000000000000000000000001000000000000000100000000000003769900000000000000009999123100000010000000000000BRAXPBBDR007125
012018080202AZUL4       010AZUL        PN      N2   R$  000000000238000000000024050000000002312000000000236400000000023750000000002374000000000238503396000000000001289000000000003047695100000000000000009999123100000010000000000000BRAZULACNPR4100
012018080296AZUL4F      020AZUL        PN      N2   R$  000000000242400000000024430000000002318000000000237900000000023900000000002352000000000239000019000000000000000569000000000001353720000000000000009999123100000010000000000000BRAZULACNPR4100
012018080202B3SA3       010B3          ON      NM   R$  000000000235000000000024470000000002336000000000238800000000024100000000002409000000000241016384000000000007123000000000017015832400000000000000009999123100000010000000000000BRB3SAACNOR6102
012018080296B3SA3F      020B3          ON      NM   R$  000000000235200000000024400000000002336000000000238600000000024140000000002410000000000241400179000000000000006692000000000015971266000000000000009999123100000010000000000000BRB3SAACNOR6102
012018080262B3SA3T      030B3          ON      NM060R$  000000000241300000000024140000000002413000000000241300000000024140000000000000000000000000000002000000000000000800000000000001930415000000000000009999123100000010000000000000BRB3SAACNOR6102
012018080278B3SAH211    070B3SA        ON      NM000R$  000000000033600000000003360000000000336000000000033600000000003360000000000000000000000000000001000000000000669000000000000224784000000000000209102018082000000010000000000000BRB3SAACNOR6101
012018080278B3SAH231    070B3SA  FM    ON      NM000R$  000000000011500000000001540000000000115000000000013200000000001540000000000080000000000000000003000000000000022500000000000002985000000000000229102018082000000010000000000000BRB3SAACNOR6101
012018080278B3SAH236    070B3SAE       ON      NM000R$  000000000006300000000000630000000000063000000000006300000000000630000000000000000000000000000001000000000000001000000000000000063000000000000236602018082000000010000000000000BRB3SAACNOR6102
012018080278B3SAH24     070B3SA  FM    ON      NM000R$  000000000006100000000001010000000000057000000000007000000000001010000000000060000000000000000023000000000000065000000000000004607500000000000239102018082000000010000000000000BRB3SAACNOR6101
012018080278B3SAH244    070B3SAE       ON      NM000R$  000000000005000000000000670000000000050000000000005400000000000670000000000000000000000009500002000000000000000400000000000000021700000000000241602018082000000010000000000000BRB3SAACNOR6100
012018080278B3SAH249    070B3SAE       ON      NM000R$  000000000003600000000000360000000000036000000000003600000000000360000000000000000000000000000001000000000000002000000000000000072000000000000246602018082000000010000000000000BRB3SAACNOR6100
012018080278B3SAH251    070B3SA  FM    ON      NM000R$  000000000003900000000000500000000000039000000000004600000000000400000000000023000000000004000027000000000000020300000000000000940600000000000249102018082000000010000000000000BRB3SAACNOR6101
012018080278B3SAH26     070B3SA  FM    ON      NM000R$  000000000001200000000000210000000000012000000000001600000000000160000000000000000000000001500039000000000000017700000000000000296600000000000259102018082000000010000000000000BRB3SAACNOR6101
012018080278B3SAH271    070B3SA  FM    ON      NM000R$  000000000000300000000000030000000000003000000000000300000000000030000000000000000000000002000001000000000000000800000000000000002400000000000269102018082000000010000000000000BRB3SAACNOR6101
012018080278B3SAH53     070B3SA        ON      NM000R$  000000000011500000000001150000000000115000000000011500000000001150000000000065000000000000000001000000000000669000000000000076935000000000000234102018082000000010000000000000BRB3SAACNOR6101
012018080278B3SAI178    070B3SAE       ON      NM000R$  000000000068100000000006810000000000681000000000068100000000006810000000000000000000000000000002000000000000001000000000000000681000000000000176902018091700000010000000000000BRB3SAACNOR6101
012018080278B3SAI22     070B3SA  FM    ON      NM000R$  000000000022900000000002290000000000229000000000022900000000002290000000000000000000000000000001000000000000007500000000000001717500000000000219402018091700000010000000000000BRB3SAACNOR6101
012018080278B3SAI23     070B3SA  FM    ON      NM000R$  000000000015700000000001860000000000157000000000016300000000001860000000000000000000000000000003000000000000017000000000000002787000000000000229402018091700000010000000000000BRB3SAACNOR6101
012018080278B3SAI24     070B3SA  FM    ON      NM000R$  000000000011200000000001120000000000112000000000011200000000001120000000000000000000000000000001000000000000007500000000000000840000000000000239402018091700000010000000000000BRB3SAACNOR6101
012018080278B3SAI25     070B3SA  FM    ON      NM000R$  000000000007400000000000740000000000074000000000007400000000000740000000000060000000000000000001000000000000007500000000000000555000000000000249402018091700000010000000000000BRB3SAACNOR6101
012018080278B3SAI55     070B3SA  FM    ON      NM000R$  000000000004300000000000430000000000043000000000004300000000000430000000000000000000000000000003000000000000006000000000000000258000000000000259402018091700000010000000000000BRB3SAACNOR6102
012018080282B3SAT22     080B3SAE  FM   ON      NM000R$  000000000001700000000000170000000000017000000000001700000000000170000000000009000000000002700001000000000000007500000000000000127500000000000219102018082000000010000000000000BRB3SAACNOR6101
012018080282B3SAT231    080B3SAE  FM   ON      NM000R$  000000000004500000000000450000000000027000000000003800000000000290000000000016000000000002900018000000000000055300000000000002139300000000000229102018082000000010000000000000BRB3SAACNOR6101
012018080282B3SAT24     080B3SAE  FM   ON      NM000R$  000000000009300000000001010000000000057000000000007800000000000640000000000000000000000006400012000000000000041400000000000003241900000000000239102018082000000010000000000000BRB3SAACNOR6101
012018080282B3SAT251    080B3SAE  FM   ON      NM000R$  000000000015500000000001550000000000136000000000014200000000001360000000000000000000000000000003000000000000022500000000000003202500000000000249102018082000000010000000000000BRB3SAACNOR6101
012018080282B3SAT49     080B3SAE       ON      NM000R$  000000000000800000000000080000000000008000000000000800000000000080000000000000000000000000800001000000000000669000000000000005352000000000000194102018082000000010000000000000BRB3SAACNOR6101
012018080282B3SAT53     080B3SAE       ON      NM000R$  000000000007400000000000740000000000074000000000007400000000000740000000000000000000000005500001000000000000015000000000000001110000000000000234102018082000000010000000000000BRB3SAACNOR6101
012018080282B3SAU22     080B3SAE  FM   ON      NM000R$  000000000004700000000000470000000000047000000000004700000000000470000000000000000000000000000001000000000000000300000000000000014100000000000219402018091700000010000000000000BRB3SAACNOR6101
012018080282B3SAU23     080B3SAE  FM   ON      NM000R$  000000000009300000000000930000000000073000000000008800000000000730000000000068000000000008400008000000000000016500000000000001462100000000000229402018091700000010000000000000BRB3SAACNOR6101
012018080282B3SAU24     080B3SAE  FM   ON      NM000R$  000000000013400000000001340000000000134000000000013400000000001340000000000000000000000000000001000000000000007500000000000001005000000000000239402018091700000010000000000000BRB3SAACNOR6101
012018080282B3SAU25     080B3SAE  FM   ON      NM000R$  000000000019400000000001940000000000194000000000019400000000001940000000000000000000000000000001000000000000007500000000000001455000000000000249402018091700000010000000000000BRB3SAACNOR6101
012018080202BAHI3       010BAHEMA      ON      MA   R$  000000000721000000000074000000000007210000000000727300000000074000000000006515000000000000000003000000000000000300000000000002182000000000000000009999123100000010000000000000BRBAHIACNOR1070
012018080296BAZA3F      020AMAZONIA    ON           R$  000000000210200000000021020000000002102000000000210200000000021020000000002102000000000269900001000000000000000001000000000000002102000000000000009999123100000010000000000000BRBAZAACNOR0172
012018080202BBAS3       010BRASIL      ON      NM   R$  000000000327500000000033600000000003265000000000332600000000033230000000003323000000000333414753000000000007750900000000025783801300000000000000009999123100000010000000000000BRBBASACNOR3277
012018080296BBAS3F      020BRASIL      ON      NM   R$  000000000328000000000033580000000003270000000000332100000000033360000000003327000000000333600312000000000000008330000000000027669133000000000000009999123100000010000000000000BRBBASACNOR3277
012018080262BBAS3T      030BRASIL      ON      NM018R$  000000000336700000000033680000000003334000000000335000000000033350000000000000000000000000000010000000000000006000000000000020102447000000000000009999123100000010000000000000BRBBASACNOR3277
012018080262BBAS3T      030BRASIL      ON      NM032R$  000000000335200000000033530000000003352000000000335200000000033530000000000000000000000000000002000000000000000500000000000001676143000000000000009999123100000010000000000000BRBBASACNOR3277
012018080262BBAS3T      030BRASIL      ON      NM060R$  000000000330500000000033060000000003305000000000330500000000033060000000000000000000000000000002000000000000001000000000000003305673000000000000009999123100000010000000000000BRBBASACNOR3277
012018080262BBAS3T      030BRASIL      ON      NM090R$  000000000336200000000034010000000003362000000000339100000000033860000000000000000000000000000008000000000000502100000000001703120540000000000000009999123100000010000000000000BRBBASACNOR3277
012018080262BBAS3T      030BRASIL      ON      NM120R$  000000000333900000000033400000000003339000000000333900000000033400000000000000000000000000000002000000000000030000000000000100199340000000000000009999123100000010000000000000BRBBASACNOR3277
012018080278BBASH148    070BBAS        ON      NM000R$  000000000025000000000002500000000000250000000000025000000000002500000000000000000000000025000001000000000000001500000000000000375000000000000314802018082000000010000000000000BRBBASACNOR3277
012018080278BBASH18     070BBASE       ON      NM000R$  000000000011100000000001600000000000111000000000013000000000001600000000000085000000000014200003000000000000007500000000000000979500000000000327302018082000000010000000000000BRBBASACNOR3269
012018080278BBASH19     070BBAS  FM    ON      NM000R$  000000000010100000000001400000000000100000000000012300000000001300000000000100000000000013500027000000000000056800000000000007017100000000000329802018082000000010000000000000BRBBASACNOR3269
012018080278BBASH20     070BBASE       ON      NM000R$  000000000009200000000001190000000000092000000000010000000000001120000000000112000000000000000005000000000000008400000000000000847800000000000332302018082000000010000000000000BRBBASACNOR3269
012018080278BBASH282    070BBAS        ON      NM000R$  000000000056000000000005600000000000554000000000055800000000005550000000000000000000000000000005000000000000002800000000000001564100000000000279802018082000000010000000000000BRBBASACNOR3275
012018080278BBASH300    070BBAS        ON      NM000R$  000000000031000000000003750000000000300000000000033000000000003520000000000337000000000037500012000000000000013800000000000004557400000000000299802018082000000010000000000000BRBBASACNOR3276
012018080278BBASH303    070BBASE       ON      NM000R$  000000000029000000000003430000000000290000000000032100000000003430000000000000000000000000000006000000000000006000000000000001928000000000000302302018082000000010000000000000BRBBASACNOR3277
012018080278BBASH314    070BBASE       ON      NM000R$  000000000027000000000002700000000000225000000000025000000000002250000000000160000000000028400004000000000000000500000000000000125300000000000312302018082000000010000000000000BRBBASACNOR3275
012018080278BBASH319    070BBASE       ON      NM000R$  000000000016500000000002250000000000165000000000020700000000002140000000000000000000000022500327000000000000262000000000000054375400000000000317302018082000000010000000000000BRBBASACNOR3275
012018080278BBASH320    070BBAS  FM    ON      NM000R$  000000000019400000000002040000000000190000000000019600000000001950000000000168000000000020500017000000000000034900000000000006841800000000000319802018082000000010000000000000BRBBASACNOR3276
012018080278BBASH324    070BBAS        ON      NM000R$  000000000017700000000001770000000000174000000000017600000000001740000000000030000000000000000003000000000000003100000000000000548400000000000324802018082000000010000000000000BRBBASACNOR3277
012018080278BBASH337    070BBAS        ON      NM000R$  000000000008000000000001100000000000080000000000010100000000000970000000000070000000000011200007000000000000004700000000000000476100000000000334802018082000000010000000000000BRBBASACNOR3275
012018080278BBASH339    070BBASE       ON      NM000R$  000000000008500000000001000000000000085000000000009300000000000910000000000077000000000000000017000000000000040600000000000003792600000000000337302018082000000010000000000000BRBBASACNOR3275
012018080278BBASH342    070BBAS  FM    ON      NM000R$  000000000006500000000000900000000000060000000000007000000000000770000000000073000000000009000019000000000000056900000000000004031200000000000339802018082000000010000000000000BRBBASACNOR3275
012018080278BBASH344    070BBASE       ON      NM000R$  000000000005900000000000800000000000059000000000007000000000000750000000000000000000000000000009000000000000020300000000000001434400000000000342302018082000000010000000000000BRBBASACNOR3275
012018080278BBASH349    070BBASE       ON      NM000R$  000000000003700000000000600000000000037000000000005400000000000580000000000015000000000006400007000000000000017200000000000000933500000000000347302018082000000010000000000000BRBBASACNOR3275
012018080278BBASH35     070BBAS  FM    ON      NM000R$  000000000003500000000000570000000000033000000000004600000000000420000000000041000000000004400080000000000000197200000000000009117900000000000349802018082000000010000000000000BRBBASACNOR3276
012018080278BBASH350    070BBAS        ON      NM000R$  000000000005000000000000700000000000050000000000005900000000000610000000000046000000000012200007000000000000006100000000000000365600000000000344802018082000000010000000000000BRBBASACNOR3273
012018080278BBASH354    070BBASE       ON      NM000R$  000000000004000000000000400000000000035000000000003900000000000380000000000036000000000004500004000000000001004300000000000040157000000000000352302018082000000010000000000000BRBBASACNOR3275
012018080278BBASH360    070BBAS  FM    ON      NM000R$  000000000001800000000000310000000000015000000000002300000000000250000000000023000000000002600014000000000000013800000000000000330000000000000359802018082000000010000000000000BRBBASACNOR3276
012018080278BBASH364    070BBAS        ON      NM000R$  000000000002800000000000280000000000022000000000002200000000000220000000000000000000000002200010000000000000007000000000000000156100000000000364802018082000000010000000000000BRBBASACNOR3277
012018080278BBASH375    070BBAS        ON      NM000R$  000000000000800000000000160000000000008000000000001100000000000160000000000010000000000001600008000000000000013300000000000000153400000000000369802018082000000010000000000000BRBBASACNOR3273
012018080278BBASH377    070BBAS        ON      NM000R$  000000000000600000000000080000000000006000000000000600000000000080000000000003000000000000000010000000000000002900000000000000019200000000000374802018082000000010000000000000BRBBASACNOR3275
012018080278BBASH379    070BBASE       ON      NM000R$  000000000000700000000000070000000000007000000000000700000000000070000000000000000000000001200001000000000000000100000000000000000700000000000377302018082000000010000000000000BRBBASACNOR3275
012018080278BBASH399    070BBASE       ON      NM000R$  000000000000900000000000090000000000008000000000000800000000000080000000000000000000000000000002000000000001000000000000000008500000000000000397302018082000000010000000000000BRBBASACNOR3275
012018080278BBASI12     070BBAS  FM    ON      NM000R$  000000000029700000000003090000000000297000000000030400000000003030000000000000000000000000000003000000000000004500000000000001371900000000000316502018091700000010000000000000BRBBASACNOR3270
012018080278BBASI324    070BBAS        ON      NM000R$  000000000025700000000002800000000000257000000000027000000000002700000000000000000000000000000007000000000000010000000000000002706400000000000321502018091700000010000000000000BRBBASACNOR3275
012018080278BBASI329    070BBASE       ON      NM000R$  000000000024300000000002430000000000243000000000024300000000002430000000000000000000000000000001000000000000003000000000000000729000000000000329002018091700000010000000000000BRBBASACNOR3276
012018080278BBASI334    070BBASE       ON      NM000R$  000000000017000000000002070000000000170000000000019000000000002070000000000000000000000000000002000000000000002300000000000000439100000000000334002018091700000010000000000000BRBBASACNOR3276
012018080278BBASI339    070BBAS  FM    ON      NM000R$  000000000016500000000001920000000000165000000000018700000000001920000000000000000000000000000002000000000000005700000000000001067400000000000336502018091700000010000000000000BRBBASACNOR3275
012018080278BBASI341    070BBASE       ON      NM000R$  000000000016200000000001850000000000162000000000017100000000001850000000000000000000000018700002000000000000000500000000000000085600000000000339002018091700000010000000000000BRBBASACNOR3275
012018080278BBASI344    070BBASE       ON      NM000R$  000000000015700000000001570000000000157000000000015700000000001570000000000000000000000000000001000000000000000600000000000000094200000000000344002018091700000010000000000000BRBBASACNOR3277
012018080278BBASI351    070BBASE       ON      NM000R$  000000000011500000000001150000000000115000000000011500000000001150000000000100000000000000000001000000000000006000000000000000690000000000000349002018091700000010000000000000BRBBASACNOR3275
012018080278BBASI352    070BBAS        ON      NM000R$  000000000010800000000001400000000000108000000000012400000000001220000000000000000000000014000005000000000000064000000000000007944000000000000351502018091700000010000000000000BRBBASACNOR3276
012018080278BBASI356    070BBASE       ON      NM000R$  000000000011800000000001180000000000118000000000011800000000001180000000000000000000000000000002000000000000001400000000000000165200000000000354002018091700000010000000000000BRBBASACNOR3275
012018080278BBASI364    070BBAS        ON      NM000R$  000000000009200000000000920000000000092000000000009200000000000920000000000075000000000010300001000000000000001600000000000000147200000000000361502018091700000010000000000000BRBBASACNOR3275
012018080278BBASI369    070BBAS        ON      NM000R$  000000000007400000000000850000000000074000000000007800000000000850000000000000000000000000000003000000000000005300000000000000417500000000000366502018091700000010000000000000BRBBASACNOR3275
012018080278BBASI371    070BBASE       ON      NM000R$  000000000007200000000000720000000000072000000000007200000000000720000000000069000000000000000001000000000000002900000000000000208800000000000369002018091700000010000000000000BRBBASACNOR3275
012018080278BBASI5      070BBAS  FM    ON      NM000R$  000000000009300000000000930000000000093000000000009300000000000930000000000000000000000000000001000000000000001000000000000000093000000000000356502018091700000010000000000000BRBBASACNOR3275
012018080278BBASJ32     070BBAS        ON      NM000R$  000000000044000000000004400000000000440000000000044000000000004400000000000000000000000000000001000000000000000100000000000000044000000000000312102018101500000010000000000000BRBBASACNOR3271
012018080278BBASJ87     070BBASE       ON      NM000R$  000000000018600000000001860000000000186000000000018600000000001860000000000000000000000018300002000000000000780000000000000145080000000000000369602018101500000010000000000000BRBBASACNOR3271
012018080278BBASL402    070BBAS        ON      NM000R$  000000000018400000000001840000000000184000000000018400000000001840000000000000000000000000000001000000000000000100000000000000018400000000000396702018121700000010000000000000BRBBASACNOR3273
012018080282BBAST148    080BBASE       ON      NM000R$  000000000004300000000000430000000000031000000000003700000000000330000000000000000000000000000013000000000000037100000000000001373300000000000314802018082000000010000000000000BRBBASACNOR3277
012018080282BBAST18     080BBASE       ON      NM000R$  000000000010700000000001070000000000107000000000010700000000001070000000000000000000000000000001000000000000003000000000000000321000000000000327302018082000000010000000000000BRBBASACNOR3269
012018080282BBAST19     080BBASE  FM   ON      NM000R$  000000000011800000000001180000000000080000000000008900000000000860000000000086000000000012500011000000000000032500000000000002918300000000000329802018082000000010000000000000BRBBASACNOR3269
012018080282BBAST20     080BBASE       ON      NM000R$  000000000009500000000000950000000000095000000000009500000000000950000000000000000000000000000002000000000000002000000000000000190000000000000332302018082000000010000000000000BRBBASACNOR3269
012018080282BBAST282    080BBASE       ON      NM000R$  000000000000900000000000090000000000006000000000000800000000000060000000000005000000000001000002000000000000003000000000000000024000000000000279802018082000000010000000000000BRBBASACNOR3275
012018080282BBAST293    080BBASE       ON      NM000R$  000000000001400000000000170000000000010000000000001100000000000100000000000007000000000001400009000000000000025000000000000000284000000000000292302018082000000010000000000000BRBBASACNOR3276
012018080282BBAST300    080BBASE       ON      NM000R$  000000000002000000000000200000000000020000000000002000000000000200000000000009000000000002800002000000000000003000000000000000060000000000000299802018082000000010000000000000BRBBASACNOR3276
012018080282BBAST303    080BBASE       ON      NM000R$  000000000002600000000000260000000000014000000000001500000000000180000000000012000000000002000005000000000000022300000000000000347300000000000302302018082000000010000000000000BRBBASACNOR3277
012018080282BBAST308    080BBASE       ON      NM000R$  000000000003000000000000300000000000024000000000002600000000000240000000000000000000000000000003000000000000001100000000000000029400000000000307302018082000000010000000000000BRBBASACNOR3276
012018080282BBAST314    080BBASE       ON      NM000R$  000000000003300000000000330000000000033000000000003300000000000330000000000000000000000000000001000000000000003000000000000000099000000000000312302018082000000010000000000000BRBBASACNOR3275
012018080282BBAST315    080BBASE  FM   ON      NM000R$  000000000004100000000000410000000000024000000000003600000000000270000000000020000000000006600011000000000000072900000000000002644100000000000309802018082000000010000000000000BRBBASACNOR3273
012018080282BBAST319    080BBASE       ON      NM000R$  000000000004500000000000450000000000037000000000003800000000000420000000000024000000000008800148000000000000145200000000000005653800000000000317302018082000000010000000000000BRBBASACNOR3275
012018080282BBAST320    080BBASE  FM   ON      NM000R$  000000000004600000000000470000000000046000000000004600000000000470000000000047000000000000000005000000000000011200000000000000524400000000000319802018082000000010000000000000BRBBASACNOR3276
012018080282BBAST324    080BBASE       ON      NM000R$  000000000010300000000001030000000000062000000000008500000000000640000000000000000000000009000005000000000000005000000000000000425400000000000324802018082000000010000000000000BRBBASACNOR3277
012018080282BBAST337    080BBASE       ON      NM000R$  000000000010500000000001050000000000105000000000010500000000001050000000000000000000000000000001000000000000000800000000000000084000000000000334802018082000000010000000000000BRBBASACNOR3275
012018080282BBAST342    080BBASE  FM   ON      NM000R$  000000000013900000000001390000000000126000000000013700000000001390000000000000000000000000000006000000000000025600000000000003508600000000000339802018082000000010000000000000BRBBASACNOR3275
012018080282BBAST83     080BBASE       ON      NM000R$  000000000005500000000000550000000000055000000000005500000000000550000000000000000000000013600001000000000000004200000000000000231000000000000322302018082000000010000000000000BRBBASACNOR3272
012018080282BBAST99     080BBASE       ON      NM000R$  000000000047000000000004700000000000470000000000047000000000004700000000000000000000000000000001000000000000002000000000000000940000000000000382302018082000000010000000000000BRBBASACNOR3271
012018080282BBASU306    080BBASE       ON      NM000R$  000000000008000000000000800000000000080000000000008000000000000800000000000000000000000000000001000000000000004400000000000000352000000000000304002018091700000010000000000000BRBBASACNOR3275
012018080282BBASU311    080BBASE  FM   ON      NM000R$  000000000009000000000000900000000000090000000000009000000000000900000000000000000000000022500001000000000000001000000000000000090000000000000309002018091700000010000000000000BRBBASACNOR3275
012018080282BBASU341    080BBASE  FM   ON      NM000R$  000000000024200000000002420000000000242000000000024200000000002420000000000000000000000000000001000000000000000300000000000000072600000000000339002018091700000010000000000000BRBBASACNOR3275
012018080282BBASU344    080BBASE       ON      NM000R$  000000000025000000000002500000000000226000000000023600000000002350000000000000000000000000000003000000000000005600000000000001326500000000000344002018091700000010000000000000BRBBASACNOR3277
012018080282BBASU47     080BBASE       ON      NM000R$  000000000000600000000000060000000000006000000000000600000000000060000000000000000000000000000001000000000000004400000000000000026400000000000266502018091700000010000000000000BRBBASACNOR3270
012018080282BBASU50     080BBASE       ON      NM000R$  000000000005500000000000550000000000055000000000005500000000000550000000000000000000000010000002000000000000001500000000000000082500000000000296502018091700000010000000000000BRBBASACNOR3270
012018080282BBASU51     080BBASE       ON      NM000R$  000000000007000000000000740000000000070000000000007300000000000740000000000050000000000000000002000000000000003000000000000000221600000000000301502018091700000010000000000000BRBBASACNOR3270
012018080282BBASU57     080BBASE       ON      NM000R$  000000000000900000000000090000000000009000000000000900000000000090000000000000000000000000000001000000000000002900000000000000026100000000000269002018091700000010000000000000BRBBASACNOR3270
012018080202BBDC3       010BRADESCO    ON  EJ  N1   R$  000000000279500000000028190000000002765000000000280200000000028180000000002800000000000281803822000000000000922000000000002583673900000000000000009999123100000010000000000000BRBBDCACNOR1683
012018080296BBDC3F      020BRADESCO    ON  EJ  N1   R$  000000000280000000000028150000000002776000000000279900000000028140000000002806000000000281400054000000000000001441000000000004033439000000000000009999123100000010000000000000BRBBDCACNOR1683
012018080202BBDC4       010BRADESCO    PN  EJ  N1   R$  000000000306000000000031080000000003040000000000307900000000030920000000003086000000000309216271000000000008132300000000025046964700000000000000009999123100000010000000000000BRBBDCACNPR8683
012018080296BBDC4F      020BRADESCO    PN  EJ  N1   R$  000000000308300000000031030000000003045000000000307800000000030910000000003080000000000309100210000000000000005223000000000016078903000000000000009999123100000010000000000000BRBBDCACNPR8683
012018080262BBDC4T      030BRADESCO    PN  EJ  N1032R$  000000000311500000000031160000000003115000000000311500000000031160000000000000000000000000000002000000000000000400000000000001246200000000000000009999123100000010000000000000BRBBDCACNPR8683
012018080278BBDCH28     070BBDC  FM/EJ ON      N1000R$  000000000007800000000000780000000000078000000000007800000000000780000000000000000000000000000001000000000000000200000000000000015600000000000278902018082000000010000000000000BRBBDCACNOR1679
012018080278BBDCH281    070BBDC    /EJ PN      N1000R$  000000000028000000000002800000000000280000000000028000000000002800000000000270000000000000000001000000000000001000000000000000280000000000000279002018082000000010000000000000BRBBDCACNPR8680
012018080278BBDCH303    070BBDC    /EJ PN      N1000R$  000000000011200000000001320000000000112000000000012300000000001220000000000000000000000015000004000000000000002300000000000000284600000000000301702018082000000010000000000000BRBBDCACNPR8679
012018080278BBDCH313    070BBDC    /EJ PN      N1000R$  000000000005400000000000700000000000054000000000006200000000000700000000000062000000000009800002000000000000002000000000000000124000000000000310802018082000000010000000000000BRBBDCACNPR8679
012018080278BBDCH322    070BBDC  FM/EJ PN      N1000R$  000000000003000000000000350000000000022000000000002900000000000330000000000020000000000003900010000000000000033300000000000000971800000000000319902018082000000010000000000000BRBBDCACNPR8679
012018080278BBDCH332    070BBDC  FM/EJ PN      N1000R$  000000000001000000000000170000000000009000000000001100000000000140000000000014000000000002900018000000000000055800000000000000660700000000000329902018082000000010000000000000BRBBDCACNPR8679
012018080278BBDCH340    070BBDC  FM/EJ PN      N1000R$  000000000000800000000000100000000000005000000000000500000000000050000000000000000000000000500019000000000000435000000000000002382300000000000338102018082000000010000000000000BRBBDCACNPR8679
012018080278BBDCH422    070BBDCE    /EJPN      N1000R$  000000000000100000000000010000000000001000000000000100000000000010000000000000000000000000000001000000000000010000000000000000010000000000000381002018082000000010000000000000BRBBDCACNPR8675
012018080278BBDCH6      070BBDCE    /EJPN      N1000R$  000000000005600000000000560000000000055000000000005500000000000550000000000050000000000005800002000000000000400000000000000022200000000000000313302018082000000010000000000000BRBBDCACNPR8680
012018080278BBDCH61     070BBDC  FM/EJ PN      N1000R$  000000000008500000000001020000000000075000000000009300000000000930000000000090000000000009600014000000000000054180000000000005080780000000000306002018082000000010000000000000BRBBDCACNPR8668
012018080278BBDCH73     070BBDCE    /EJPN      N1000R$  000000000021200000000002190000000000212000000000021400000000002190000000000000000000000000000003000000000000000640000000000000137080000000000290102018082000000010000000000000BRBBDCACNPR8667
012018080278BBDCH82     070BBDCE    /EJPN      N1000R$  000000000002000000000000220000000000020000000000002100000000000220000000000013000000000000000007000000000000040000000000000000865000000000000322402018082000000010000000000000BRBBDCACNPR8682
012018080278BBDCH91     070BBDC  FM/EJ PN      N1000R$  000000000016100000000001640000000000154000000000015800000000001540000000000000000000000000000010000000000000014720000000000002339570000000000296902018082000000010000000000000BRBBDCACNPR8667
012018080278BBDCH96     070BBDCE    /EJPN      N1000R$  000000000006400000000000920000000000064000000000006900000000000850000000000015000000000000000005000000000000004400000000000000307400000000000308302018082000000010000000000000BRBBDCACNPR8667
012018080278BBDCH97     070BBDCE    /EJPN      N1000R$  000000000003400000000000380000000000031000000000003500000000000380000000000000000000000000000011000000000000022000000000000000771000000000000317402018082000000010000000000000BRBBDCACNPR8668
012018080278BBDCI1      070BBDCE    /EJPN      N1000R$  000000000024000000000002450000000000240000000000024100000000002450000000000000000000000000000002000000000000002000000000000000482500000000000293202018091700000010000000000000BRBBDCACNPR8667
012018080278BBDCI25     070BBDCE    /EJPN      N1000R$  000000000014000000000001400000000000128000000000013600000000001280000000000000000000000000000002000000000000001900000000000000260000000000000311402018091700000010000000000000BRBBDCACNPR8668
012018080278BBDCI295    070BBDC  FM/EJ PN      N1000R$  000000000021600000000002380000000000216000000000022700000000002380000000000000000000000000000004000000000000012000000000000002724000000000000295702018091700000010000000000000BRBBDCACNPR8682
012018080278BBDCI304    070BBDC    /EJ PN      N1000R$  000000000017100000000001710000000000169000000000017000000000001690000000000000000000000000000002000000000000004700000000000000800500000000000303902018091700000010000000000000BRBBDCACNPR8682
012018080278BBDCI309    070BBDCE    /EJPN      N1000R$  000000000015800000000001580000000000158000000000015800000000001580000000000000000000000000000001000000000000000500000000000000079000000000000307802018091700000010000000000000BRBBDCACNPR8680
012018080278BBDCI341    070BBDC  FM/EJ PN      N1000R$  000000000003500000000000350000000000035000000000003500000000000350000000000000000000000000000001000000000000002000000000000000070000000000000341202018091700000010000000000000BRBBDCACNPR8682
012018080278BBDCJ313    070BBDC    /EJ PN      N1000R$  000000000017700000000001770000000000177000000000017700000000001770000000000000000000000000000001000000000000238000000000000042126000000000000313302018101500000010000000000000BRBBDCACNPR8682
012018080278BBDCJ354    070BBDC    /EJ PN      N1000R$  000000000005300000000000530000000000053000000000005300000000000530000000000000000000000000000001000000000000238000000000000012614000000000000354002018101500000010000000000000BRBBDCACNPR8682
012018080278BBDCJ95     070BBDCE    /EJPN      N1000R$  000000000113600000000011360000000001136000000000113600000000011360000000000000000000000000000001000000000000097515000000000110777040000000000197302018101500000010000000000000BRBBDCACNPR8655
012018080282BBDCT23     080BBDCE    /EJPN      N1000R$  000000000001100000000000110000000000009000000000000900000000000090000000000002000000000001800003000000000001015000000000000009165000000000000283302018082000000010000000000000BRBBDCACNPR8668
012018080282BBDCT303    080BBDCE    /EJPN      N1000R$  000000000005700000000000570000000000043000000000005300000000000430000000000000000000000005800004000000000000007000000000000000371000000000000301702018082000000010000000000000BRBBDCACNPR8679
012018080282BBDCT322    080BBDCE  FM/EJPN      N1000R$  000000000015000000000001500000000000132000000000013900000000001320000000000000000000000000000007000000000000011300000000000001572200000000000319902018082000000010000000000000BRBBDCACNPR8679
012018080282BBDCT52     080BBDCE  FM/EJPN      N1000R$  000000000001600000000000160000000000012000000000001300000000000120000000000000000000000001300003000000000000008000000000000000108000000000000287902018082000000010000000000000BRBBDCACNPR8668
012018080282BBDCT6      080BBDCE    /EJPN      N1000R$  000000000011500000000001150000000000090000000000010200000000000900000000000000000000000000000005000000000000007500000000000000770500000000000313302018082000000010000000000000BRBBDCACNPR8680
012018080282BBDCT61     080BBDCE    /EJPN      N1000R$  000000000007300000000000800000000000056000000000006200000000000560000000000051000000000000000010000000000000031980000000000002007000000000000306002018082000000010000000000000BRBBDCACNPR8668
012018080282BBDCT73     080BBDCE    /EJPN      N1000R$  000000000002700000000000270000000000010000000000001600000000000130000000000011000000000003600003000000000000000300000000000000005000000000000290102018082000000010000000000000BRBBDCACNPR8667
012018080282BBDCT84     080BBDCE  FM/EJPN      N1000R$  000000000004100000000000410000000000035000000000003700000000000360000000000000000000000003700008000000000000027930000000000001036670000000000299202018082000000010000000000000BRBBDCACNPR8667
012018080282BBDCT92     080BBDCE    /EJPN      N1000R$  000000000000100000000000010000000000001000000000000100000000000010000000000000000000000000100004000000000000014000000000000000014000000000000231002018082000000010000000000000BRBBDCACNPR8667
012018080282BBDCT96     080BBDCE  FM/EJPN      N1000R$  000000000008200000000000830000000000064000000000006900000000000640000000000000000000000006900013000000000000024620000000000001705740000000000308302018082000000010000000000000BRBBDCACNPR8667
012018080282BBDCU260    080BBDCE    /EJPN      N1000R$  000000000001800000000000200000000000014000000000001700000000000140000000000014000000000002000024000000000000083200000000000001426400000000000258302018091700000010000000000000BRBBDCACNPR8680
012018080282BBDCU309    080BBDCE  FM/EJPN      N1000R$  000000000014000000000001400000000000125000000000013900000000001250000000000000000000000000000002000000000000006200000000000000865000000000000307802018091700000010000000000000BRBBDCACNPR8680
012018080282BBDCU41     080BBDCE    /EJPN      N1000R$  000000000004300000000000430000000000043000000000004300000000000430000000000000000000000004500001000000000000000100000000000000004300000000000278502018091700000010000000000000BRBBDCACNPR8668
012018080282BBDCU86     080BBDCE    /EJPN      N1000R$  000000000005600000000000560000000000052000000000005200000000000520000000000000000000000000000002000000000000019800000000000001030400000000000284102018091700000010000000000000BRBBDCACNPR8656
012018080282BBDCW44     080BBDCE    /EJPN      N1000R$  000000000020000000000002000000000000200000000000020000000000002000000000000000000000000000000001000000000000100000000000000020000000000000000306602018111900000010000000000000BRBBDCACNPR8670
012018080212BBFI11B     010FII BB PROGRCI  ER  MB   R$  000000020299900000002029990000000198000000000020100100000001999150000000199903000000020204000036000000000000000107000000000021507181000000000000009999123100000010000000000000BRBBFICTF006257
012018080212BBPO11      010FII BB PRGIICI  ER       R$  000000001290000000000129010000000012836000000001286100000000128550000000012855000000001286500452000000000000015658000000000201389043000000000000009999123100000010000000000000BRBBPOCTF003169
012018080212BBRC11      010FII BB CORP CI  ER       R$  000000001385000000000140490000000013700000000001385200000000137000000000013700000000001399700040000000000000000797000000000011040569000000000000009999123100000010000000000000BRBBRCCTF004183
012018080202BBRK3       010BR BROKERS  ON      NM   R$  000000000003200000000000330000000000031000000000003100000000000320000000000032000000000003300495000000000002248300000000000071837400000000000000009999123100000010000000000000BRBBRKACNOR4112
012018080296BBRK3F      020BR BROKERS  ON      NM   R$  000000000003500000000000350000000000034000000000003400000000000340000000000030000000000003400008000000000000000595000000000000020726000000000000009999123100000010000000000000BRBBRKACNOR4112
012018080214BBSD11      010BB ETF SP DVCI           R$  000000000576700000000058280000000005767000000000580500000000058190000000000000000000000000000009000000000000000330000000000001915860000000000000009999123100000010000000000000BRBBSDCTF000100
012018080202BBSE3       010BBSEGURIDADEON      NM   R$  000000000246500000000024950000000002462000000000248200000000024900000000002487000000000249509332000000000001362600000000003383218700000000000000009999123100000010000000000000BRBBSEACNOR5110
012018080296BBSE3F      020BBSEGURIDADEON      NM   R$  000000000248400000000024910000000002461000000000248000000000024820000000002482000000000250000129000000000000002912000000000007221927000000000000009999123100000010000000000000BRBBSEACNOR5110
012018080262BBSE3T      030BBSEGURIDADEON      NM032R$  000000000249000000000025000000000002490000000000249300000000025000000000000000000000000000000004000000000000000600000000000001496316000000000000009999123100000010000000000000BRBBSEACNOR5110
012018080278BBSEH54     070BBSE  FM    ON      NM000R$  000000000006800000000000690000000000068000000000006800000000000690000000000000000000000000000003000000000000010000000000000000684000000000000247602018082000000010000000000000BRBBSEACNOR5110
012018080278BBSEH55     070BBSE  FM    ON      NM000R$  000000000002700000000000270000000000027000000000002700000000000270000000000000000000000000000001000000000000002000000000000000054000000000000257602018082000000010000000000000BRBBSEACNOR5110
012018080278BBSEH56     070BBSE  FM    ON      NM000R$  000000000000800000000000080000000000008000000000000800000000000080000000000009000000000001200001000000000000003000000000000000024000000000000267602018082000000010000000000000BRBBSEACNOR5110
012018080278BBSEH57     070BBSE  FM    ON      NM000R$  000000000000700000000000070000000000002000000000000400000000000050000000000000000000000000600009000000000000031500000000000000149500000000000277602018082000000010000000000000BRBBSEACNOR5110
012018080278BBSEH67     070BBSE        ON      NM000R$  000000000005100000000000510000000000051000000000005100000000000510000000000000000000000000000001000000000000001000000000000000051000000000000252602018082000000010000000000000BRBBSEACNOR5108
012018080278BBSEH76     070BBSEE       ON      NM000R$  000000000005000000000000500000000000050000000000005000000000000500000000000000000000000000000001000000000000000300000000000000015000000000000250102018082000000010000000000000BRBBSEACNOR5108
012018080278BBSEH77     070BBSEE       ON      NM000R$  000000000003400000000000340000000000034000000000003400000000000340000000000000000000000000000001000000000000001500000000000000051000000000000255102018082000000010000000000000BRBBSEACNOR5108
012018080278BBSEI245    070BBSE  FM    ON      NM000R$  000000000010900000000001090000000000109000000000010900000000001090000000000110000000000000000001000000000000000200000000000000021800000000000245502018091700000010000000000000BRBBSEACNOR5110
012018080278BBSEI25     070BBSE        ON      NM000R$  000000000009000000000000900000000000088000000000008800000000000880000000000000000000000000000002000000000000000600000000000000053200000000000250502018091700000010000000000000BRBBSEACNOR5110
012018080278BBSEI26     070BBSE        ON      NM000R$  000000000005000000000000500000000000050000000000005000000000000500000000000050000000000000000001000000000000000500000000000000025000000000000260502018091700000010000000000000BRBBSEACNOR5110
012018080278BBSEI56     070BBSE  FM    ON      NM000R$  000000000004100000000000410000000000041000000000004100000000000410000000000000000000000000000001000000000000001000000000000000041000000000000265502018091700000010000000000000BRBBSEACNOR5110
012018080282BBSET53     080BBSEE  FM   ON      NM000R$  000000000002000000000000200000000000020000000000002000000000000200000000000000000000000000000001000000000000002000000000000000040000000000000237602018082000000010000000000000BRBBSEACNOR5110
012018080282BBSET54     080BBSEE  FM   ON      NM000R$  000000000005100000000000520000000000051000000000005100000000000520000000000000000000000000000002000000000000000500000000000000025800000000000247602018082000000010000000000000BRBBSEACNOR5110
012018080282BBSEU245    080BBSEE  FM   ON      NM000R$  000000000007700000000000770000000000077000000000007700000000000770000000000000000000000000000001000000000000000300000000000000023100000000000245502018091700000010000000000000BRBBSEACNOR5110
012018080282BBSEU54     080BBSEE  FM   ON      NM000R$  000000000003900000000000390000000000039000000000003900000000000390000000000000000000000000000001000000000000000200000000000000007800000000000235502018091700000010000000000000BRBBSEACNOR5109
012018080212BBVJ11      010FII C JARDIMCI  ER       R$  000000000460000000000046000000000004500000000000455700000000045100000000004510000000000459800014000000000000001892000000000008621932000000000000009999123100000010000000000000BRBBVJCTF001187
012018080212BCFF11      010FII BC FFII CI           R$  000000000774000000000078000000000007740000000000776700000000077480000000007748000000000780000146000000000000004155000000000032274296000000000000009999123100000010000000000000BRBCFFCTF000202
012018080212BCRI11      010FII BEES CRICI  ER       R$  000000001049400000000104940000000010390000000001040200000000104200000000010406000000001042000051000000000000003902000000000040591445000000000000009999123100000010000000000000BRBCRICTF009139
012018080202BEEF3       010MINERVA     ON      NM   R$  000000000075200000000007560000000000739000000000074400000000007390000000000739000000000074103769000000000001024900000000000762540000000000000000009999123100000010000000000000BRBEEFACNOR6107
012018080296BEEF3F      020MINERVA     ON      NM   R$  000000000076500000000007650000000000738000000000074600000000007480000000000738000000000074800054000000000000001643000000000001226441000000000000009999123100000010000000000000BRBEEFACNOR6107
012018080202BEES3       010BANESTES    ON  EJ       R$  000000000036400000000003640000000000355000000000035900000000003630000000000358000000000036100023000000000000007700000000000002767400000000000000009999123100000010000000000000BRBEESACNOR9313
012018080296BEES3F      020BANESTES    ON  EJ       R$  000000000041500000000004150000000000381000000000038600000000003810000000000381000000000041500002000000000000000023000000000000008899000000000000009999123100000010000000000000BRBEESACNOR9313
012018080202BEES4       010BANESTES    PN  EJ       R$  000000000038700000000003870000000000379000000000038300000000003790000000000358000000000037500002000000000000000200000000000000076600000000000000009999123100000010000000000000BRBEESACNPR6238
012018080202BGIP4       010BANESE      PN           R$  000000000388300000000039980000000003883000000000392100000000039980000000003800000000000399900003000000000000000300000000000001176400000000000000009999123100000010000000000000BRBGIPACNPR8195
012018080202BIDI4       010BANCO INTER PN      N1   R$  000000000172500000000017580000000001720000000000173700000000017400000000001735000000000174800551000000000000269800000000000468770700000000000000009999123100000010000000000000BRBIDIACNPR0101
012018080296BIDI4F      020BANCO INTER PN      N1   R$  000000000171500000000017520000000001715000000000173500000000017400000000001740000000000174500075000000000000001834000000000003182914000000000000009999123100000010000000000000BRBIDIACNPR0101
012018080202BIOM3       010BIOMM       ON      MA   R$  000000000081700000000008480000000000785000000000081600000000008160000000000815000000000082900141000000000000039700000000000032417300000000000000009999123100000010000000000000BRBIOMACNOR2106
012018080296BIOM3F      020BIOMM       ON      MA   R$  000000000081500000000008150000000000815000000000081500000000008150000000000810000000000088800001000000000000000020000000000000016300000000000000009999123100000010000000000000BRBIOMACNOR2106
012018080202BKBR3       010BK BRASIL   ON      NM   R$  000000000145100000000014730000000001451000000000145700000000014590000000001459000000000146400125000000000000199400000000000290606800000000000000009999123100000010000000000000BRBKBRACNOR4100
012018080296BKBR3F      020BK BRASIL   ON      NM   R$  000000000144800000000014660000000001431000000000145200000000014560000000001431000000000149900008000000000000000280000000000000406599000000000000009999123100000010000000000000BRBKBRACNOR4100
012018080202BMEB3       010MERC BRASIL ON           R$  000000000061000000000006100000000000610000000000061000000000006100000000000610000000000065000001000000000000000100000000000000061000000000000000009999123100000010000000000000BRBMEBACNOR8194
012018080202BMEB4       010MERC BRASIL PN           R$  000000000056600000000005730000000000566000000000057000000000005730000000000562000000000057300009000000000000002600000000000001483100000000000000009999123100000010000000000000BRBMEBACNPR5199
012018080296BMEB4F      020MERC BRASIL PN           R$  000000000056600000000005660000000000565000000000056500000000005650000000000565000000000000000002000000000000000020000000000000011310000000000000009999123100000010000000000000BRBMEBACNPR5199
012018080296BMIN4F      020MERC INVEST PN           R$  000000000105100000000010510000000001051000000000105100000000010510000000001050000000000119000001000000000000000003000000000000003153000000000000009999123100000010000000000000BRBMINACNPR1169
012018080202BMKS3       010BIC MONARK  ON           R$  000000003200000000000320000000000032000000000003200000000000320000000000030000000000003400000002000000000000000010000000000000320000000000000000009999123100000010000000000000BRBMKSACNOR9160
012018080212BMLC11B     010FII BMBRC LCCI      MB   R$  000000000795700000000079570000000007948000000000795200000000079480000000000000000000000794800002000000000000000002000000000000015905000000000000009999123100000010000000000000BRBMLCCTF004177
012018080212BNFS11      010FII BANRISULCI  ER       R$  000000001125000000000113000000000011249000000001125400000000113000000000011150000000001130000007000000000000000059000000000000664040000000000000009999123100000010000000000000BRBNFSCTF000171
012018080202BOAC34      010BANK AMERICADRN          R$  000000001177100000000117710000000011771000000001177100000000117710000000000000000000000000000001000000000000000400000000000004708400000000000000009999123100000010000000000000BRBOACBDR004131
012018080202BOBR4       010BOMBRIL     PN           R$  000000000032500000000003300000000000317000000000032500000000003280000000000316000000000032800048000000000000037400000000000012191400000000000000009999123100000010000000000000BRBOBRACNPR3128
012018080214BOVA11      010ISHARES BOVACI           R$  000000000762500000000077130000000007580000000000765100000000076950000000007685000000000769515429000000000001929680000000014765778660000000000000009999123100000010000000000000BRBOVACTF003103
012018080296BOVA11F     020ISHARES BOVACI           R$  000000000764600000000077170000000007587000000000762500000000076830000000007682000000000771700034000000000000000189000000000001441280000000000000009999123100000010000000000000BRBOVACTF003103
012018080278BOVAH72     070BOVA        CI        000R$  000000000044200000000004420000000000442000000000044200000000004420000000000000000000000000000001000000000000000030000000000000013260000000000720002018082000000010000000000000BRBOVACTF003103
012018080278BOVAH74     070BOVA        CI        000R$  000000000035800000000003580000000000358000000000035800000000003580000000000000000000000000000001000000000000000210000000000000075180000000000740002018082000000010000000000000BRBOVACTF003103
012018080278BOVAH75     070BOVA        CI        000R$  000000000024000000000002820000000000240000000000024200000000002820000000000243000000000000000002000000000000000210000000000000050820000000000750002018082000000010000000000000BRBOVACTF003103
012018080278BOVAH76     070BOVA  FM    CI        000R$  000000000015500000000002100000000000155000000000019100000000002100000000000178000000000021100007000000000000007500000000000001432500000000000760002018082000000010000000000000BRBOVACTF003103
012018080278BOVAH77     070BOVA  FM    CI        000R$  000000000011400000000001490000000000114000000000013900000000001490000000000000000000000015200007000000000000001400000000000000195800000000000770002018082000000010000000000000BRBOVACTF003103
012018080278BOVAH78     070BOVA  FM    CI        000R$  000000000006500000000001010000000000065000000000008100000000001010000000000000000000000000000012000000000000003200000000000000260700000000000780002018082000000010000000000000BRBOVACTF003103
012018080278BOVAH79     070BOVA  FM    CI        000R$  000000000003800000000000640000000000038000000000005500000000000640000000000000000000000006500003000000000000000560000000000000030960000000000790002018082000000010000000000000BRBOVACTF003103
012018080278BOVAH90     070BOVA        CI        000R$  000000000000200000000000020000000000002000000000000200000000000020000000000000000000000000000001000000000000002500000000000000005000000000000900002018082000000010000000000000BRBOVACTF003103
012018080278BOVAI76     070BOVA  FM    CI        000R$  000000000031500000000003150000000000315000000000031500000000003150000000000000000000000000000001000000000000003500000000000001102500000000000760002018091700000010000000000000BRBOVACTF003103
012018080278BOVAI79     070BOVA  FM    CI        000R$  000000000016500000000001780000000000165000000000017300000000001780000000000000000000000017800004000000000000000500000000000000086500000000000790002018091700000010000000000000BRBOVACTF003103
012018080278BOVAI80     070BOVA  FM    CI        000R$  000000000013500000000001350000000000135000000000013500000000001350000000000000000000000013800001000000000000002000000000000000270000000000000800002018091700000010000000000000BRBOVACTF003103
012018080278BOVAI84     070BOVA        CI        000R$  000000000007900000000000790000000000079000000000007900000000000790000000000000000000000000000001000000000000002000000000000000158000000000000840002018091700000010000000000000BRBOVACTF003103
012018080278BOVAL90     070BOVA        CI        000R$  000000000010500000000001280000000000105000000000011500000000001160000000000108000000000013000022000000000000017190000000000001980440000000000900002018121700000010000000000000BRBOVACTF003103
012018080282BOVAT66     080BOVAE       CI        000R$  000000000000100000000000010000000000001000000000000100000000000010000000000000000000000000000001000000000000000500000000000000000500000000000660002018082000000010000000000000BRBOVACTF003103
012018080282BOVAT67     080BOVAE       CI        000R$  000000000000200000000000020000000000002000000000000200000000000020000000000000000000000002000001000000000000000500000000000000001000000000000670002018082000000010000000000000BRBOVACTF003103
012018080282BOVAT68     080BOVAE       CI        000R$  000000000000200000000000020000000000002000000000000200000000000020000000000002000000000000500002000000000000006500000000000000013000000000000680002018082000000010000000000000BRBOVACTF003103
012018080282BOVAT70     080BOVAE       CI        000R$  000000000001000000000000100000000000010000000000001000000000000100000000000000000000000000000001000000000000002000000000000000020000000000000700002018082000000010000000000000BRBOVACTF003103
012018080282BOVAT72     080BOVAE       CI        000R$  000000000001300000000000130000000000013000000000001300000000000130000000000000000000000000000001000000000000001800000000000000023400000000000720002018082000000010000000000000BRBOVACTF003103
012018080282BOVAT73     080BOVAE       CI        000R$  000000000003800000000000380000000000038000000000003800000000000380000000000005000000000000000001000000000000001000000000000000038000000000000730002018082000000010000000000000BRBOVACTF003103
012018080282BOVAT74     080BOVAE       CI        000R$  000000000004200000000000420000000000039000000000004100000000000390000000000039000000000011300002000000000000015210000000000000638190000000000740002018082000000010000000000000BRBOVACTF003103
012018080282BOVAT75     080BOVAE  FM   CI        000R$  000000000009000000000000940000000000068000000000008800000000000680000000000000000000000009200005000000000000006500000000000000574000000000000750002018082000000010000000000000BRBOVACTF003103
012018080282BOVAT76     080BOVAE  FM   CI        000R$  000000000013300000000001350000000000125000000000013100000000001250000000000000000000000000000004000000000000002200000000000000289600000000000760002018082000000010000000000000BRBOVACTF003103
012018080282BOVAT77     080BOVAE  FM   CI        000R$  000000000019100000000001910000000000132000000000014000000000001320000000000000000000000000000004000000000000006400000000000000898100000000000770002018082000000010000000000000BRBOVACTF003103
012018080282BOVAT78     080BOVAE  FM   CI        000R$  000000000019900000000001990000000000183000000000019400000000001920000000000000000000000019900009000000000000005100000000000000994100000000000780002018082000000010000000000000BRBOVACTF003103
012018080282BOVAT84     080BOVAE       CI        000R$  000000000078000000000007800000000000730000000000075500000000007300000000000000000000000000000003000000000000020000000000000015100000000000000840002018082000000010000000000000BRBOVACTF003103
012018080282BOVAU64     080BOVAE       CI        000R$  000000000000200000000000020000000000002000000000000200000000000020000000000003000000000000000001000000000000002000000000000000004000000000000640002018091700000010000000000000BRBOVACTF003103
012018080282BOVAU70     080BOVAE       CI        000R$  000000000005400000000000540000000000052000000000005300000000000520000000000040000000000000000003000000000000004500000000000000238500000000000700002018091700000010000000000000BRBOVACTF003103
012018080282BOVAU71     080BOVAE       CI        000R$  000000000006000000000000600000000000060000000000006000000000000600000000000000000000000000000001000000000000001800000000000000108000000000000710002018091700000010000000000000BRBOVACTF003103
012018080282BOVAU72     080BOVAE       CI        000R$  000000000008000000000000800000000000080000000000008000000000000800000000000000000000000000000001000000000000002000000000000000160000000000000720002018091700000010000000000000BRBOVACTF003103
012018080282BOVAU73     080BOVAE       CI        000R$  000000000010500000000001050000000000105000000000010500000000001050000000000000000000000000000001000000000000000300000000000000031500000000000730002018091700000010000000000000BRBOVACTF003103
012018080282BOVAU75     080BOVAE  FM   CI        000R$  000000000016100000000001610000000000155000000000015900000000001610000000000000000000000016100011000000000000002550000000000000407650000000000750002018091700000010000000000000BRBOVACTF003103
012018080282BOVAU76     080BOVAE  FM   CI        000R$  000000000019200000000001920000000000192000000000019200000000001920000000000000000000000019900001000000000000007300000000000001401600000000000760002018091700000010000000000000BRBOVACTF003103
012018080282BOVAU77     080BOVAE  FM   CI        000R$  000000000028200000000002820000000000241000000000027500000000002410000000000000000000000000000002000000000000001200000000000000330200000000000770002018091700000010000000000000BRBOVACTF003103
012018080214BOVV11      010IT NOW IBOV CI           R$  000000000790100000000080040000000007900000000000795500000000079820000000007982000000000900000048000000000000043280000000000344333280000000000000009999123100000010000000000000BRBOVVCTF009100
012018080282BOVVX70     080BOVVE       CI        000R$  000000000029200000000002920000000000292000000000029200000000002920000000000000000000000030000002000000000000006000000000000001752000000000000700002018121700000010000000000000BRBOVVCTF009100
012018080202BPAC11      010BTGP BANCO  UNT          R$  000000000193500000000019780000000001935000000000196800000000019700000000001950000000000197000493000000000000314500000000000619004800000000000000009999123100000010000000000000BRBPACUNT006102
012018080296BPAC11F     020BTGP BANCO  UNT          R$  000000000197100000000019900000000001960000000000197000000000019900000000001950000000000199900008000000000000000133000000000000262065000000000000009999123100000010000000000000BRBPACUNT006102
012018080202BPAN4       010BANCO PAN   PN      N1   R$  000000000017300000000001770000000000173000000000017400000000001760000000000175000000000017600037000000000000026300000000000004583200000000000000009999123100000010000000000000BRBPANACNPR1106
012018080296BPAN4F      020BANCO PAN   PN      N1   R$  000000000017600000000001760000000000176000000000017600000000001760000000000174000000000017600003000000000000000071000000000000012496000000000000009999123100000010000000000000BRBPANACNPR1106
012018080212BPFF11      010FII ABSOLUTOCI  ER       R$  000000000916000000000092490000000009150000000000917100000000091500000000009135000000000924200686000000000000001358000000000012455181000000000000009999123100000010000000000000BRBPFFCTF002165
012018080208BPHA3       010BR PHARMA   ON      NM   R$  000000000016600000000001770000000000166000000000017000000000001660000000000166000000000016800073000000000000093300000000000015907100000000000000009999123100000010000000000000BRBPHAACNOR6105
012018080296BPHA3F      020BR PHARMA   ON      NM   R$  000000000017000000000001700000000000150000000000015600000000001700000000000167000000000017200006000000000000000086000000000000013430000000000000009999123100000010000000000000BRBPHAACNOR6105
012018080202BRAP3       010BRADESPAR   ON      N1   R$  000000000276000000000028000000000002717000000000275600000000027990000000002748000000000279900049000000000000016900000000000046587000000000000000009999123100000010000000000000BRBRAPACNOR5133
012018080296BRAP3F      020BRADESPAR   ON      N1   R$  000000000272000000000028000000000002711000000000273700000000028000000000002776000000000306800008000000000000000158000000000000432457000000000000009999123100000010000000000000BRBRAPACNOR5133
012018080202BRAP4       010BRADESPAR   PN      N1   R$  000000000311900000000031680000000003061000000000312300000000031420000000003142000000000314604059000000000000821700000000002566843700000000000000009999123100000010000000000000BRBRAPACNPR2133
012018080296BRAP4F      020BRADESPAR   PN      N1   R$  000000000311200000000031650000000003071000000000312500000000031400000000003140000000000316000050000000000000001279000000000003997450000000000000009999123100000010000000000000BRBRAPACNPR2133
012018080262BRAP4T      030BRADESPAR   PN      N1180R$  000000000320300000000032040000000003203000000000320300000000032040000000000000000000000000000002000000000000000500000000000001601872000000000000009999123100000010000000000000BRBRAPACNPR2133
012018080282BRAPT312    080BRAPE  FM   PN      N1000R$  000000000004800000000000480000000000031000000000003900000000000310000000000000000000000000000002000000000000002400000000000000094800000000000299602018082000000010000000000000BRBRAPACNPR2132
012018080282BRAPU30     080BRAPE  FM   PN      N1000R$  000000000010100000000001010000000000101000000000010100000000001010000000000000000000000000000001000000000000000100000000000000010100000000000300002018091700000010000000000000BRBRAPACNPR2133
012018080282BRAPU31     080BRAPE  FM   PN      N1000R$  000000000014300000000001430000000000143000000000014300000000001430000000000000000000000000000001000000000000000100000000000000014300000000000310002018091700000010000000000000BRBRAPACNPR2133
012018080214BRAX11      010ISHARES BRAXCI           R$  000000000642200000000064600000000006422000000000645500000000064550000000000000000000000645500008000000000000001420000000000009167420000000000000009999123100000010000000000000BRBRAXCTF002100
012018080296BRAX11F     020ISHARES BRAXCI           R$  000000000609900000000060990000000005999000000000601300000000059990000000004000000000000559900002000000000000000007000000000000042093000000000000009999123100000010000000000000BRBRAXCTF002100
012018080212BRCR11      010FII BC FUND CI           R$  000000000889900000000090300000000008861000000000893900000000090180000000008990000000000901800517000000000000031499000000000281588059000000000000009999123100000010000000000000BRBRCRCTF000191
012018080202BRDT3       010PETROBRAS BRON  ED  NM   R$  000000000196500000000019840000000001915000000000193400000000019510000000001942000000000195108613000000000003078000000000005953920600000000000000009999123100000010000000000000BRBRDTACNOR1116
012018080296BRDT3F      020PETROBRAS BRON  ED  NM   R$  000000000195000000000019720000000001916000000000193700000000019440000000001920000000000194400070000000000000002473000000000004792508000000000000009999123100000010000000000000BRBRDTACNOR1116
012018080262BRDT3T      030PETROBRAS BRON  ED  NM018R$  000000000193600000000019370000000001935000000000193600000000019360000000000000000000000000000004000000000000009000000000000017426309000000000000009999123100000010000000000000BRBRDTACNOR1116
012018080262BRDT3T      030PETROBRAS BRON  ED  NM032R$  000000000194300000000019440000000001943000000000194300000000019440000000000000000000000000000002000000000000001000000000000001943592000000000000009999123100000010000000000000BRBRDTACNOR1116
012018080202BRFS3       010BRF SA      ON      NM   R$  000000000226500000000022930000000002236000000000226700000000022540000000002253000000000225409471000000000002884900000000006541846900000000000000009999123100000010000000000000BRBRFSACNOR8118
012018080296BRFS3F      020BRF SA      ON      NM   R$  000000000229800000000022980000000002243000000000226600000000022720000000002259000000000227200125000000000000003349000000000007589517000000000000009999123100000010000000000000BRBRFSACNOR8118
012018080262BRFS3T      030BRF SA      ON      NM018R$  000000000227300000000022750000000002262000000000227300000000022630000000000000000000000000000008000000000000085000000000000193252212000000000000009999123100000010000000000000BRBRFSACNOR8118
012018080262BRFS3T      030BRF SA      ON      NM032R$  000000000228700000000022880000000002287000000000228700000000022880000000000000000000000000000002000000000000006400000000000014641132000000000000009999123100000010000000000000BRBRFSACNOR8118
012018080262BRFS3T      030BRF SA      ON      NM049R$  000000000230000000000023010000000002300000000000230000000000023010000000000000000000000000000002000000000000001000000000000002300151000000000000009999123100000010000000000000BRBRFSACNOR8118
012018080262BRFS3T      030BRF SA      ON      NM090R$  000000000231300000000023140000000002289000000000231200000000022900000000000000000000000000000006000000000000031500000000000072830550000000000000009999123100000010000000000000BRBRFSACNOR8118
012018080262BRFS3T      030BRF SA      ON      NM153R$  000000000235300000000023540000000002353000000000235300000000023540000000000000000000000000000002000000000000002000000000000004707914000000000000009999123100000010000000000000BRBRFSACNOR8118
012018080262BRFS3T      030BRF SA      ON      NM180R$  000000000234800000000023490000000002348000000000234800000000023490000000000000000000000000000002000000000000100000000000000234808800000000000000009999123100000010000000000000BRBRFSACNOR8118
012018080278BRFSH20     070BRFS        ON      NM000R$  000000000031500000000003150000000000271000000000030000000000002710000000000000000000000000000002000000000000000300000000000000090100000000000200002018082000000010000000000000BRBRFSACNOR8118
012018080278BRFSH22     070BRFS  FM    ON      NM000R$  000000000012200000000001230000000000122000000000012200000000001230000000000000000000000000000005000000000000010200000000000001244600000000000220002018082000000010000000000000BRBRFSACNOR8118
012018080278BRFSH23     070BRFS  FM    ON      NM000R$  000000000006900000000000760000000000066000000000006900000000000660000000000000000000000000000035000000000000081000000000000005634200000000000230002018082000000010000000000000BRBRFSACNOR8118
012018080278BRFSH235    070BRFS        ON      NM000R$  000000000005700000000000570000000000045000000000005200000000000450000000000000000000000005000010000000000000063200000000000003312300000000000235002018082000000010000000000000BRBRFSACNOR8118
012018080278BRFSH24     070BRFS  FM    ON      NM000R$  000000000003300000000000420000000000033000000000003700000000000340000000000025000000000003500015000000000000045300000000000001701900000000000240002018082000000010000000000000BRBRFSACNOR8118
012018080278BRFSH245    070BRFS        ON      NM000R$  000000000002300000000000230000000000023000000000002300000000000230000000000000000000000000000001000000000000001000000000000000023000000000000245002018082000000010000000000000BRBRFSACNOR8118
012018080278BRFSH250    070BRFS  FM    ON      NM000R$  000000000001800000000000180000000000014000000000001600000000000150000000000014000000000001700011000000000000053300000000000000859700000000000250002018082000000010000000000000BRBRFSACNOR8118
012018080278BRFSH26     070BRFS  FM    ON      NM000R$  000000000000800000000000100000000000006000000000000700000000000060000000000005000000000000800010000000000000025300000000000000189000000000000260002018082000000010000000000000BRBRFSACNOR8118
012018080278BRFSH27     070BRFS        ON      NM000R$  000000000000400000000000040000000000003000000000000300000000000030000000000002000000000000500004000000000000013600000000000000053400000000000270002018082000000010000000000000BRBRFSACNOR8118
012018080278BRFSH28     070BRFS        ON      NM000R$  000000000000200000000000020000000000002000000000000200000000000020000000000000000000000001000001000000000000005000000000000000010000000000000280002018082000000010000000000000BRBRFSACNOR8118
012018080278BRFSI22     070BRFS  FM    ON      NM000R$  000000000016600000000001660000000000166000000000016600000000001660000000000000000000000000000001000000000000002000000000000000332000000000000220002018091700000010000000000000BRBRFSACNOR8118
012018080278BRFSI230    070BRFS  FM    ON      NM000R$  000000000012000000000001200000000000115000000000011700000000001150000000000081000000000025000002000000000000002000000000000000235000000000000230002018091700000010000000000000BRBRFSACNOR8118
012018080278BRFSI24     070BRFS  FM    ON      NM000R$  000000000007300000000000820000000000073000000000008100000000000820000000000061000000000000000010000000000000021100000000000001713300000000000240002018091700000010000000000000BRBRFSACNOR8118
012018080278BRFSI25     070BRFS  FM    ON      NM000R$  000000000004500000000000500000000000045000000000004800000000000500000000000035000000000005800003000000000000007200000000000000349000000000000250002018091700000010000000000000BRBRFSACNOR8118
012018080278BRFSI260    070BRFS  FM    ON      NM000R$  000000000002500000000000300000000000025000000000002700000000000300000000000027000000000003000004000000000000011000000000000000305000000000000260002018091700000010000000000000BRBRFSACNOR8118
012018080278BRFSK22     070BRFS        ON      NM000R$  000000000024000000000002420000000000240000000000024100000000002420000000000000000000000000000002000000000000000200000000000000048200000000000220002018111900000010000000000000BRBRFSACNOR8118
012018080278BRFSL23     070BRFS        ON      NM000R$  000000000021000000000002100000000000210000000000021000000000002100000000000000000000000000000001000000000000000500000000000000105000000000000230002018121700000010000000000000BRBRFSACNOR8118
012018080278BRFSL55     070BRFS        ON      NM000R$  000000000010500000000001050000000000105000000000010500000000001050000000000100000000000000000001000000000000001000000000000000105000000000000255002018121700000010000000000000BRBRFSACNOR8118
012018080282BRFST20     080BRFSE       ON      NM000R$  000000000001200000000000140000000000012000000000001200000000000140000000000011000000000000000004000000000000050100000000000000601400000000000200002018082000000010000000000000BRBRFSACNOR8118
012018080282BRFST210    080BRFSE  FM   ON      NM000R$  000000000003200000000000320000000000032000000000003200000000000320000000000000000000000000000001000000000000000100000000000000003200000000000210002018082000000010000000000000BRBRFSACNOR8118
012018080282BRFST23     080BRFSE  FM   ON      NM000R$  000000000009300000000000980000000000093000000000009300000000000980000000000000000000000000000004000000000000004100000000000000383800000000000230002018082000000010000000000000BRBRFSACNOR8118
012018080282BRFSU50     080BRFSE       ON      NM000R$  000000000004000000000000400000000000040000000000004000000000000400000000000000000000000000000001000000000000000100000000000000004000000000000205002018091700000010000000000000BRBRFSACNOR8118
012018080202BRGE3       010ALFA CONSORCON           R$  000000000037100000000003710000000000371000000000037100000000003710000000000371000000000000000003000000000000000900000000000000333900000000000000009999123100000010000000000000BRBRGEACNOR6201
012018080202BRIN3       010BR INSURANCEON      NM   R$  000000000144700000000014900000000001421000000000144700000000014900000000001101000000000149000056000000000000016100000000000023308300000000000000009999123100000010000000000000BRBRINACNOR3111
012018080296BRIN3F      020BR INSURANCEON      NM   R$  000000000143900000000014390000000001430000000000143400000000014300000000001420000000000145000002000000000000000002000000000000002869000000000000009999123100000010000000000000BRBRINACNOR3111
012018080262BRIN3T      030BR INSURANCEON      NM030R$  000000000146900000000014700000000001469000000000146900000000014700000000000000000000000000000002000000000000002000000000000002938104000000000000009999123100000010000000000000BRBRINACNOR3111
012018080262BRIN3T      030BR INSURANCEON      NM045R$  000000000147200000000014730000000001472000000000147200000000014730000000000000000000000000000002000000000000002000000000000002945696000000000000009999123100000010000000000000BRBRINACNOR3111
012018080202BRIV3       010ALFA INVEST ON           R$  000000000050100000000005010000000000501000000000050100000000005010000000000500000000000052800001000000000000000200000000000000100200000000000000009999123100000010000000000000BRBRIVACNOR6205
012018080202BRIV4       010ALFA INVEST PN           R$  000000000066400000000006750000000000664000000000067100000000006740000000000660000000000067400005000000000000000700000000000000469900000000000000009999123100000010000000000000BRBRIVACNPR3206
012018080296BRIV4F      020ALFA INVEST PN           R$  000000000061300000000006130000000000613000000000061300000000006130000000000620000000000067300001000000000000000050000000000000030650000000000000009999123100000010000000000000BRBRIVACNPR3206
012018080202BRKM3       010BRASKEM     ON      N1   R$  000000000509100000000051100000000005091000000000510000000000051100000000005110000000000520000002000000000000000200000000000001020100000000000000009999123100000010000000000000BRBRKMACNOR1116
012018080202BRKM5       010BRASKEM     PNA     N1   R$  000000000543300000000054710000000005345000000000542100000000054370000000005424000000000543705312000000000000960100000000005204743400000000000000009999123100000010000000000000BRBRKMACNPA4116
012018080296BRKM5F      020BRASKEM     PNA     N1   R$  000000000549000000000054900000000005342000000000541000000000054470000000005377000000000544700079000000000000002374000000000012845430000000000000009999123100000010000000000000BRBRKMACNPA4116
012018080278BRKMH55     070BRKM  FM    PNA     N1000R$  000000000013000000000001300000000000108000000000011900000000001080000000000000000000000000000002000000000000000200000000000000023800000000000550002018082000000010000000000000BRBRKMACNPA4116
012018080278BRKMH57     070BRKM  FM    PNA     N1000R$  000000000004400000000000440000000000044000000000004400000000000440000000000000000000000000000001000000000000000100000000000000004400000000000570002018082000000010000000000000BRBRKMACNPA4116
012018080278BRKMI53     070BRKM  FM    PNA     N1000R$  000000000035000000000003500000000000350000000000035000000000003500000000000000000000000000000001000000000000000100000000000000035000000000000530002018091700000010000000000000BRBRKMACNPA4116
012018080282BRKMT18     080BRKME       PNA     N1000R$  000000000000700000000000070000000000007000000000000700000000000070000000000000000000000000000001000000000000005000000000000000035000000000000485002018082000000010000000000000BRBRKMACNPA4116
012018080202BRML3       010BR MALLS PARON      NM   R$  000000000101000000000010210000000000993000000000101200000000010160000000001011000000000101707345000000000003186600000000003224844100000000000000009999123100000010000000000000BRBRMLACNOR9110
012018080296BRML3F      020BR MALLS PARON      NM   R$  000000000101000000000010220000000000999000000000101100000000010220000000001013000000000102200036000000000000001221000000000001234489000000000000009999123100000010000000000000BRBRMLACNOR9110
012018080278BRMLH10     070BRML  FM    ON      NM000R$  000000000004200000000000420000000000041000000000004100000000000410000000000000000000000000000002000000000000003600000000000000151100000000000100002018082000000010000000000000BRBRMLACNOR9110
012018080278BRMLH102    070BRMLE       ON      NM000R$  000000000002100000000000210000000000021000000000002100000000000210000000000000000000000000000003000000000000015000000000000000315000000000000102502018082000000010000000000000BRBRMLACNOR9110
012018080278BRMLI40     070BRML  FM    ON      NM000R$  000000000003900000000000390000000000038000000000003800000000000380000000000000000000000000000003000000000000015000000000000000575000000000000105002018091700000010000000000000BRBRMLACNOR9110
012018080202BRPR3       010BR PROPERT  ON      NM   R$  000000000091100000000009140000000000896000000000090300000000009000000000000897000000000090000773000000000000157700000000000142411200000000000000009999123100000010000000000000BRBRPRACNOR9118
012018080296BRPR3F      020BR PROPERT  ON      NM   R$  000000000091700000000009170000000000898000000000090700000000008980000000000898000000000093300003000000000000000184000000000000166928000000000000009999123100000010000000000000BRBRPRACNOR9118
012018080262BRPR3T      030BR PROPERT  ON      NM180R$  000000000093600000000009470000000000936000000000094300000000009400000000000000000000000000000028000000000000011100000000000010468978000000000000009999123100000010000000000000BRBRPRACNOR9118
012018080202BRSR3       010BANRISUL    ON      N1   R$  000000000175400000000017540000000001702000000000173400000000017050000000001705000000000173900005000000000000001000000000000001734100000000000000009999123100000010000000000000BRBRSRACNOR3155
012018080202BRSR6       010BANRISUL    PNB     N1   R$  000000000157400000000016220000000001556000000000160300000000016160000000001614000000000161602343000000000000671800000000001077461100000000000000009999123100000010000000000000BRBRSRACNPB4158
012018080296BRSR6F      020BANRISUL    PNB     N1   R$  000000000156500000000016230000000001551000000000160400000000016170000000001609000000000161700038000000000000000933000000000001496558000000000000009999123100000010000000000000BRBRSRACNPB4158
012018080262BRSR6T      030BANRISUL    PNB     N1090R$  000000000164100000000016420000000001641000000000164100000000016420000000000000000000000000000002000000000000020000000000000032833888000000000000009999123100000010000000000000BRBRSRACNPB4158
012018080202BSEV3       010BIOSEV      ON      NM   R$  000000000033600000000003390000000000330000000000033200000000003360000000000336000000000033800015000000000000006100000000000002028400000000000000009999123100000010000000000000BRBSEVACNOR3102
012018080296BSEV3F      020BIOSEV      ON      NM   R$  000000000033000000000003450000000000330000000000033100000000003450000000000312000000000034500003000000000000000105000000000000034775000000000000009999123100000010000000000000BRBSEVACNOR3102
012018080202BTOW3       010B2W DIGITAL ON      NM   R$  000000000290900000000029870000000002888000000000296000000000029850000000002972000000000298505646000000000001607000000000004756850600000000000000009999123100000010000000000000BRBTOWACNOR8109
012018080296BTOW3F      020B2W DIGITAL ON      NM   R$  000000000290000000000029810000000002900000000000295800000000029590000000002959000000000298500101000000000000002873000000000008499648000000000000009999123100000010000000000000BRBTOWACNOR8109
012018080262BTOW3T      030B2W DIGITAL ON      NM018R$  000000000291900000000029200000000002919000000000291900000000029200000000000000000000000000000002000000000000003000000000000008758417000000000000009999123100000010000000000000BRBTOWACNOR8109
012018080296BTTL4F      020BATTISTELLA PN           R$  000000000028000000000002800000000000265000000000027600000000002650000000000265000000000030000002000000000000000032000000000000008855000000000000009999123100000010000000000000BRBTTLACNPR7108
012018080202CAML3       010CAMIL       ON      NM   R$  000000000063500000000006380000000000627000000000063100000000006340000000000631000000000063401419000000000000225000000000000142116900000000000000009999123100000010000000000000BRCAMLACNOR3101
