00COTAHIST.2018BOVESPA 20180731                                                                                                                                                                                                                      
012018073102AALR3       010ALLIAR      ON      NM   R$  000000000129500000000013190000000001293000000000130400000000013190000000001300000000000131900440000000000000146900000000000191686400000000000000009999123100000010000000000000BRAALRACNOR6100
012018073196AALR3F      020ALLIAR      ON      NM   R$  000000000131400000000013980000000001278000000000132600000000013980000000001300000000000139800014000000000000000285000000000000378006000000000000009999123100000010000000000000BRAALRACNOR6100
012018073102AAPL34      010APPLE       DRN          R$  000000000715000000000071770000000007150000000000715600000000071770000000006950000000000717700003000000000000003700000000000026478800000000000000009999123100000010000000000000BRAAPLBDR004125
012018073196AAPL34F     020APPLE       DRN          R$  000000000711800000000071250000000007118000000000712300000000071250000000007170000000000740000004000000000000000006000000000000042743000000000000009999123100000010000000000000BRAAPLBDR004125
012018073102ABCB4       010ABC BRASIL  PN      N2   R$  000000000156900000000015790000000001542000000000155000000000015520000000001550000000000155201586000000000000254700000000000394901200000000000000009999123100000010000000000000BRABCBACNPR4130
012018073196ABCB4F      020ABC BRASIL  PN      N2   R$  000000000156800000000015970000000001545000000000156500000000015500000000001550000000000156900027000000000000000714000000000001117419000000000000009999123100000010000000000000BRABCBACNPR4130
012018073112ABCP11      010FII ABC IMOBCI           R$  000000000156900000000015880000000001561000000000156900000000015750000000001570000000000157500316000000000000011665000000000018310390000000000000009999123100000010000000000000BRABCPCTF000273
012018073102ABEV3       010AMBEV S/A   ON           R$  000000000197000000000019790000000001924000000000194400000000019410000000001940000000000194123386000000000013110300000000025492648900000000000000009999123100000010000000000000BRABEVACNOR1120
012018073196ABEV3F      020AMBEV S/A   ON           R$  000000000197000000000019770000000001923000000000194600000000019400000000001939000000000194000267000000000000006016000000000011711823000000000000009999123100000010000000000000BRABEVACNOR1120
012018073162ABEV3T      030AMBEV S/A   ON        016R$  000000000195300000000019540000000001936000000000194700000000019490000000000000000000000000000010000000000000042100000000000082005019000000000000009999123100000010000000000000BRABEVACNOR1120
012018073162ABEV3T      030AMBEV S/A   ON        030R$  000000000195200000000019530000000001952000000000195200000000019530000000000000000000000000000002000000000000000160000000000000312363000000000000009999123100000010000000000000BRABEVACNOR1120
012018073178ABEVH18     070ABEV        ON        000R$  000000000016600000000001700000000000166000000000016700000000001690000000000030000000000030000005000000000000000600000000000000100600000000000178502018082000000010000000000000BRABEVACNOR1117
012018073178ABEVH19     070ABEV        ON        000R$  000000000008500000000000850000000000065000000000006500000000000650000000000063000000000010500037000000000000061000000000000003981000000000000188502018082000000010000000000000BRABEVACNOR1119
012018073178ABEVH20     070ABEV  FM    ON        000R$  000000000003800000000000380000000000017000000000002100000000000200000000000017000000000002100121000000000000657400000000000014432300000000000198502018082000000010000000000000BRABEVACNOR1118
012018073178ABEVH21     070ABEV        ON        000R$  000000000001300000000000130000000000008000000000000900000000000080000000000008000000000001400012000000000000130600000000000001235300000000000203502018082000000010000000000000BRABEVACNOR1116
012018073178ABEVH210    070ABEV  FM    ON        000R$  000000000000500000000000050000000000004000000000000400000000000040000000000001000000000001200004000000000000003900000000000000016000000000000208502018082000000010000000000000BRABEVACNOR1119
012018073178ABEVH49     070ABEV  FM    ON        000R$  000000000004000000000000400000000000037000000000003900000000000400000000000035000000000004800006000000000001016700000000000039927800000000000193502018082000000010000000000000BRABEVACNOR1117
012018073178ABEVH91     070ABEVE       ON        000R$  000000000001300000000000130000000000005000000000000800000000000050000000000004000000000002600004000000000000032500000000000000289500000000000206002018082000000010000000000000BRABEVACNOR1117
012018073178ABEVI19     070ABEV  FM    ON        000R$  000000000012000000000001200000000000084000000000010100000000000870000000000043000000000000000020000000000000076000000000000007695700000000000190102018091700000010000000000000BRABEVACNOR1119
012018073178ABEVI20     070ABEV  FM    ON        000R$  000000000006000000000000600000000000037000000000004400000000000420000000000037000000000013000019000000000000062400000000000002761000000000000200102018091700000010000000000000BRABEVACNOR1119
012018073178ABEVI49     070ABEV  FM    ON        000R$  000000000006300000000000630000000000057000000000005900000000000590000000000000000000000000000003000000000000036000000000000002148000000000000195102018091700000010000000000000BRABEVACNOR1119
012018073178ABEVI50     070ABEV  FM    ON        000R$  000000000003200000000000320000000000023000000000002400000000000230000000000000000000000000000003000000000000024200000000000000594400000000000205102018091700000010000000000000BRABEVACNOR1119
012018073178ABEVI51     070ABEV  FM    ON        000R$  000000000001000000000000100000000000010000000000001000000000000100000000000000000000000000000001000000000000012000000000000000120000000000000215102018091700000010000000000000BRABEVACNOR1119
012018073178ABEVJ50     070ABEV        ON        000R$  000000000003900000000000390000000000039000000000003900000000000390000000000000000000000000000001000000000000001000000000000000039000000000000208402018101500000010000000000000BRABEVACNOR1120
012018073182ABEVT19     080ABEVE  FM   ON        000R$  000000000001300000000000190000000000012000000000001400000000000140000000000012000000000010000012000000000000039800000000000000575000000000000188502018082000000010000000000000BRABEVACNOR1119
012018073182ABEVT2      080ABEVE       ON        000R$  000000000000600000000000060000000000006000000000000600000000000060000000000001000000000000800001000000000000002000000000000000012000000000000183502018082000000010000000000000BRABEVACNOR1117
012018073182ABEVT20     080ABEVE  FM   ON        000R$  000000000005000000000000640000000000050000000000005700000000000620000000000000000000000000000076000000000000310000000000000017882600000000000198502018082000000010000000000000BRABEVACNOR1118
012018073182ABEVT210    080ABEVE  FM   ON        000R$  000000000011500000000001500000000000115000000000013500000000001500000000000000000000000000000019000000000000211000000000000028621000000000000208502018082000000010000000000000BRABEVACNOR1119
012018073182ABEVT49     080ABEVE  FM   ON        000R$  000000000002700000000000340000000000027000000000003000000000000310000000000000000000000010000005000000000000018300000000000000560700000000000193502018082000000010000000000000BRABEVACNOR1117
012018073182ABEVT80     080ABEVE       ON        000R$  000000000005000000000000500000000000050000000000005000000000000500000000000000000000000000000001000000000000001000000000000000050000000000000196002018082000000010000000000000BRABEVACNOR1117
012018073182ABEVU20     080ABEVE  FM   ON        000R$  000000000008800000000000910000000000085000000000008800000000000850000000000000000000000000000013000000000000034000000000000003000400000000000200102018091700000010000000000000BRABEVACNOR1119
012018073182ABEVU48     080ABEVE  FM   ON        000R$  000000000002500000000000250000000000021000000000002300000000000210000000000000000000000000000002000000000000024000000000000000552000000000000185102018091700000010000000000000BRABEVACNOR1119
012018073182ABEVU5      080ABEVE       ON        000R$  000000000000700000000000070000000000007000000000000700000000000070000000000000000000000000000001000000000000038100000000000000266700000000000175102018091700000010000000000000BRABEVACNOR1117
012018073182ABEVU68     080ABEVE       ON        000R$  000000000001000000000000100000000000010000000000001000000000000100000000000000000000000000000001000000000000036600000000000000366000000000000177602018091700000010000000000000BRABEVACNOR1117
012018073182ABEVU79     080ABEVE  FM   ON        000R$  000000000003200000000000320000000000027000000000002900000000000270000000000000000000000000000002000000000000024000000000000000708000000000000187602018091700000010000000000000BRABEVACNOR1117
012018073182ABEVU87     080ABEVE       ON        000R$  000000000000500000000000050000000000005000000000000500000000000050000000000000000000000003000001000000000000038100000000000000190500000000000172602018091700000010000000000000BRABEVACNOR1117
012018073182ABEVU89     080ABEVE  FM   ON        000R$  000000000005100000000000510000000000045000000000004600000000000460000000000000000000000000000005000000000000056000000000000002624000000000000192602018091700000010000000000000BRABEVACNOR1117
012018073102ADHM3       010ADVANCED-DH ON           R$  000000000019000000000001900000000000180000000000018000000000001800000000000180000000000019400012000000000000010200000000000001841500000000000000009999123100000010000000000000BRADHMACNOR9101
012018073112AEFI11      010FII AESAPAR CI           R$  000000001506500000000151190000000015021000000001506800000000150380000000015037000000001510000102000000000000001251000000000018850166000000000000009999123100000010000000000000BRAEFICTF002179
012018073102AELP3       010AES ELPA    ON           R$  000000000021000000000002100000000000208000000000020900000000002080000000000208000000000022200006000000000000003300000000000000692400000000000000009999123100000010000000000000BRAELPACNOR2124
012018073112AGCX11      010FII AG CAIXACI           R$  000000010195000000001023000000000101430000000010164900000001020000000000101800000000010200000103000000000000000471000000000047876814000000000000009999123100000010000000000000BRAGCXCTF003168
012018073102AGRO3       010BRASILAGRO  ON      NM   R$  000000000139500000000014050000000001395000000000139900000000014020000000001402000000000140300115000000000000030900000000000043259300000000000000009999123100000010000000000000BRAGROACNOR7107
012018073112ALMI11      010FII TORRE ALCI           R$  000000013864400000001400000000000138644000000013996300000001388000000000138300000000013880000375000000000000000376000000000052626439000000000000009999123100000010000000000000BRALMICTF003249
012018073102ALPA4       010ALPARGATAS  PN      N1   R$  000000000130100000000013010000000001265000000000127600000000012750000000001275000000000127902718000000000000641400000000000818810000000000000000009999123100000010000000000000BRALPAACNPR7226
012018073196ALPA4F      020ALPARGATAS  PN      N1   R$  000000000131300000000013200000000001264000000000128900000000013200000000001280000000000132000032000000000000000880000000000001135158000000000000009999123100000010000000000000BRALPAACNPR7226
012018073162ALPA4T      030ALPARGATAS  PN      N1016R$  000000000127900000000012800000000001279000000000127900000000012800000000000000000000000000000002000000000000008700000000000011133542000000000000009999123100000010000000000000BRALPAACNPR7226
012018073102ALSC3       010ALIANSCE    ON      NM   R$  000000000151500000000015350000000001506000000000151700000000015110000000001511000000000151201852000000000000638400000000000968922500000000000000009999123100000010000000000000BRALSCACNOR0111
012018073196ALSC3F      020ALIANSCE    ON      NM   R$  000000000152000000000015240000000001518000000000152000000000015190000000001519000000000154500005000000000000000156000000000000237147000000000000009999123100000010000000000000BRALSCACNOR0111
012018073102ALUP11      010ALUPAR      UNT     N2   R$  000000000163100000000016390000000001611000000000162600000000016350000000001632000000000163502194000000000000441100000000000717421900000000000000009999123100000010000000000000BRALUPCDAM15108
012018073196ALUP11F     020ALUPAR      UNT     N2   R$  000000000163500000000016500000000001618000000000162700000000016500000000001626000000000165000019000000000000000363000000000000590936000000000000009999123100000010000000000000BRALUPCDAM15108
012018073196ALUP3F      020ALUPAR      ON      N2   R$  000000000060500000000006050000000000510000000000056600000000005100000000000540000000000060300008000000000000000087000000000000049324000000000000009999123100000010000000000000BRALUPACNOR8108
012018073196ALUP4F      020ALUPAR      PN      N2   R$  000000000045100000000004510000000000450000000000045000000000004500000000000465000000000050000002000000000000000084000000000000037820000000000000009999123100000010000000000000BRALUPACNPR5108
012018073112ALZR11      010FII ALIANZA CI           R$  000000000940000000000094000000000009350000000000936900000000094000000000009360000000000940000046000000000000001913000000000017923730000000000000009999123100000010000000000000BRALZRCTF006106
012018073102AMAR3       010LOJAS MARISAON      NM   R$  000000000040900000000004430000000000402000000000042700000000004430000000000442000000000044302700000000000000868200000000000370938700000000000000009999123100000010000000000000BRAMARACNOR4112
012018073196AMAR3F      020LOJAS MARISAON      NM   R$  000000000040900000000004390000000000406000000000041600000000004390000000000439000000000045000025000000000000000630000000000000262677000000000000009999123100000010000000000000BRAMARACNOR4112
012018073162AMAR3T      030LOJAS MARISAON      NM030R$  000000000043500000000004360000000000435000000000043500000000004360000000000000000000000000000002000000000000001200000000000000523029000000000000009999123100000010000000000000BRAMARACNOR4112
012018073102AMGN34      010AMGEN       DRN          R$  000000007385600000000738560000000073856000000007385600000000738560000000000000000000000000000001000000000000000200000000000014771200000000000000009999123100000010000000000000BRAMGNBDR004126
012018073196AMZO34F     020AMAZON      DRN          R$  000000033744900000003374490000000337449000000033744900000003374490000000333800000000050000000002000000000000000049000000000016535001000000000000009999123100000010000000000000BRAMZOBDR002101
012018073102ANIM3       010ANIMA       ON      NM   R$  000000000156600000000015660000000001485000000000150500000000015000000000001500000000000150101943000000000000453800000000000683247300000000000000009999123100000010000000000000BRANIMACNOR6105
012018073196ANIM3F      020ANIMA       ON      NM   R$  000000000152000000000015890000000001454000000000152100000000014540000000001454000000000158700018000000000000000284000000000000432137000000000000009999123100000010000000000000BRANIMACNOR6105
012018073162ANIM3T      030ANIMA       ON      NM062R$  000000000152300000000015240000000001523000000000152300000000015240000000000000000000000000000002000000000000002000000000000003047761000000000000009999123100000010000000000000BRANIMACNOR6105
012018073102ARZZ3       010AREZZO CO   ON      NM   R$  000000000410500000000042650000000004040000000000415000000000042650000000004143000000000426501678000000000000276600000000001147996600000000000000009999123100000010000000000000BRARZZACNOR3130
012018073196ARZZ3F      020AREZZO CO   ON      NM   R$  000000000413000000000041910000000004067000000000411100000000041200000000004097000000000425000024000000000000000250000000000001027805000000000000009999123100000010000000000000BRARZZACNOR3130
012018073178ARZZH482    070ARZZ        ON      NM000R$  000000000003100000000000310000000000031000000000003100000000000310000000000000000000000010000001000000000000006000000000000000186000000000000475702018082000000010000000000000BRARZZACNOR3128
012018073102ATOM3       010ATOMPAR     ON           R$  000000000022400000000002320000000000224000000000022700000000002290000000000227000000000022900041000000000000037100000000000008438800000000000000009999123100000010000000000000BRATOMACNOR1102
012018073196ATOM3F      020ATOMPAR     ON           R$  000000000024300000000002430000000000227000000000022700000000002270000000000226000000000024300003000000000000000056000000000000012728000000000000009999123100000010000000000000BRATOMACNOR1102
012018073102ATTB34      010ATT INC     DRN          R$  000000001202900000000120290000000012029000000001202900000000120290000000000000000000001202900001000000000000000200000000000002405800000000000000009999123100000010000000000000BRATTBBDR007124
012018073102AZUL4       010AZUL        PN      N2   R$  000000000241500000000024230000000002355000000000240300000000024130000000002405000000000241303592000000000000676000000000001624489400000000000000009999123100000010000000000000BRAZULACNPR4100
012018073196AZUL4F      020AZUL        PN      N2   R$  000000000248400000000024840000000002356000000000239700000000023710000000002371000000000238000027000000000000000537000000000001287415000000000000009999123100000010000000000000BRAZULACNPR4100
012018073162AZUL4T      030AZUL        PN      N2062R$  000000000243100000000024320000000002431000000000243100000000024320000000000000000000000000000002000000000000001000000000000002431455000000000000009999123100000010000000000000BRAZULACNPR4100
012018073178AZULH285    070AZUL        PN      N2000R$  000000000001100000000000110000000000010000000000001000000000000100000000000000000000000000000002000000000000056500000000000000601700000000000285002018082000000010000000000000BRAZULACNPR4100
012018073102B3SA3       010B3          ON      NM   R$  000000000235000000000023790000000002337000000000236100000000023790000000002373000000000237921759000000000007159500000000016903827400000000000000009999123100000010000000000000BRB3SAACNOR6102
012018073196B3SA3F      020B3          ON      NM   R$  000000000237000000000023800000000002337000000000235800000000023800000000002370000000000238000135000000000000004605000000000010860387000000000000009999123100000010000000000000BRB3SAACNOR6102
012018073162B3SA3T      030B3          ON      NM016R$  000000000235700000000023580000000002357000000000235700000000023580000000000000000000000000000002000000000000001000000000000002357125000000000000009999123100000010000000000000BRB3SAACNOR6102
012018073162B3SA3T      030B3          ON      NM030R$  000000000239300000000023940000000002393000000000239300000000023940000000000000000000000000000002000000000000000130000000000000311156000000000000009999123100000010000000000000BRB3SAACNOR6102
012018073162B3SA3T      030B3          ON      NM062R$  000000000237800000000023790000000002378000000000237800000000023790000000000000000000000000000002000000000000050000000000000118946677000000000000009999123100000010000000000000BRB3SAACNOR6102
012018073178B3SAH231    070B3SA  FM    ON      NM000R$  000000000010600000000001220000000000106000000000011600000000001220000000000080000000000000000016000000000000091300000000000010666500000000000229102018082000000010000000000000BRB3SAACNOR6101
012018073178B3SAH24     070B3SA  FM    ON      NM000R$  000000000005400000000000690000000000052000000000006100000000000660000000000020000000000010000035000000000000115200000000000007132400000000000239102018082000000010000000000000BRB3SAACNOR6101
012018073178B3SAH249    070B3SAE       ON      NM000R$  000000000002000000000000200000000000020000000000002000000000000200000000000000000000000000000001000000000000000700000000000000014000000000000246602018082000000010000000000000BRB3SAACNOR6100
012018073178B3SAH251    070B3SA  FM    ON      NM000R$  000000000002500000000000310000000000025000000000003000000000000310000000000031000000000004000030000000000000061000000000000001872600000000000249102018082000000010000000000000BRB3SAACNOR6101
012018073178B3SAH26     070B3SA  FM    ON      NM000R$  000000000001000000000000120000000000010000000000001100000000000120000000000002000000000002500002000000000000010100000000000000116000000000000259102018082000000010000000000000BRB3SAACNOR6101
012018073178B3SAH54     070B3SA        ON      NM000R$  000000000004600000000000460000000000046000000000004600000000000460000000000035000000000000000001000000000000001200000000000000055200000000000244102018082000000010000000000000BRB3SAACNOR6101
012018073178B3SAI22     070B3SA  FM    ON      NM000R$  000000000022300000000002350000000000223000000000022900000000002350000000000000000000000000000006000000000000045000000000000010320000000000000219402018091700000010000000000000BRB3SAACNOR6101
012018073178B3SAI23     070B3SA  FM    ON      NM000R$  000000000015900000000001690000000000159000000000016400000000001690000000000000000000000000000004000000000000030000000000000004942500000000000229402018091700000010000000000000BRB3SAACNOR6101
012018073178B3SAI238    070B3SAE       ON      NM000R$  000000000012600000000001260000000000126000000000012600000000001260000000000000000000000000000001000000000000001000000000000000126000000000000236902018091700000010000000000000BRB3SAACNOR6101
012018073178B3SAI24     070B3SA  FM    ON      NM000R$  000000000011500000000001160000000000115000000000011500000000001160000000000000000000000000000002000000000000011600000000000001338100000000000239402018091700000010000000000000BRB3SAACNOR6101
012018073178B3SAI25     070B3SA  FM    ON      NM000R$  000000000007000000000000760000000000070000000000007400000000000750000000000060000000000000000004000000000000013000000000000000966000000000000249402018091700000010000000000000BRB3SAACNOR6101
012018073178B3SAK56     070B3SAE       ON      NM000R$  000000000010000000000001000000000000100000000000010000000000001000000000000000000000000000000001000000000000000500000000000000050000000000000257602018111900000010000000000000BRB3SAACNOR6100
012018073182B3SAT211    080B3SAE       ON      NM000R$  000000000002000000000000200000000000010000000000001000000000000100000000000000000000000002000002000000000000008100000000000000082000000000000209102018082000000010000000000000BRB3SAACNOR6101
012018073182B3SAT22     080B3SAE  FM   ON      NM000R$  000000000002000000000000200000000000020000000000002000000000000200000000000009000000000004600001000000000000007500000000000000150000000000000219102018082000000010000000000000BRB3SAACNOR6101
012018073182B3SAT231    080B3SAE  FM   ON      NM000R$  000000000004700000000000490000000000044000000000004500000000000440000000000000000000000011000004000000000000023500000000000001074500000000000229102018082000000010000000000000BRB3SAACNOR6101
012018073182B3SAT24     080B3SAE  FM   ON      NM000R$  000000000009400000000000960000000000090000000000009300000000000960000000000000000000000000000008000000000000038200000000000003555200000000000239102018082000000010000000000000BRB3SAACNOR6101
012018073182B3SAT251    080B3SAE  FM   ON      NM000R$  000000000015300000000001630000000000153000000000015900000000001540000000000000000000000000000013000000000000062200000000000009911500000000000249102018082000000010000000000000BRB3SAACNOR6101
012018073182B3SAT53     080B3SAE       ON      NM000R$  000000000006900000000000690000000000069000000000006900000000000690000000000000000000000000000001000000000000000600000000000000041400000000000234102018082000000010000000000000BRB3SAACNOR6101
012018073182B3SAU20     080B3SAE       ON      NM000R$  000000000002500000000000280000000000006000000000001900000000000100000000000000000000000000000012000000000000001800000000000000035100000000000199402018091700000010000000000000BRB3SAACNOR6101
012018073182B3SAU238    080B3SAE       ON      NM000R$  000000000012600000000001260000000000126000000000012600000000001260000000000000000000000000000001000000000000000500000000000000063000000000000236902018091700000010000000000000BRB3SAACNOR6101
012018073182B3SAU24     080B3SAE  FM   ON      NM000R$  000000000013900000000001390000000000139000000000013900000000001390000000000000000000000000000001000000000000007500000000000001042500000000000239402018091700000010000000000000BRB3SAACNOR6101
012018073182B3SAU25     080B3SAE  FM   ON      NM000R$  000000000019800000000001980000000000197000000000019700000000001970000000000000000000000000000002000000000000015000000000000002962500000000000249402018091700000010000000000000BRB3SAACNOR6101
012018073182B3SAU6      080B3SAE       ON      NM000R$  000000000023300000000002330000000000233000000000023300000000002330000000000000000000000000000002000000000000000600000000000000139800000000000254402018091700000010000000000000BRB3SAACNOR6100
012018073182B3SAV52     080B3SAE       ON      NM000R$  000000000010200000000001020000000000102000000000010200000000001020000000000000000000000000000001000000000000003000000000000000306000000000000223102018101500000010000000000000BRB3SAACNOR6101
012018073182B3SAW210    080B3SAE       ON      NM000R$  000000000005000000000000500000000000050000000000005000000000000500000000000000000000000000000001000000000000000500000000000000025000000000000210102018111900000010000000000000BRB3SAACNOR6102
012018073182B3SAW234    080B3SAE       ON      NM000R$  000000000015000000000001500000000000150000000000015000000000001500000000000000000000000000000001000000000000000500000000000000075000000000000232602018111900000010000000000000BRB3SAACNOR6101
012018073102BAZA3       010AMAZONIA    ON           R$  000000000212200000000021890000000002122000000000216500000000021760000000002110000000000249900003000000000000000400000000000000866300000000000000009999123100000010000000000000BRBAZAACNOR0172
012018073196BAZA3F      020AMAZONIA    ON           R$  000000000211000000000021110000000002110000000000211000000000021110000000002111000000000235000002000000000000000041000000000000086519000000000000009999123100000010000000000000BRBAZAACNOR0172
012018073102BBAS3       010BRASIL      ON      NM   R$  000000000327600000000032840000000003209000000000324400000000032500000000003250000000000325117211000000000006957100000000022573843100000000000000009999123100000010000000000000BRBBASACNOR3277
012018073196BBAS3F      020BRASIL      ON      NM   R$  000000000327900000000032820000000003211000000000324500000000032390000000003239000000000325000230000000000000005841000000000018956212000000000000009999123100000010000000000000BRBBASACNOR3277
012018073162BBAS3T      030BRASIL      ON      NM016R$  000000000325700000000032620000000003257000000000326100000000032620000000000000000000000000000004000000000000270400000000000881961920000000000000009999123100000010000000000000BRBBASACNOR3277
012018073162BBAS3T      030BRASIL      ON      NM030R$  000000000327500000000032770000000003273000000000327500000000032770000000000000000000000000000006000000000000010400000000000034069493000000000000009999123100000010000000000000BRBBASACNOR3277
012018073162BBAS3T      030BRASIL      ON      NM062R$  000000000328300000000032840000000003283000000000328300000000032840000000000000000000000000000002000000000000000700000000000002298610000000000000009999123100000010000000000000BRBBASACNOR3277
012018073162BBAS3T      030BRASIL      ON      NM120R$  000000000334900000000033510000000003349000000000335000000000033510000000000000000000000000000004000000000000000600000000000002010264000000000000009999123100000010000000000000BRBBASACNOR3277
012018073178BBASH18     070BBASE       ON      NM000R$  000000000011800000000001180000000000106000000000011200000000001090000000000060000000000029000005000000000000010000000000000001125000000000000327302018082000000010000000000000BRBBASACNOR3269
012018073178BBASH19     070BBAS  FM    ON      NM000R$  000000000010100000000001070000000000093000000000009900000000000950000000000091000000000010900024000000000000037300000000000003694900000000000329802018082000000010000000000000BRBBASACNOR3269
012018073178BBASH20     070BBASE       ON      NM000R$  000000000008700000000001170000000000081000000000009400000000001170000000000075000000000009000006000000000000007000000000000000663000000000000332302018082000000010000000000000BRBBASACNOR3269
012018073178BBASH295    070BBAS        ON      NM000R$  000000000033800000000003380000000000338000000000033800000000003380000000000310000000000000000005000000000000010000000000000003380000000000000294802018082000000010000000000000BRBBASACNOR3276
012018073178BBASH300    070BBAS        ON      NM000R$  000000000031000000000003100000000000275000000000028500000000002850000000000290000000000000000016000000000000016200000000000004629500000000000299802018082000000010000000000000BRBBASACNOR3276
012018073178BBASH303    070BBASE       ON      NM000R$  000000000027500000000002800000000000260000000000026700000000002750000000000243000000000000000016000000000000016900000000000004515000000000000302302018082000000010000000000000BRBBASACNOR3277
012018073178BBASH308    070BBASE       ON      NM000R$  000000000022000000000002200000000000220000000000022000000000002200000000000150000000000000000003000000000000003500000000000000770000000000000307302018082000000010000000000000BRBBASACNOR3276
012018073178BBASH314    070BBASE       ON      NM000R$  000000000020000000000002000000000000200000000000020000000000002000000000000190000000000000000001000000000000002000000000000000400000000000000312302018082000000010000000000000BRBBASACNOR3275
012018073178BBASH315    070BBAS        ON      NM000R$  000000000020500000000002050000000000205000000000020500000000002050000000000098000000000030200002000000000000002900000000000000594500000000000309802018082000000010000000000000BRBBASACNOR3273
012018073178BBASH319    070BBASE       ON      NM000R$  000000000016500000000001730000000000165000000000016700000000001730000000000000000000000045000005000000000000006900000000000001154500000000000317302018082000000010000000000000BRBBASACNOR3275
012018073178BBASH320    070BBAS  FM    ON      NM000R$  000000000014800000000001580000000000140000000000014800000000001530000000000154000000000016200024000000000000134500000000000019995700000000000319802018082000000010000000000000BRBBASACNOR3276
012018073178BBASH324    070BBAS        ON      NM000R$  000000000012000000000001310000000000120000000000012900000000001310000000000001000000000000000005000000000000005700000000000000736200000000000324802018082000000010000000000000BRBBASACNOR3277
012018073178BBASH337    070BBAS        ON      NM000R$  000000000007400000000000850000000000074000000000008200000000000810000000000071000000000016000018000000000000098300000000000008145800000000000334802018082000000010000000000000BRBBASACNOR3275
012018073178BBASH339    070BBASE       ON      NM000R$  000000000006900000000000750000000000066000000000007000000000000700000000000000000000000007300013000000000000030100000000000002118800000000000337302018082000000010000000000000BRBBASACNOR3275
012018073178BBASH342    070BBAS  FM    ON      NM000R$  000000000006300000000000660000000000057000000000006000000000000600000000000060000000000006900031000000000000079200000000000004778300000000000339802018082000000010000000000000BRBBASACNOR3275
012018073178BBASH344    070BBASE       ON      NM000R$  000000000005600000000000560000000000056000000000005600000000000560000000000001000000000000000001000000000000000500000000000000028000000000000342302018082000000010000000000000BRBBASACNOR3275
012018073178BBASH349    070BBASE       ON      NM000R$  000000000004700000000000470000000000044000000000004600000000000440000000000026000000000005400003000000000000008300000000000000387200000000000347302018082000000010000000000000BRBBASACNOR3275
012018073178BBASH35     070BBAS  FM    ON      NM000R$  000000000003500000000000410000000000032000000000003600000000000320000000000032000000000004000039000000000000077300000000000002837400000000000349802018082000000010000000000000BRBBASACNOR3276
012018073178BBASH354    070BBASE       ON      NM000R$  000000000003500000000000460000000000030000000000003400000000000460000000000028000000000005800007000000000000052200000000000001819600000000000352302018082000000010000000000000BRBBASACNOR3275
012018073178BBASH355    070BBAS        ON      NM000R$  000000000002600000000000260000000000026000000000002600000000000260000000000024000000000005000001000000000000001000000000000000026000000000000354802018082000000010000000000000BRBBASACNOR3276
012018073178BBASH357    070BBASE       ON      NM000R$  000000000002500000000000250000000000025000000000002500000000000250000000000002000000000000000001000000000000000200000000000000005000000000000357302018082000000010000000000000BRBBASACNOR3277
012018073178BBASH360    070BBAS  FM    ON      NM000R$  000000000002000000000000220000000000018000000000001900000000000190000000000019000000000002400025000000000000057900000000000001153800000000000359802018082000000010000000000000BRBBASACNOR3276
012018073178BBASH375    070BBAS        ON      NM000R$  000000000001200000000000160000000000012000000000001200000000000160000000000009000000000001600002000000000000009200000000000000114400000000000369802018082000000010000000000000BRBBASACNOR3273
012018073178BBASH83     070BBASE       ON      NM000R$  000000000012300000000001230000000000123000000000012300000000001230000000000024000000000000000001000000000000000100000000000000012300000000000322302018082000000010000000000000BRBBASACNOR3272
012018073178BBASI17     070BBASE       ON      NM000R$  000000000007500000000000750000000000075000000000007500000000000750000000000000000000000000000001000000000000001000000000000000075000000000000364002018091700000010000000000000BRBBASACNOR3270
012018073178BBASI21     070BBAS  FM    ON      NM000R$  000000000019600000000001960000000000196000000000019600000000001960000000000000000000000000000001000000000000001000000000000000196000000000000326502018091700000010000000000000BRBBASACNOR3271
012018073178BBASI306    070BBASE       ON      NM000R$  000000000027500000000002750000000000275000000000027500000000002750000000000000000000000000000002000000000000005900000000000001622500000000000304002018091700000010000000000000BRBBASACNOR3275
012018073178BBASI324    070BBAS        ON      NM000R$  000000000021900000000002350000000000219000000000023300000000002350000000000000000000000000000008000000000000006400000000000001494500000000000321502018091700000010000000000000BRBBASACNOR3275
012018073178BBASI334    070BBASE       ON      NM000R$  000000000017000000000001700000000000169000000000016900000000001690000000000080000000000000000002000000000000002000000000000000338200000000000334002018091700000010000000000000BRBBASACNOR3276
012018073178BBASI339    070BBAS  FM    ON      NM000R$  000000000016900000000001690000000000169000000000016900000000001690000000000000000000000000000001000000000000006000000000000001014000000000000336502018091700000010000000000000BRBBASACNOR3275
012018073178BBASI344    070BBASE       ON      NM000R$  000000000012600000000001260000000000126000000000012600000000001260000000000000000000000000000001000000000000004000000000000000504000000000000344002018091700000010000000000000BRBBASACNOR3277
012018073178BBASI346    070BBAS  FM    ON      NM000R$  000000000012200000000001230000000000121000000000012200000000001210000000000003000000000000000005000000000000075900000000000009306100000000000346502018091700000010000000000000BRBBASACNOR3277
012018073178BBASI351    070BBASE       ON      NM000R$  000000000011900000000001190000000000119000000000011900000000001190000000000110000000000000000001000000000000002000000000000000238000000000000349002018091700000010000000000000BRBBASACNOR3275
012018073178BBASI352    070BBAS        ON      NM000R$  000000000011000000000001140000000000100000000000010800000000001070000000000000000000000000000010000000000000068000000000000007411000000000000351502018091700000010000000000000BRBBASACNOR3276
012018073178BBASI356    070BBASE       ON      NM000R$  000000000010500000000001050000000000105000000000010500000000001050000000000000000000000000000002000000000000002000000000000000210000000000000354002018091700000010000000000000BRBBASACNOR3275
012018073178BBASI361    070BBASE       ON      NM000R$  000000000009000000000000900000000000086000000000008600000000000860000000000000000000000000000002000000000000013000000000000001122000000000000359002018091700000010000000000000BRBBASACNOR3275
012018073178BBASI364    070BBAS        ON      NM000R$  000000000008800000000000880000000000078000000000008300000000000810000000000072000000000038500005000000000000003900000000000000326500000000000361502018091700000010000000000000BRBBASACNOR3275
012018073178BBASI51     070BBAS        ON      NM000R$  000000000030000000000003000000000000300000000000030000000000003000000000000000000000000000000002000000000000005900000000000001770000000000000301502018091700000010000000000000BRBBASACNOR3270
012018073178BBASJ327    070BBAS        ON      NM000R$  000000000034300000000003430000000000343000000000034300000000003430000000000000000000000000000001000000000000000500000000000000171500000000000327102018101500000010000000000000BRBBASACNOR3277
012018073178BBASJ36     070BBAS        ON      NM000R$  000000000020100000000002040000000000200000000000020000000000002000000000000000000000000025000005000000000000018800000000000003778600000000000352102018101500000010000000000000BRBBASACNOR3271
012018073178BBASJ364    070BBASE       ON      NM000R$  000000000014200000000001420000000000142000000000014200000000001420000000000000000000000000000002000000000000001000000000000000142000000000000364602018101500000010000000000000BRBBASACNOR3277
012018073178BBASL394    070BBASE       ON      NM000R$  000000000027000000000002700000000000270000000000027000000000002700000000000000000000000000000001000000000000001200000000000000324000000000000389202018121700000010000000000000BRBBASACNOR3273
012018073178BBASL402    070BBAS        ON      NM000R$  000000000018200000000001820000000000182000000000018200000000001820000000000000000000000000000002000000000000000200000000000000036400000000000396702018121700000010000000000000BRBBASACNOR3273
012018073178BBASL449    070BBASE       ON      NM000R$  000000000011000000000001100000000000110000000000011000000000001100000000000000000000000000000001000000000000001200000000000000132000000000000449202018121700000010000000000000BRBBASACNOR3277
012018073182BBAST148    080BBASE       ON      NM000R$  000000000007700000000000800000000000076000000000007800000000000760000000000060000000000010500005000000000000005500000000000000430200000000000314802018082000000010000000000000BRBBASACNOR3277
012018073182BBAST18     080BBASE       ON      NM000R$  000000000014000000000001400000000000132000000000013200000000001320000000000000000000000016900002000000000000005500000000000000730000000000000327302018082000000010000000000000BRBBASACNOR3269
012018073182BBAST19     080BBASE  FM   ON      NM000R$  000000000016200000000001620000000000145000000000015600000000001450000000000000000000000000000002000000000000001500000000000000234500000000000329802018082000000010000000000000BRBBASACNOR3269
012018073182BBAST20     080BBASE       ON      NM000R$  000000000015000000000001500000000000150000000000015000000000001500000000000000000000000000000001000000000000005000000000000000750000000000000332302018082000000010000000000000BRBBASACNOR3269
012018073182BBAST253    080BBASE       ON      NM000R$  000000000000100000000000050000000000001000000000000300000000000050000000000001000000000000600005000000000000012400000000000000040900000000000252302018082000000010000000000000BRBBASACNOR3276
012018073182BBAST267    080BBASE       ON      NM000R$  000000000000100000000000010000000000001000000000000100000000000010000000000001000000000001500001000000000000002200000000000000002200000000000264802018082000000010000000000000BRBBASACNOR3275
012018073182BBAST272    080BBASE       ON      NM000R$  000000000000900000000000090000000000009000000000000900000000000090000000000004000000000000900002000000000000001400000000000000012600000000000269802018082000000010000000000000BRBBASACNOR3275
012018073182BBAST282    080BBASE       ON      NM000R$  000000000001200000000000130000000000012000000000001200000000000130000000000006000000000001800003000000000000005000000000000000060500000000000279802018082000000010000000000000BRBBASACNOR3275
012018073182BBAST289    080BBASE       ON      NM000R$  000000000002000000000000200000000000020000000000002000000000000200000000000010000000000003000002000000000000000800000000000000016000000000000287302018082000000010000000000000BRBBASACNOR3275
012018073182BBAST293    080BBASE       ON      NM000R$  000000000002400000000000250000000000022000000000002400000000000250000000000012000000000002900011000000000000017200000000000000420700000000000292302018082000000010000000000000BRBBASACNOR3276
012018073182BBAST295    080BBASE       ON      NM000R$  000000000002700000000000300000000000027000000000002900000000000300000000000000000000000005500002000000000000002500000000000000074100000000000294802018082000000010000000000000BRBBASACNOR3276
012018073182BBAST303    080BBASE       ON      NM000R$  000000000004400000000000490000000000040000000000004400000000000400000000000002000000000006000013000000000000029300000000000001305600000000000302302018082000000010000000000000BRBBASACNOR3277
012018073182BBAST304    080BBASE       ON      NM000R$  000000000005300000000000530000000000048000000000004900000000000500000000000020000000000006200003000000000000006000000000000000295000000000000304802018082000000010000000000000BRBBASACNOR3277
012018073182BBAST308    080BBASE       ON      NM000R$  000000000005300000000000530000000000053000000000005300000000000530000000000000000000000000000001000000000000001000000000000000053000000000000307302018082000000010000000000000BRBBASACNOR3276
012018073182BBAST315    080BBASE  FM   ON      NM000R$  000000000006500000000000700000000000058000000000006400000000000600000000000025000000000006500007000000000000016100000000000001039000000000000309802018082000000010000000000000BRBBASACNOR3273
012018073182BBAST319    080BBASE       ON      NM000R$  000000000009000000000000900000000000080000000000008300000000000880000000000000000000000000000005000000000000058100000000000004877800000000000317302018082000000010000000000000BRBBASACNOR3275
012018073182BBAST320    080BBASE  FM   ON      NM000R$  000000000010000000000001000000000000095000000000009900000000000950000000000095000000000010700005000000000000012100000000000001200400000000000319802018082000000010000000000000BRBBASACNOR3276
012018073182BBAST339    080BBASE       ON      NM000R$  000000000018800000000001880000000000188000000000018800000000001880000000000000000000000000000001000000000000000100000000000000018800000000000337302018082000000010000000000000BRBBASACNOR3275
012018073182BBAST342    080BBASE  FM   ON      NM000R$  000000000021500000000002170000000000198000000000020600000000002060000000000000000000000000000008000000000000015700000000000003246900000000000339802018082000000010000000000000BRBBASACNOR3275
012018073182BBAST78     080BBASE       ON      NM000R$  000000000001200000000000120000000000012000000000001200000000000120000000000011000000000002000008000000000000008000000000000000096000000000000282302018082000000010000000000000BRBBASACNOR3272
012018073182BBAST83     080BBASE       ON      NM000R$  000000000010200000000001020000000000102000000000010200000000001020000000000000000000000013600001000000000000001000000000000000102000000000000322302018082000000010000000000000BRBBASACNOR3272
012018073182BBASU16     080BBASE       ON      NM000R$  000000000005400000000000540000000000054000000000005400000000000540000000000000000000000000000001000000000000001500000000000000081000000000000281502018091700000010000000000000BRBBASACNOR3271
012018073182BBASU279    080BBASE       ON      NM000R$  000000000005000000000000550000000000050000000000005200000000000550000000000000000000000005700007000000000000000700000000000000036700000000000279002018091700000010000000000000BRBBASACNOR3277
012018073182BBASU294    080BBASE       ON      NM000R$  000000000008100000000000810000000000081000000000008100000000000810000000000000000000000000000001000000000000000100000000000000008100000000000294002018091700000010000000000000BRBBASACNOR3276
012018073182BBASU299    080BBASE       ON      NM000R$  000000000009500000000000950000000000095000000000009500000000000950000000000000000000000000000001000000000000002000000000000000190000000000000299002018091700000010000000000000BRBBASACNOR3277
012018073182BBASU324    080BBASE       ON      NM000R$  000000000018100000000001810000000000180000000000018000000000001800000000000000000000000000000007000000000000006000000000000001083100000000000321502018091700000010000000000000BRBBASACNOR3275
012018073182BBASU329    080BBASE  FM   ON      NM000R$  000000000022000000000002200000000000220000000000022000000000002200000000000000000000000000000001000000000000000500000000000000110000000000000329002018091700000010000000000000BRBBASACNOR3276
012018073182BBASU50     080BBASE       ON      NM000R$  000000000010000000000001000000000000100000000000010000000000001000000000000000000000000010000002000000000000100000000000000010000000000000000296502018091700000010000000000000BRBBASACNOR3270
012018073182BBASV319    080BBASE       ON      NM000R$  000000000025700000000002620000000000257000000000026000000000002620000000000000000000000000000002000000000000000800000000000000208100000000000319602018101500000010000000000000BRBBASACNOR3277
012018073102BBDC3       010BRADESCO    ON      N1   R$  000000000283700000000028370000000002773000000000279800000000027880000000002772000000000279506123000000000002373800000000006643814100000000000000009999123100000010000000000000BRBBDCACNOR1682
012018073196BBDC3F      020BRADESCO    ON      N1   R$  000000000285900000000028590000000002771000000000280100000000027760000000002776000000000279700089000000000000002733000000000007655580000000000000009999123100000010000000000000BRBBDCACNOR1682
012018073162BBDC3T      030BRADESCO    ON      N1030R$  000000000284000000000028410000000002840000000000284000000000028410000000000000000000000000000002000000000000009198000000000026125475000000000000009999123100000010000000000000BRBBDCACNOR1682
012018073102BBDC4       010BRADESCO    PN      N1   R$  000000000310000000000031150000000003040000000000306700000000030530000000003043000000000305327994000000000010708400000000032850438500000000000000009999123100000010000000000000BRBBDCACNPR8682
012018073196BBDC4F      020BRADESCO    PN      N1   R$  000000000311100000000031110000000003040000000000306700000000030400000000003040000000000304400244000000000000006720000000000020615077000000000000009999123100000010000000000000BRBBDCACNPR8682
012018073162BBDC4T      030BRADESCO    PN      N1016R$  000000000305300000000030540000000003053000000000305300000000030540000000000000000000000000000002000000000000100000000000000305395480000000000000009999123100000010000000000000BRBBDCACNPR8682
012018073162BBDC4T      030BRADESCO    PN      N1030R$  000000000309000000000030910000000003090000000000309000000000030910000000000000000000000000000002000000000000000100000000000000309065000000000000009999123100000010000000000000BRBBDCACNPR8682
012018073162BBDC4T      030BRADESCO    PN      N1120R$  000000000315200000000031530000000003152000000000315200000000031530000000000000000000000000000002000000000000016000000000000050443107000000000000009999123100000010000000000000BRBBDCACNPR8682
012018073178BBDCH29     070BBDC  FM    ON      N1000R$  000000000003500000000000450000000000035000000000003800000000000450000000000000000000000004500004000000000000016500000000000000637500000000000289002018082000000010000000000000BRBBDCACNOR1679
012018073178BBDCH303    070BBDC        PN      N1000R$  000000000014500000000001450000000000100000000000013300000000001000000000000025000000000016000002000000000000000400000000000000053500000000000301902018082000000010000000000000BRBBDCACNPR8679
012018073178BBDCH313    070BBDC        PN      N1000R$  000000000007900000000000790000000000062000000000006800000000000620000000000057000000000009900003000000000000002300000000000000156700000000000311002018082000000010000000000000BRBBDCACNPR8679
012018073178BBDCH322    070BBDC  FM    PN      N1000R$  000000000004000000000000430000000000031000000000003700000000000320000000000032000000000004000023000000000000049600000000000001848100000000000320102018082000000010000000000000BRBBDCACNPR8679
012018073178BBDCH327    070BBDC  FM    PN      N1000R$  000000000002500000000000310000000000020000000000002700000000000200000000000000000000000004800013000000000000034100000000000000933300000000000325102018082000000010000000000000BRBBDCACNPR8679
012018073178BBDCH332    070BBDC        PN      N1000R$  000000000001800000000000200000000000015000000000001600000000000150000000000014000000000003500010000000000000028500000000000000477700000000000330102018082000000010000000000000BRBBDCACNPR8679
012018073178BBDCH340    070BBDC  FM    PN      N1000R$  000000000001000000000000100000000000010000000000001000000000000100000000000005000000000001500003000000000000001700000000000000017000000000000338302018082000000010000000000000BRBBDCACNPR8679
012018073178BBDCH349    070BBDC        PN      N1000R$  000000000000700000000000070000000000007000000000000700000000000070000000000000000000000002500001000000000000001000000000000000007000000000000347402018082000000010000000000000BRBBDCACNPR8679
012018073178BBDCH352    070BBDCE       PN      N1000R$  000000000000600000000000060000000000006000000000000600000000000060000000000000000000000000600002000000000000006000000000000000036000000000000349902018082000000010000000000000BRBBDCACNPR8678
012018073178BBDCH52     070BBDC        PN      N1000R$  000000000021000000000002130000000000210000000000021200000000002130000000000000000000000000000002000000000000010000000000000002121060000000000288102018082000000010000000000000BRBBDCACNPR8668
012018073178BBDCH6      070BBDCE       PN      N1000R$  000000000005100000000000510000000000051000000000005100000000000510000000000000000000000010800001000000000000000100000000000000005100000000000313502018082000000010000000000000BRBBDCACNPR8680
012018073178BBDCH61     070BBDC  FM    PN      N1000R$  000000000010500000000001080000000000084000000000009600000000000840000000000019000000000012900015000000000000017260000000000001666020000000000306202018082000000010000000000000BRBBDCACNPR8668
012018073178BBDCH84     070BBDCE       PN      N1000R$  000000000012600000000001260000000000105000000000011300000000001100000000000099000000000000000003000000000000000030000000000000003410000000000299402018082000000010000000000000BRBBDCACNPR8667
012018073178BBDCH91     070BBDC  FM    PN      N1000R$  000000000016100000000001610000000000156000000000015600000000001570000000000000000000000028900003000000000000002000000000000000312790000000000297102018082000000010000000000000BRBBDCACNPR8667
012018073178BBDCH96     070BBDCE       PN      N1000R$  000000000009900000000000990000000000070000000000009200000000000700000000000070000000000023000003000000000000002010000000000000185700000000000308502018082000000010000000000000BRBBDCACNPR8667
012018073178BBDCH97     070BBDCE       PN      N1000R$  000000000003700000000000370000000000037000000000003700000000000370000000000035000000000000000001000000000000000010000000000000000370000000000317602018082000000010000000000000BRBBDCACNPR8668
012018073178BBDCI309    070BBDCE       PN      N1000R$  000000000016800000000001680000000000154000000000016300000000001540000000000000000000000017000002000000000000030900000000000005038600000000000308002018091700000010000000000000BRBBDCACNPR8680
012018073178BBDCI6      070BBDC  FM    PN      N1000R$  000000000009900000000000990000000000099000000000009900000000000990000000000000000000000000000001000000000000001000000000000000099000000000000323002018091700000010000000000000BRBBDCACNPR8670
012018073178BBDCI96     070BBDCE       PN      N1000R$  000000000009600000000001000000000000096000000000009800000000001000000000000000000000000000000002000000000000001500000000000000148000000000000320702018091700000010000000000000BRBBDCACNPR8669
012018073178BBDCJ337    070BBDCE       PN      N1000R$  000000000011900000000001190000000000109000000000011500000000001090000000000000000000000000000002000000000000030900000000000003568100000000000334902018101500000010000000000000BRBBDCACNPR8678
012018073178BBDCJ40     070BBDCE       PN      N1000R$  000000000009400000000000940000000000094000000000009400000000000940000000000000000000000010100002000000000000020100000000000001889400000000000342602018101500000010000000000000BRBBDCACNPR8669
012018073178BBDCL349    070BBDC        PN      N1000R$  000000000014600000000001470000000000146000000000014600000000001470000000000000000000000000000003000000000000066000000000000009685800000000000349602018121700000010000000000000BRBBDCACNPR8682
012018073182BBDCT23     080BBDCE       PN      N1000R$  000000000001500000000000150000000000015000000000001500000000000150000000000000000000000001900005000000000000010000000000000000150000000000000283502018082000000010000000000000BRBBDCACNPR8668
012018073182BBDCT269    080BBDCE       PN      N1000R$  000000000001000000000000100000000000010000000000001000000000000100000000000000000000000000800001000000000000000100000000000000001000000000000268102018082000000010000000000000BRBBDCACNPR8680
012018073182BBDCT303    080BBDCE       PN      N1000R$  000000000005600000000000560000000000054000000000005400000000000540000000000001000000000000000002000000000000001300000000000000070800000000000301902018082000000010000000000000BRBBDCACNPR8679
012018073182BBDCT52     080BBDCE  FM   PN      N1000R$  000000000002400000000000260000000000022000000000002300000000000260000000000002000000000006000004000000000000023000000000000000543000000000000288102018082000000010000000000000BRBBDCACNPR8668
012018073182BBDCT6      080BBDCE       PN      N1000R$  000000000010500000000001150000000000105000000000011400000000001150000000000000000000000000000002000000000000002100000000000000240500000000000313502018082000000010000000000000BRBBDCACNPR8680
012018073182BBDCT61     080BBDCE       PN      N1000R$  000000000007000000000000800000000000070000000000007400000000000700000000000000000000000000000005000000000000008400000000000000626000000000000306202018082000000010000000000000BRBBDCACNPR8668
012018073182BBDCT65     080BBDCE       PN      N1000R$  000000000000900000000000090000000000009000000000000900000000000090000000000000000000000000900001000000000000000550000000000000004950000000000263102018082000000010000000000000BRBBDCACNPR8665
012018073182BBDCT84     080BBDCE  FM   PN      N1000R$  000000000004800000000000590000000000048000000000005300000000000590000000000000000000000000000015000000000000096050000000000005114460000000000299402018082000000010000000000000BRBBDCACNPR8667
012018073182BBDCT92     080BBDCE       PN      N1000R$  000000000000100000000000010000000000001000000000000100000000000010000000000001000000000000200003000000000000005610000000000000005610000000000231202018082000000010000000000000BRBBDCACNPR8667
012018073182BBDCT93     080BBDCE       PN      N1000R$  000000000000500000000000050000000000005000000000000500000000000050000000000000000000000000700001000000000000005000000000000000025000000000000258502018082000000010000000000000BRBBDCACNPR8667
012018073182BBDCT96     080BBDCE  FM   PN      N1000R$  000000000009300000000000950000000000093000000000009400000000000950000000000000000000000000000002000000000000002180000000000000206780000000000308502018082000000010000000000000BRBBDCACNPR8667
012018073182BBDCT97     080BBDCE  FM   PN      N1000R$  000000000013700000000001590000000000137000000000014100000000001590000000000000000000000000000005000000000000013410000000000001898450000000000317602018082000000010000000000000BRBBDCACNPR8668
012018073182BBDCU14     080BBDCE  FM   PN      N1000R$  000000000006700000000000690000000000067000000000006800000000000690000000000000000000000008000002000000000000000200000000000000013600000000000288902018091700000010000000000000BRBBDCACNPR8667
012018073182BBDCU260    080BBDCE       PN      N1000R$  000000000002000000000000230000000000018000000000002100000000000210000000000021000000000002200023000000000000021500000000000000452400000000000258502018091700000010000000000000BRBBDCACNPR8680
012018073182BBDCU300    080BBDCE       PN      N1000R$  000000000010300000000001030000000000103000000000010300000000001030000000000103000000000000000002000000000000000700000000000000072100000000000300502018091700000010000000000000BRBBDCACNPR8682
012018073182BBDCU302    080BBDCE       PN      N1000R$  000000000011000000000001100000000000110000000000011000000000001100000000000000000000000000000001000000000000000100000000000000011000000000000303002018091700000010000000000000BRBBDCACNPR8680
012018073182BBDCU41     080BBDCE       PN      N1000R$  000000000004200000000000490000000000042000000000004500000000000490000000000000000000000005000010000000000000001200000000000000054800000000000278702018091700000010000000000000BRBBDCACNPR8668
012018073182BBDCU70     080BBDCE       PN      N1000R$  000000000002800000000000280000000000028000000000002800000000000280000000000000000000000003100001000000000000000100000000000000002800000000000267302018091700000010000000000000BRBBDCACNPR8668
012018073182BBDCU86     080BBDCE       PN      N1000R$  000000000006700000000000670000000000066000000000006600000000000660000000000000000000000000000002000000000000430000000000000028595000000000000284302018091700000010000000000000BRBBDCACNPR8656
012018073112BBFI11B     010FII BB PROGRCI      MB   R$  000000020599900000002060000000000205000000000020520700000002050000000000204810000000020500000093000000000000000306000000000062793557000000000000009999123100000010000000000000BRBBFICTF006256
012018073112BBPO11      010FII BB PRGIICI           R$  000000001311000000000132680000000013093000000001312300000000131000000000013100000000001312501621000000000000027599000000000362183906000000000000009999123100000010000000000000BRBBPOCTF003168
012018073112BBRC11      010FII BB CORP CI           R$  000000001393800000000140000000000013840000000001389300000000138400000000013840000000001397000020000000000000000748000000000010392652000000000000009999123100000010000000000000BRBBRCCTF004182
012018073102BBRK3       010BR BROKERS  ON      NM   R$  000000000003400000000000340000000000032000000000003200000000000320000000000032000000000003300427000000000002701300000000000088985800000000000000009999123100000010000000000000BRBBRKACNOR4112
012018073196BBRK3F      020BR BROKERS  ON      NM   R$  000000000003700000000000370000000000033000000000003500000000000340000000000033000000000003400006000000000000000036000000000000001290000000000000009999123100000010000000000000BRBBRKACNOR4112
012018073114BBSD11      010BB ETF SP DVCI           R$  000000000575900000000057660000000005730000000000575600000000057300000000000000000000000693400009000000000000000390000000000002244900000000000000009999123100000010000000000000BRBBSDCTF000100
012018073102BBSE3       010BBSEGURIDADEON      NM   R$  000000000246700000000024890000000002417000000000245000000000024490000000002445000000000244912762000000000002495500000000006114027000000000000000009999123100000010000000000000BRBBSEACNOR5110
012018073196BBSE3F      020BBSEGURIDADEON      NM   R$  000000000247300000000024850000000002426000000000245200000000024450000000002445000000000246500260000000000000005710000000000014005445000000000000009999123100000010000000000000BRBBSEACNOR5110
012018073178BBSEH26     070BBSE        ON      NM000R$  000000000002500000000000250000000000025000000000002500000000000250000000000013000000000000000001000000000000000100000000000000002500000000000262602018082000000010000000000000BRBBSEACNOR5110
012018073178BBSEH29     070BBSE        ON      NM000R$  000000000000200000000000020000000000002000000000000200000000000020000000000000000000000000200001000000000000026900000000000000053800000000000292602018082000000010000000000000BRBBSEACNOR5110
012018073178BBSEH53     070BBSE  FM    ON      NM000R$  000000000011600000000001160000000000116000000000011600000000001160000000000000000000000000000001000000000000007000000000000000812000000000000237602018082000000010000000000000BRBBSEACNOR5110
012018073178BBSEH54     070BBSE  FM    ON      NM000R$  000000000007100000000000710000000000053000000000005700000000000530000000000000000000000020500003000000000000003200000000000000185200000000000247602018082000000010000000000000BRBBSEACNOR5110
012018073178BBSEH55     070BBSE  FM    ON      NM000R$  000000000003000000000000300000000000023000000000002500000000000250000000000001000000000004700004000000000000001300000000000000032800000000000257602018082000000010000000000000BRBBSEACNOR5110
012018073178BBSEH56     070BBSE  FM    ON      NM000R$  000000000001200000000000120000000000010000000000001000000000000100000000000007000000000001700003000000000000001000000000000000010700000000000267602018082000000010000000000000BRBBSEACNOR5110
012018073178BBSEH57     070BBSE  FM    ON      NM000R$  000000000000500000000000050000000000005000000000000500000000000050000000000004000000000002400001000000000000001000000000000000005000000000000277602018082000000010000000000000BRBBSEACNOR5110
012018073178BBSEH67     070BBSE        ON      NM000R$  000000000003300000000000330000000000031000000000003100000000000310000000000000000000000000000002000000000000001800000000000000056400000000000252602018082000000010000000000000BRBBSEACNOR5108
012018073178BBSEI24     070BBSE        ON      NM000R$  000000000015100000000001510000000000151000000000015100000000001510000000000000000000000000000001000000000000001000000000000000151000000000000240502018091700000010000000000000BRBBSEACNOR5110
012018073178BBSEI25     070BBSE        ON      NM000R$  000000000009400000000000940000000000094000000000009400000000000940000000000000000000000000000001000000000000000100000000000000009400000000000250502018091700000010000000000000BRBBSEACNOR5110
012018073178BBSEI26     070BBSE        ON      NM000R$  000000000004400000000000440000000000044000000000004400000000000440000000000000000000000004400001000000000000004000000000000000176000000000000260502018091700000010000000000000BRBBSEACNOR5110
012018073182BBSET24     080BBSEE       ON      NM000R$  000000000005000000000000500000000000050000000000005000000000000500000000000000000000000000000001000000000000001000000000000000050000000000000242602018082000000010000000000000BRBBSEACNOR5110
012018073182BBSET52     080BBSEE  FM   ON      NM000R$  000000000001300000000000130000000000013000000000001300000000000130000000000000000000000001600001000000000000004300000000000000055900000000000227602018082000000010000000000000BRBBSEACNOR5110
012018073182BBSET53     080BBSEE  FM   ON      NM000R$  000000000003800000000000380000000000038000000000003800000000000380000000000000000000000004500001000000000000001000000000000000038000000000000237602018082000000010000000000000BRBBSEACNOR5110
012018073182BBSET54     080BBSEE  FM   ON      NM000R$  000000000007600000000000760000000000076000000000007600000000000760000000000000000000000000000001000000000000003000000000000000228000000000000247602018082000000010000000000000BRBBSEACNOR5110
012018073182BBSEU245    080BBSEE  FM   ON      NM000R$  000000000009300000000000930000000000093000000000009300000000000930000000000000000000000000000001000000000000000600000000000000055800000000000245502018091700000010000000000000BRBBSEACNOR5110
012018073182BBSEU54     080BBSEE  FM   ON      NM000R$  000000000005000000000000530000000000050000000000005100000000000530000000000020000000000000000002000000000000002000000000000000103000000000000235502018091700000010000000000000BRBBSEACNOR5109
012018073182BBSEU56     080BBSEE  FM   ON      NM000R$  000000000022900000000002290000000000229000000000022900000000002290000000000000000000000000000001000000000000007000000000000001603000000000000265502018091700000010000000000000BRBBSEACNOR5110
012018073182BBSEV55     080BBSEE       ON      NM000R$  000000000016600000000001660000000000166000000000016600000000001660000000000000000000000000000001000000000000000300000000000000049800000000000255502018101500000010000000000000BRBBSEACNOR5110
012018073112BBVJ11      010FII C JARDIMCI           R$  000000000465000000000046500000000004500000000000453500000000045000000000004500000000000470000014000000000000000746000000000003383808000000000000009999123100000010000000000000BRBBVJCTF001186
012018073112BCFF11      010FII BC FFII CI           R$  000000000769800000000077500000000007631000000000768100000000076490000000007645000000000764900145000000000000002789000000000021423330000000000000009999123100000010000000000000BRBCFFCTF000202
012018073112BCIA11      010FII BCIA    CI           R$  000000001063000000000111900000000010401000000001078200000000111000000000010500000000001110000039000000000000000942000000000010157475000000000000009999123100000010000000000000BRBCIACTF005138
012018073112BCRI11      010FII BEES CRICI           R$  000000001050000000000105000000000010413000000001048800000000105000000000010499000000001050000218000000000000003676000000000038554052000000000000009999123100000010000000000000BRBCRICTF009138
012018073102BDLL4       010BARDELLA    PN           R$  000000000190000000000019100000000001900000000000190300000000019000000000001830000000000190000003000000000000000300000000000000571000000000000000009999123100000010000000000000BRBDLLACNPR8151
012018073102BEEF3       010MINERVA     ON      NM   R$  000000000071800000000007640000000000702000000000074800000000007540000000000753000000000075404762000000000005482100000000004105946000000000000000009999123100000010000000000000BRBEEFACNOR6107
012018073196BEEF3F      020MINERVA     ON      NM   R$  000000000073200000000007610000000000708000000000073800000000007480000000000748000000000075100050000000000000001867000000000001378031000000000000009999123100000010000000000000BRBEEFACNOR6107
012018073162BEEF3T      030MINERVA     ON      NM016R$  000000000075800000000007590000000000758000000000075800000000007590000000000000000000000000000002000000000000000400000000000000303238000000000000009999123100000010000000000000BRBEEFACNOR6107
012018073102BEES3       010BANESTES    ON           R$  000000000037000000000003700000000000361000000000036700000000003650000000000364000000000036500017000000000000004300000000000001582000000000000000009999123100000010000000000000BRBEESACNOR9312
012018073196BEES3F      020BANESTES    ON           R$  000000000036900000000003850000000000369000000000037000000000003850000000000362000000000038500006000000000000000062000000000000022990000000000000009999123100000010000000000000BRBEESACNOR9312
012018073102BEES4       010BANESTES    PN           R$  000000000037700000000003780000000000360000000000036500000000003600000000000358000000000036800005000000000000000600000000000000219500000000000000009999123100000010000000000000BRBEESACNPR6237
012018073196BEES4F      020BANESTES    PN           R$  000000000034700000000003900000000000347000000000036300000000003900000000000347000000000039000002000000000000000080000000000000029050000000000000009999123100000010000000000000BRBEESACNPR6237
012018073102BIDI4       010BANCO INTER PN      N1   R$  000000000173900000000017390000000001666000000000170900000000017000000000001666000000000170000313000000000000075600000000000129251900000000000000009999123100000010000000000000BRBIDIACNPR0101
012018073196BIDI4F      020BANCO INTER PN      N1   R$  000000000175200000000017520000000001700000000000171600000000017000000000001700000000000173000058000000000000001477000000000002535219000000000000009999123100000010000000000000BRBIDIACNPR0101
012018073102BIOM3       010BIOMM       ON      MA   R$  000000000085000000000008500000000000814000000000082500000000008150000000000815000000000083500056000000000000012300000000000010149900000000000000009999123100000010000000000000BRBIOMACNOR2106
012018073196BIOM3F      020BIOMM       ON      MA   R$  000000000081800000000008180000000000818000000000081800000000008180000000000805000000000090000002000000000000000025000000000000020450000000000000009999123100000010000000000000BRBIOMACNOR2106
012018073102BKBR3       010BK BRASIL   ON      NM   R$  000000000146700000000014780000000001396000000000141700000000014330000000001433000000000144401683000000000000377700000000000535343200000000000000009999123100000010000000000000BRBKBRACNOR4100
012018073196BKBR3F      020BK BRASIL   ON      NM   R$  000000000145200000000014520000000001400000000000141900000000014310000000001431000000000145000021000000000000000783000000000001111811000000000000009999123100000010000000000000BRBKBRACNOR4100
012018073102BMEB4       010MERC BRASIL PN           R$  000000000056500000000005700000000000555000000000056500000000005690000000000555000000000056900007000000000000002500000000000001412900000000000000009999123100000010000000000000BRBMEBACNPR5199
012018073196BMIN3F      020MERC INVEST ON           R$  000000000200000000000020000000000002000000000000200000000000020000000000001750000000000210000001000000000000000003000000000000006000000000000000009999123100000010000000000000BRBMINACNOR4167
012018073102BMIN4       010MERC INVEST PN           R$  000000000111000000000011100000000001110000000000111000000000011100000000001102000000000114000001000000000000000200000000000000222000000000000000009999123100000010000000000000BRBMINACNPR1169
012018073196BMIN4F      020MERC INVEST PN           R$  000000000111000000000011100000000001110000000000111000000000011100000000001102000000000115000004000000000000000093000000000000103230000000000000009999123100000010000000000000BRBMINACNPR1169
012018073102BNBR3       010NORD BRASIL ON           R$  000000000364900000000036490000000003649000000000364900000000036490000000003540000000000358000001000000000000000200000000000000729800000000000000009999123100000010000000000000BRBNBRACNOR8196
012018073112BNFS11      010FII BANRISULCI           R$  000000001130000000000115500000000011300000000001130600000000113500000000011350000000001139200009000000000000000263000000000002973501000000000000009999123100000010000000000000BRBNFSCTF000170
012018073102BOAC34      010BANK AMERICADRN          R$  000000001164800000000116480000000011629000000001164500000000116290000000000000000000001162900002000000000000000800000000000009316500000000000000009999123100000010000000000000BRBOACBDR004131
012018073102BOBR4       010BOMBRIL     PN           R$  000000000033000000000003380000000000316000000000032500000000003290000000000317000000000032900079000000000000030800000000000010023100000000000000009999123100000010000000000000BRBOBRACNPR3128
012018073196BOBR4F      020BOMBRIL     PN           R$  000000000033500000000003350000000000335000000000033500000000003350000000000201000000000034800002000000000000000050000000000000016750000000000000009999123100000010000000000000BRBOBRACNPR3128
012018073114BOVA11      010ISHARES BOVACI           R$  000000000770600000000077100000000007623000000000765100000000076450000000007635000000000764511174000000000002239720000000017137514650000000000000009999123100000010000000000000BRBOVACTF003103
012018073196BOVA11F     020ISHARES BOVACI           R$  000000000773000000000077470000000007447000000000766900000000076300000000007600000000000774200020000000000000000076000000000000582864000000000000009999123100000010000000000000BRBOVACTF003103
012018073178BOVAH70     070BOVA        CI        000R$  000000000067700000000006770000000000677000000000067700000000006770000000000000000000000000000001000000000000005000000000000003385000000000000700002018082000000010000000000000BRBOVACTF003103
012018073178BOVAH73     070BOVA        CI        000R$  000000000040300000000004030000000000403000000000040300000000004030000000000200000000000000000002000000000000020000000000000008060000000000000730002018082000000010000000000000BRBOVACTF003103
012018073178BOVAH74     070BOVA        CI        000R$  000000000033000000000003300000000000330000000000033000000000003300000000000000000000000000000001000000000000000500000000000000165000000000000740002018082000000010000000000000BRBOVACTF003103
012018073178BOVAH75     070BOVA        CI        000R$  000000000026500000000002790000000000243000000000026800000000002490000000000245000000000000000014000000000000033720000000000009051350000000000750002018082000000010000000000000BRBOVACTF003103
012018073178BOVAH76     070BOVA  FM    CI        000R$  000000000019700000000002180000000000197000000000020400000000001980000000000090000000000059900005000000000000003800000000000000776600000000000760002018082000000010000000000000BRBOVACTF003103
012018073178BOVAH77     070BOVA  FM    CI        000R$  000000000015300000000001530000000000126000000000015000000000001260000000000000000000000014900003000000000000011100000000000001670500000000000770002018082000000010000000000000BRBOVACTF003103
012018073178BOVAH775    070BOVAE       CI        000R$  000000000011500000000001150000000000115000000000011500000000001150000000000000000000000000000001000000000000002500000000000000287500000000000775002018082000000010000000000000BRBOVACTF003103
012018073178BOVAH78     070BOVA  FM    CI        000R$  000000000009600000000000960000000000085000000000009000000000000860000000000000000000000000000006000000000000004200000000000000379300000000000780002018082000000010000000000000BRBOVACTF003103
012018073178BOVAH79     070BOVA  FM    CI        000R$  000000000005500000000000550000000000055000000000005500000000000550000000000000000000000015000001000000000000002500000000000000137500000000000790002018082000000010000000000000BRBOVACTF003103
012018073178BOVAH80     070BOVA  FM    CI        000R$  000000000003800000000000380000000000038000000000003800000000000380000000000001000000000004000001000000000000005000000000000000190000000000000800002018082000000010000000000000BRBOVACTF003103
012018073178BOVAI77     070BOVA  FM    CI        000R$  000000000026100000000002710000000000260000000000026300000000002710000000000000000000000035000006000000000000032690000000000008625300000000000770002018091700000010000000000000BRBOVACTF003103
012018073178BOVAI79     070BOVA  FM    CI        000R$  000000000015800000000001580000000000158000000000015800000000001580000000000000000000000019800001000000000000000100000000000000015800000000000790002018091700000010000000000000BRBOVACTF003103
012018073178BOVAL90     070BOVA        CI        000R$  000000000013500000000001390000000000112000000000011900000000001120000000000110000000000012900037000000000000035030000000000004201090000000000900002018121700000010000000000000BRBOVACTF003103
012018073182BOVAM690    080BOVAE       CI        000R$  000000000011000000000001100000000000110000000000011000000000001100000000000000000000000000000001000000000000010830000000000001191300000000000690002019012100000010000000000000BRBOVACTF003103
012018073182BOVAM74     080BOVAE       CI        000R$  000000000034200000000003420000000000342000000000034200000000003420000000000000000000000000000002000000000000010830000000000003703860000000000740002019012100000010000000000000BRBOVACTF003103
012018073182BOVAT68     080BOVAE       CI        000R$  000000000000700000000000080000000000003000000000000600000000000030000000000001000000000000700005000000000000004000000000000000024200000000000680002018082000000010000000000000BRBOVACTF003103
012018073182BOVAT72     080BOVAE       CI        000R$  000000000002600000000000300000000000026000000000002800000000000300000000000005000000000000000002000000000000000200000000000000005600000000000720002018082000000010000000000000BRBOVACTF003103
012018073182BOVAT73     080BOVAE       CI        000R$  000000000003500000000000350000000000035000000000003500000000000350000000000000000000000000000001000000000000003000000000000000105000000000000730002018082000000010000000000000BRBOVACTF003103
012018073182BOVAT74     080BOVAE       CI        000R$  000000000005000000000000650000000000050000000000005500000000000650000000000046000000000006500005000000000000015200000000000000843800000000000740002018082000000010000000000000BRBOVACTF003103
012018073182BOVAT75     080BOVAE  FM   CI        000R$  000000000008000000000000910000000000080000000000008500000000000910000000000000000000000000000006000000000000013500000000000001154300000000000750002018082000000010000000000000BRBOVACTF003103
012018073182BOVAT76     080BOVAE  FM   CI        000R$  000000000012400000000001240000000000124000000000012400000000001240000000000000000000000012600002000000000000000600000000000000074400000000000760002018082000000010000000000000BRBOVACTF003103
012018073182BOVAT77     080BOVAE  FM   CI        000R$  000000000015600000000001720000000000156000000000016300000000001720000000000000000000000017000012000000000000005200000000000000848900000000000770002018082000000010000000000000BRBOVACTF003103
012018073182BOVAT78     080BOVAE  FM   CI        000R$  000000000020200000000002020000000000202000000000020200000000002020000000000000000000000000000001000000000000002000000000000000404000000000000780002018082000000010000000000000BRBOVACTF003103
012018073182BOVAU74     080BOVAE       CI        000R$  000000000015200000000001520000000000152000000000015200000000001520000000000000000000000000000001000000000000000100000000000000015200000000000740002018091700000010000000000000BRBOVACTF003103
012018073182BOVAU75     080BOVAE  FM   CI        000R$  000000000017900000000001790000000000179000000000017900000000001790000000000000000000000000000002000000000000013000000000000002327000000000000750002018091700000010000000000000BRBOVACTF003103
012018073114BOVV11      010IT NOW IBOV CI           R$  000000000804600000000080460000000007941000000000796700000000079410000000007941000000000798000060000000000000280760000000002236869380000000000000009999123100000010000000000000BRBOVVCTF009100
012018073182BOVVX70     080BOVVE       CI        000R$  000000000031000000000003100000000000300000000000030300000000003000000000000305000000000033000005000000000000000760000000000000230500000000000700002018121700000010000000000000BRBOVVCTF009100
012018073102BPAC11      010BTGP BANCO  UNT          R$  000000000201000000000020270000000001962000000000198200000000019800000000001964000000000198601804000000000000424100000000000840809900000000000000009999123100000010000000000000BRBPACUNT006102
012018073196BPAC11F     020BTGP BANCO  UNT          R$  000000000200700000000020490000000001974000000000200700000000020090000000001963000000000200900019000000000000000462000000000000927663000000000000009999123100000010000000000000BRBPACUNT006102
012018073102BPAC5       010BTGP BANCO  PNA          R$  000000000069900000000007000000000000699000000000069900000000007000000000000680000000000070000004000000000000000600000000000000419800000000000000009999123100000010000000000000BRBPACACNPA0117
012018073102BPAN4       010BANCO PAN   PN      N1   R$  000000000017400000000001760000000000171000000000017400000000001710000000000171000000000017300062000000000000040100000000000006981000000000000000009999123100000010000000000000BRBPANACNPR1106
012018073196BPAN4F      020BANCO PAN   PN      N1   R$  000000000017500000000001750000000000175000000000017500000000001750000000000166000000000017600005000000000000000180000000000000031500000000000000009999123100000010000000000000BRBPANACNPR1106
012018073112BPFF11      010FII ABSOLUTOCI           R$  000000000910400000000092600000000009016000000000920700000000092600000000009152000000000926000864000000000000006530000000000060124561000000000000009999123100000010000000000000BRBPFFCTF002164
012018073108BPHA3       010BR PHARMA   ON      NM   R$  000000000017300000000001750000000000167000000000016900000000001670000000000167000000000016900059000000000000047600000000000008090400000000000000009999123100000010000000000000BRBPHAACNOR6105
012018073196BPHA3F      020BR PHARMA   ON      NM   R$  000000000017100000000001820000000000170000000000017900000000001790000000000168000000000017900004000000000000000010000000000000001791000000000000009999123100000010000000000000BRBPHAACNOR6105
012018073102BRAP3       010BRADESPAR   ON      N1   R$  000000000284200000000028620000000002824000000000285700000000028470000000002847000000000286700139000000000000041700000000000119143000000000000000009999123100000010000000000000BRBRAPACNOR5133
012018073196BRAP3F      020BRADESPAR   ON      N1   R$  000000000283500000000028900000000002833000000000283800000000028330000000002801000000000283300007000000000000000116000000000000329249000000000000009999123100000010000000000000BRBRAPACNOR5133
012018073102BRAP4       010BRADESPAR   PN      N1   R$  000000000320000000000032580000000003196000000000324100000000032580000000003247000000000325807310000000000001562100000000005064051000000000000000009999123100000010000000000000BRBRAPACNPR2133
012018073196BRAP4F      020BRADESPAR   PN      N1   R$  000000000311500000000032550000000003115000000000323600000000032500000000003249000000000325500044000000000000000913000000000002954708000000000000009999123100000010000000000000BRBRAPACNPR2133
012018073162BRAP4T      030BRADESPAR   PN      N1120R$  000000000328500000000032860000000003285000000000328500000000032860000000000000000000000000000002000000000000002500000000000008214916000000000000009999123100000010000000000000BRBRAPACNPR2133
012018073178BRAPH311    070BRAP  FM    PN      N1000R$  000000000016000000000001600000000000160000000000016000000000001600000000000000000000000000000001000000000000000100000000000000016000000000000312102018082000000010000000000000BRBRAPACNPR2133
012018073182BRAPT1      080BRAPE  FM   PN      N1000R$  000000000005500000000000560000000000055000000000005500000000000560000000000000000000000000000004000000000000010000000000000000555000000000000317102018082000000010000000000000BRBRAPACNPR2133
012018073182BRAPU31     080BRAPE  FM   PN      N1000R$  000000000008500000000000850000000000085000000000008500000000000850000000000000000000000000000001000000000000000100000000000000008500000000000310002018091700000010000000000000BRBRAPACNPR2133
012018073114BRAX11      010ISHARES BRAXCI           R$  000000000647000000000064700000000006420000000000643200000000064250000000006000000000000642500005000000000000000830000000000005338910000000000000009999123100000010000000000000BRBRAXCTF002100
012018073112BRCR11      010FII BC FUND CI           R$  000000000894900000000089970000000008883000000000891800000000089200000000008883000000000892000645000000000000020576000000000183516743000000000000009999123100000010000000000000BRBRCRCTF000191
012018073102BRDT3       010PETROBRAS BRON  ED  NM   R$  000000000202600000000020260000000001940000000000197700000000019490000000001949000000000195911636000000000004401200000000008703350000000000000000009999123100000010000000000000BRBRDTACNOR1116
012018073196BRDT3F      020PETROBRAS BRON  ED  NM   R$  000000000203200000000020320000000001950000000000197700000000019580000000001958000000000209900098000000000000002708000000000005354248000000000000009999123100000010000000000000BRBRDTACNOR1116
012018073162BRDT3T      030PETROBRAS BRON  ED  NM016R$  000000000199700000000019980000000001956000000000197400000000019570000000000000000000000000000008000000000000018800000000000037129386000000000000009999123100000010000000000000BRBRDTACNOR1116
012018073162BRDT3T      030PETROBRAS BRON  ED  NM030R$  000000000199700000000019980000000001960000000000196400000000019610000000000000000000000000000006000000000000017000000000000033399865000000000000009999123100000010000000000000BRBRDTACNOR1116
012018073162BRDT3T      030PETROBRAS BRON  ED  NM062R$  000000000200100000000020020000000001989000000000199500000000019900000000000000000000000000000004000000000000002000000000000003991428000000000000009999123100000010000000000000BRBRDTACNOR1116
012018073102BRFS3       010BRF SA      ON      NM   R$  000000000229600000000023000000000002256000000000227400000000022650000000002262000000000226510891000000000003090000000000007029677900000000000000009999123100000010000000000000BRBRFSACNOR8118
012018073196BRFS3F      020BRF SA      ON      NM   R$  000000000229600000000022990000000002260000000000227500000000022650000000002260000000000226500163000000000000002949000000000006710574000000000000009999123100000010000000000000BRBRFSACNOR8118
012018073162BRFS3T      030BRF SA      ON      NM016R$  000000000227800000000022790000000002278000000000227800000000022790000000000000000000000000000002000000000000001600000000000003645988000000000000009999123100000010000000000000BRBRFSACNOR8118
012018073162BRFS3T      030BRF SA      ON      NM030R$  000000000230800000000023090000000002281000000000229400000000022820000000000000000000000000000006000000000000012400000000000028452236000000000000009999123100000010000000000000BRBRFSACNOR8118
012018073162BRFS3T      030BRF SA      ON      NM062R$  000000000230000000000023270000000002292000000000231200000000022930000000000000000000000000000012000000000000022500000000000052029819000000000000009999123100000010000000000000BRBRFSACNOR8118
012018073178BRFSH20     070BRFS        ON      NM000R$  000000000030200000000003110000000000292000000000030600000000002920000000000271000000000031500005000000000000006100000000000001868200000000000200002018082000000010000000000000BRBRFSACNOR8118
012018073178BRFSH22     070BRFS  FM    ON      NM000R$  000000000013500000000001550000000000134000000000015100000000001340000000000070000000000024600010000000000000012700000000000001918100000000000220002018082000000010000000000000BRBRFSACNOR8118
012018073178BRFSH23     070BRFS  FM    ON      NM000R$  000000000008500000000000890000000000077000000000007900000000000800000000000070000000000016900014000000000000037500000000000002969500000000000230002018082000000010000000000000BRBRFSACNOR8118
012018073178BRFSH235    070BRFS        ON      NM000R$  000000000007000000000000720000000000070000000000007100000000000720000000000000000000000018500003000000000000005000000000000000358600000000000235002018082000000010000000000000BRBRFSACNOR8118
012018073178BRFSH24     070BRFS  FM    ON      NM000R$  000000000004900000000000490000000000039000000000004100000000000390000000000039000000000004300006000000000000005800000000000000238700000000000240002018082000000010000000000000BRBRFSACNOR8118
012018073178BRFSH247    070BRFSE       ON      NM000R$  000000000002800000000000280000000000028000000000002800000000000280000000000000000000000007000001000000000000006000000000000000168000000000000247502018082000000010000000000000BRBRFSACNOR8118
012018073178BRFSH250    070BRFS  FM    ON      NM000R$  000000000002500000000000350000000000021000000000002300000000000350000000000017000000000003500007000000000000020100000000000000463100000000000250002018082000000010000000000000BRBRFSACNOR8118
012018073178BRFSH252    070BRFSE       ON      NM000R$  000000000001800000000000220000000000018000000000001900000000000220000000000000000000000002300002000000000000046800000000000000922400000000000252502018082000000010000000000000BRBRFSACNOR8118
012018073178BRFSH26     070BRFS  FM    ON      NM000R$  000000000001100000000000120000000000008000000000000900000000000100000000000007000000000001000009000000000000029500000000000000283900000000000260002018082000000010000000000000BRBRFSACNOR8118
012018073178BRFSH27     070BRFS        ON      NM000R$  000000000000500000000000050000000000005000000000000500000000000050000000000004000000000000600001000000000000005000000000000000025000000000000270002018082000000010000000000000BRBRFSACNOR8118
012018073178BRFSH275    070BRFS        ON      NM000R$  000000000000400000000000040000000000004000000000000400000000000040000000000001000000000001000002000000000000006000000000000000024000000000000275002018082000000010000000000000BRBRFSACNOR8118
012018073178BRFSI230    070BRFS  FM    ON      NM000R$  000000000013800000000001380000000000119000000000012700000000001190000000000010000000000011900021000000000000038300000000000004875800000000000230002018091700000010000000000000BRBRFSACNOR8118
012018073178BRFSI24     070BRFS  FM    ON      NM000R$  000000000008000000000000800000000000080000000000008000000000000800000000000073000000000000000002000000000000004000000000000000320000000000000240002018091700000010000000000000BRBRFSACNOR8118
012018073178BRFSI245    070BRFS        ON      NM000R$  000000000007600000000000760000000000076000000000007600000000000760000000000000000000000000000001000000000000000600000000000000045600000000000245002018091700000010000000000000BRBRFSACNOR8118
012018073178BRFSI247    070BRFSE       ON      NM000R$  000000000005500000000000550000000000055000000000005500000000000550000000000000000000000000000001000000000000006000000000000000330000000000000247502018091700000010000000000000BRBRFSACNOR8118
012018073178BRFSI25     070BRFS  FM    ON      NM000R$  000000000005300000000000540000000000052000000000005200000000000520000000000000000000000000000004000000000000020000000000000001055000000000000250002018091700000010000000000000BRBRFSACNOR8118
012018073178BRFSI252    070BRFSE       ON      NM000R$  000000000004700000000000470000000000038000000000004300000000000380000000000000000000000008200004000000000000046800000000000002019600000000000252502018091700000010000000000000BRBRFSACNOR8118
012018073178BRFSI260    070BRFS  FM    ON      NM000R$  000000000003500000000000410000000000035000000000003700000000000410000000000020000000000003100005000000000000009700000000000000359900000000000260002018091700000010000000000000BRBRFSACNOR8118
012018073178BRFSJ27     070BRFS        ON      NM000R$  000000000005500000000000550000000000055000000000005500000000000550000000000024000000000000000001000000000000000100000000000000005500000000000270002018101500000010000000000000BRBRFSACNOR8118
012018073178BRFSJ28     070BRFS        ON      NM000R$  000000000004500000000000450000000000045000000000004500000000000450000000000045000000000000000001000000000000000100000000000000004500000000000280002018101500000010000000000000BRBRFSACNOR8118
012018073178BRFSL227    070BRFSE       ON      NM000R$  000000000022000000000002200000000000220000000000022000000000002200000000000000000000000000000001000000000000000100000000000000022000000000000227502018121700000010000000000000BRBRFSACNOR8118
012018073182BRFST20     080BRFSE       ON      NM000R$  000000000002000000000000200000000000020000000000002000000000000200000000000000000000000010000001000000000000000100000000000000002000000000000200002018082000000010000000000000BRBRFSACNOR8118
012018073182BRFST210    080BRFSE  FM   ON      NM000R$  000000000003600000000000360000000000036000000000003600000000000360000000000000000000000018000001000000000000000100000000000000003600000000000210002018082000000010000000000000BRBRFSACNOR8118
012018073182BRFST23     080BRFSE  FM   ON      NM000R$  000000000011500000000001150000000000100000000000011100000000001100000000000024000000000000000005000000000000005600000000000000624600000000000230002018082000000010000000000000BRBRFSACNOR8118
012018073182BRFST235    080BRFSE       ON      NM000R$  000000000011000000000001500000000000110000000000012400000000001500000000000080000000000000000013000000000000001600000000000000199100000000000235002018082000000010000000000000BRBRFSACNOR8118
012018073182BRFST48     080BRFSE       ON      NM000R$  000000000001500000000000190000000000009000000000001400000000000110000000000004000000000002700012000000000000001900000000000000026600000000000185002018082000000010000000000000BRBRFSACNOR8118
012018073182BRFSU230    080BRFSE  FM   ON      NM000R$  000000000014000000000001400000000000140000000000014000000000001400000000000000000000000030000001000000000000001000000000000000140000000000000230002018091700000010000000000000BRBRFSACNOR8118
012018073182BRFSU50     080BRFSE       ON      NM000R$  000000000004000000000000400000000000040000000000004000000000000400000000000000000000000000000001000000000000000100000000000000004000000000000205002018091700000010000000000000BRBRFSACNOR8118
012018073182BRFSW195    080BRFSE       ON      NM000R$  000000000006000000000000600000000000060000000000006000000000000600000000000000000000000000000001000000000000016000000000000000960000000000000195002018111900000010000000000000BRBRFSACNOR8118
012018073182BRFSW54     080BRFSE       ON      NM000R$  000000000026000000000002600000000000260000000000026000000000002600000000000000000000000000000001000000000000016000000000000004160000000000000245002018111900000010000000000000BRBRFSACNOR8118
012018073102BRIN3       010BR INSURANCEON      NM   R$  000000000148400000000014840000000001426000000000145100000000014560000000001456000000000147100054000000000000011200000000000016253500000000000000009999123100000010000000000000BRBRINACNOR3111
012018073102BRIV3       010ALFA INVEST ON           R$  000000000050000000000005000000000000500000000000050000000000005000000000000481000000000050700008000000000000001600000000000000800000000000000000009999123100000010000000000000BRBRIVACNOR6205
012018073102BRIV4       010ALFA INVEST PN           R$  000000000065600000000006800000000000655000000000065900000000006800000000000655000000000068000010000000000000003500000000000002308300000000000000009999123100000010000000000000BRBRIVACNPR3206
012018073102BRKM3       010BRASKEM     ON      N1   R$  000000000518000000000052980000000005100000000000520700000000052980000000005121000000000529800010000000000000001600000000000008331600000000000000009999123100000010000000000000BRBRKMACNOR1116
012018073196BRKM3F      020BRASKEM     ON      N1   R$  000000000502000000000050200000000005020000000000502000000000050200000000005021000000000519000001000000000000000001000000000000005020000000000000009999123100000010000000000000BRBRKMACNOR1116
012018073102BRKM5       010BRASKEM     PNA     N1   R$  000000000530100000000055300000000005300000000000543800000000054710000000005471000000000548009770000000000002240000000000012181800200000000000000009999123100000010000000000000BRBRKMACNPA4116
012018073196BRKM5F      020BRASKEM     PNA     N1   R$  000000000505500000000055250000000004929000000000540700000000054800000000005457000000000548000128000000000000003227000000000017448758000000000000009999123100000010000000000000BRBRKMACNPA4116
012018073162BRKM5T      030BRASKEM     PNA     N1016R$  000000000551200000000055130000000005512000000000551200000000055130000000000000000000000000000002000000000000000300000000000001653753000000000000009999123100000010000000000000BRBRKMACNPA4116
012018073162BRKM5T      030BRASKEM     PNA     N1181R$  000000000553900000000055400000000005539000000000553900000000055400000000000000000000000000000002000000000000000400000000000002215914000000000000009999123100000010000000000000BRBRKMACNPA4116
012018073178BRKMH51     070BRKM        PNA     N1000R$  000000000039000000000003900000000000390000000000039000000000003900000000000000000000000000000001000000000000000100000000000000039000000000000510002018082000000010000000000000BRBRKMACNPA4116
012018073178BRKMH52     070BRKM  FM    PNA     N1000R$  000000000029700000000002970000000000297000000000029700000000002970000000000000000000000000000001000000000000000500000000000000148500000000000520002018082000000010000000000000BRBRKMACNPA4116
012018073178BRKMH53     070BRKM  FM    PNA     N1000R$  000000000025300000000002530000000000253000000000025300000000002530000000000000000000000000000001000000000000000400000000000000101200000000000530002018082000000010000000000000BRBRKMACNPA4116
012018073178BRKMH54     070BRKM  FM    PNA     N1000R$  000000000016200000000002200000000000153000000000019700000000002200000000000050000000000000000004000000000000003100000000000000612400000000000540002018082000000010000000000000BRBRKMACNPA4116
012018073178BRKMH55     070BRKM  FM    PNA     N1000R$  000000000014500000000001650000000000145000000000015200000000001540000000000140000000000000000011000000000000011800000000000001794000000000000550002018082000000010000000000000BRBRKMACNPA4116
012018073178BRKMH56     070BRKM  FM    PNA     N1000R$  000000000006700000000001130000000000067000000000008000000000001120000000000000000000000000000017000000000000019800000000000001595800000000000560002018082000000010000000000000BRBRKMACNPA4116
012018073178BRKMH58     070BRKM        PNA     N1000R$  000000000005000000000000500000000000050000000000005000000000000500000000000001000000000000000001000000000000001000000000000000050000000000000580002018082000000010000000000000BRBRKMACNPA4116
012018073178BRKMI52     070BRKM  FM    PNA     N1000R$  000000000039400000000004560000000000394000000000045300000000004560000000000000000000000000000003000000000000002100000000000000951400000000000520002018091700000010000000000000BRBRKMACNPA4116
012018073178BRKMI54     070BRKM  FM    PNA     N1000R$  000000000028300000000002830000000000283000000000028300000000002830000000000000000000000000000001000000000000000100000000000000028300000000000540002018091700000010000000000000BRBRKMACNPA4116
012018073178BRKMI55     070BRKM  FM    PNA     N1000R$  000000000021200000000002860000000000212000000000024800000000002850000000000003000000000000000008000000000000007100000000000001765800000000000550002018091700000010000000000000BRBRKMACNPA4116
012018073178BRKMI56     070BRKM  FM    PNA     N1000R$  000000000017500000000002330000000000175000000000022800000000002220000000000000000000000028300005000000000000005100000000000001167000000000000560002018091700000010000000000000BRBRKMACNPA4116
012018073182BRKMT52     080BRKME  FM   PNA     N1000R$  000000000005700000000000570000000000057000000000005700000000000570000000000000000000000000000002000000000000003000000000000000171000000000000520002018082000000010000000000000BRBRKMACNPA4116
012018073102BRML3       010BR MALLS PARON      NM   R$  000000000100400000000010070000000000988000000000099800000000009950000000000993000000000099510788000000000003787500000000003781560300000000000000009999123100000010000000000000BRBRMLACNOR9110
012018073196BRML3F      020BR MALLS PARON      NM   R$  000000000099800000000010060000000000987000000000099700000000009870000000000987000000000100000039000000000000000887000000000000884881000000000000009999123100000010000000000000BRBRMLACNOR9110
012018073162BRML3T      030BR MALLS PARON      NM090R$  000000000100900000000010100000000001009000000000100900000000010100000000000000000000000000000002000000000000005000000000000005049520000000000000009999123100000010000000000000BRBRMLACNOR9110
012018073178BRMLH10     070BRML  FM    ON      NM000R$  000000000003800000000000380000000000038000000000003800000000000380000000000000000000000000000001000000000000000200000000000000007600000000000100002018082000000010000000000000BRBRMLACNOR9110
012018073178BRMLH102    070BRMLE       ON      NM000R$  000000000002800000000000280000000000028000000000002800000000000280000000000000000000000000000001000000000000000100000000000000002800000000000102502018082000000010000000000000BRBRMLACNOR9110
012018073178BRMLH11     070BRML  FM    ON      NM000R$  000000000000700000000000070000000000005000000000000600000000000050000000000000000000000000000002000000000000001100000000000000007500000000000110002018082000000010000000000000BRBRMLACNOR9110
012018073178BRMLI11     070BRML  FM    ON      NM000R$  000000000002500000000000250000000000025000000000002500000000000250000000000000000000000000000002000000000000000500000000000000012500000000000110002018091700000010000000000000BRBRMLACNOR9110
012018073178BRMLI40     070BRML  FM    ON      NM000R$  000000000003900000000000390000000000039000000000003900000000000390000000000000000000000000000005000000000000025000000000000000975000000000000105002018091700000010000000000000BRBRMLACNOR9110
012018073182BRMLT10     080BRMLE  FM   ON      NM000R$  000000000003600000000000360000000000036000000000003600000000000360000000000000000000000000000001000000000000002000000000000000072000000000000100002018082000000010000000000000BRBRMLACNOR9110
012018073102BRPR3       010BR PROPERT  ON      NM   R$  000000000091700000000009250000000000888000000000090300000000009020000000000902000000000090400984000000000000196300000000000177316800000000000000009999123100000010000000000000BRBRPRACNOR9118
012018073196BRPR3F      020BR PROPERT  ON      NM   R$  000000000091100000000009270000000000894000000000090500000000008940000000000894000000000094000005000000000000000105000000000000095107000000000000009999123100000010000000000000BRBRPRACNOR9118
